:020000040800F2
:10000000883D0020010100088F07000889010008D1
:100010008D0700086D010008C70B000800000000F4
:1000200000000000000000000000000019090008A6
:100030008701000800000000610800081B09000893
:100040001B0100081B0100081B0100081B01000820
:100050001B0100081B0100081B0100081B01000810
:100060001B0100081B0100081B0100081B01000800
:100070006F01000873010008770100087B01000888
:100080007F010008830100081B0100081B01000814
:100090001B0100081B0100081B0100081B010008D0
:1000A0001B0100081B0100081B0100081B010008C0
:1000B000090A00081B0100081B0100081B010008B9
:1000C0001B0100081B0100081B0100081B010008A0
:1000D0001B0100084D0B0008510B0008550B0008D0
:1000E0001B0100081B0100081B010008DFF80CD0F1
:1000F00000F02AF80048004701110008883D002060
:100100000648804706480047FEE7FEE7FEE7FEE7B1
:10011000FEE7FEE7FEE7FEE7FEE7FEE7C1090008AF
:10012000ED000008D2B201E000F8012B491EFBD21D
:1001300070470022F6E710B513460A4604461946F2
:10014000FFF7F0FF204610BD064C074D06E0E068C3
:1001500040F0010394E8070098471034AC42F6D30E
:10016000FFF7C8FF342D0008542D0008FEE702F009
:100170002FB802F009B801F0A7B801F07FB801F07C
:100180003DBC01F05FBC7047FEE700000248C1685B
:1001900081F40051C160704700100140044908B566
:1001A0004A6902434A6149690140009108BD000063
:1001B00000100240044908B5CA690243CA61C9690E
:1001C0000140009108BD000000100240044908B53C
:1001D000CA690243CA61C9690140009108BD0000B3
:1001E00000100240044908B58A6902438A6189699E
:1001F0000140009108BD000000100240044908B50C
:100200008A6902438A6189690140009108BD000042
:1002100000100240044A114411F8011C425822F017
:10022000010242507047000014290008044A11449A
:1002300011F8011C425822F004024250704700009D
:1002400014290008044A114411F8011C425822F0F4
:10025000020242507047000014290008044A114469
:1002600011F8011C425822F0080242507047000069
:1002700014290008044A114411F8011C425842F0A4
:10028000010242507047000014290008044A11443A
:1002900011F8011C425842F004024250704700001D
:1002A00014290008044A114411F8011C425842F074
:1002B000020242507047000014290008044A114409
:1002C00011F8011C425842F00802425070470000E9
:1002D00014290008034A001D114411F8011C085894
:1002E00080B2704714290008034A114411F8011C18
:1002F000405800F00100704714290008034A1144D7
:1003000011F8011C4058C0F3800070471429000800
:10031000034A114411F8011C4058C0F340007047D3
:1003200014290008044B194411F8011C435823F404
:10033000405313434350704714290008054B001DD8
:10034000194411F8011C0B586FF30F0313430B50A2
:100350007047000014290008054B10B5194411F826
:10036000011C435844F21004A3431343435010BDEF
:1003700014290008034B0C30194411F8011C0A50D1
:100380007047000014290008044B194411F8011C9F
:10039000435823F080031343435070471429000847
:1003A000044B194411F8011C435823F440631343D0
:1003B0004350704714290008044B194411F8011CDC
:1003C000435823F020031343435070471429000877
:1003D000034B0830194411F8011C0A507047000003
:1003E00014290008044B194411F8011C435823F048
:1003F000400313434350704714290008044B194429
:1004000011F8011C435823F44073134343507047C1
:1004100014290008F0B50A68C2F30F2595FAA5F271
:10042000B2FA82F369E001229A402A4264D0082B92
:1004300003D240F201129A4006E0A3F108024FF005
:100440000114944044F0806292FAA2F700EB126427
:10045000B7FA87F74FEA870C0F27266807FA0CF7D9
:10046000BE4392FAA2F7D1F804E0B7FA87F7BF00CB
:100470000EFA07FE46EA0E0626600E69C7684FEAC6
:10048000122C9CFAACFCBCFA8CFC27EA122706FA68
:100490000CF63743C7604E68012E01D0092E2BD1D0
:1004A00092FAA2F7B7FA87F74FEA870C032707FA01
:1004B0000CF72668D1F808E0BE4392FAA2F7B7FA23
:1004C00087F7BF000EFA07FE92FAA2FC46EA0E0674
:1004D000BCFA8CFC4FEA8C0E4FF0040C26600CFA30
:1004E0000EFC92FAA2F2B2FA82F2CF68920026EAE9
:1004F0000C0697403E4326605B1C35FA03F292D10E
:100500000020F0BD4FF47A71B0FBF1F14FF0E02024
:10051000491E41610021816105210161704700B5DB
:10052000034600F0C9F9186000F09CF9586000F02B
:10053000A7F99860586800F0B1F9D86000BD0000D4
:10054000014908607047000018000020F0B50268FB
:10055000154B164C164D4FF08046984205D0B042D0
:1005600003D0A04201D0A84203D14F6822F070020C
:100570003A43984205D0B04203D0A04201D0A842ED
:1005800003D1CC6822F44072224302608A68C262BE
:100590000A888262984201D1097C0163416941F075
:1005A000010141610020F0BD002C01400004004029
:1005B0000008004008B5016800914068009008BD3F
:1005C00008B5016800914068009008BD134B0022F7
:1005D0001349984208D1C86840F48040C860C86890
:1005E00020F48040C86017E00E4B984207D108699C
:1005F00040F400300861086920F4003009E00A4B3B
:10060000984208D1086940F480200861086920F404
:100610008020086100E00122104670470038014048
:100620000010024000440040004800402DE9FF4116
:100630000446C0680D460126C0F34030F0BBE968AF
:100640006868E2680843296941F20C639A431143E0
:100650000843E060A868216921F440510143216109
:100660006869616921F44071014361616846FFF77F
:1006700056FF2448844201D1039806E02248844270
:1006800002D02248844238D10298B8B12A68AAB16F
:1006900000EBC00101EB00119200B1FBF2F364200A
:1006A000B3FBF0F3B1FBF2F56FF018077B430026C4
:1006B00005EB8305322303EB051500E01DE0B1FBDC
:1006C000F2F7B5FBF0F5B7FBF0F705F0F00505EB39
:1006D0000715B1FBF2F7B1FBF2F1B1FBF0F16FF0EE
:1006E0001802514307EB810103EB0111B1FBF0F05C
:1006F00000F00F00284480B2A06004B03046BDE88E
:10070000F0810000003801400044004000480040F3
:1007100010B586B014216846FFF70BFD0120FFF7E6
:1007200055FD194800680022C0F30220114600F070
:1007300055F801461C2000F083F84FF0E0224FF0FE
:1007400080510020C2F800112321ADF800103121A2
:10075000CDE901014FF08044039069462046FFF740
:10076000F5FE206820F080002060A06844F20701B8
:100770008843A060606820F070006060A06820F08E
:100780008000A06006B010BD0CED00E0FEE77047F1
:10079000002809DB00F01F02012191404009800080
:1007A00000F1E020C0F80011704730B500F00703F9
:1007B000C3F10704042C00D90424181D072801D212
:1007C000002300E0DB1E012505FA04F0401E08406E
:1007D00098409D406D1E1540284330BD30B500F057
:1007E0000703C3F10704042C00D90424181D0728AB
:1007F00001D2002300E0DB1E012505FA04F0401EB3
:10080000084098409D406D1E1540284330BD0000B3
:1008100002480068C0F30220704700000CED00E0C1
:100820000907090E002804DB00F1E02080F800141D
:10083000704700F00F0000F1E02080F8141D7047B1
:100840000907090E002804DB00F1E02080F80014FD
:10085000704700F00F0000F1E02080F8141D704791
:100860007047000004494968044A01F0F001090991
:10087000515CC84070470000001002401C2D000869
:1008800004494968044A01F4E06102EB1121097846
:10089000C8407047001002402C2D000804494968E8
:1008A000044A01F4605102EBD1210978C840704735
:1008B000001002402C2D00080648406810F00C0182
:1008C000054805D0042903D0082901D100F006B855
:1008D000704700000010024000127A000B48416887
:1008E00011F480320A4909D0B2F5803F06D141683F
:1008F000084AC1F34041491CB2FBF1F140680222B1
:1009000000F4701002EB9040484370470010024022
:1009100000093D0000127A0070477047254810B565
:10092000016821F0070141F00201016000682248DE
:10093000016841F4803101600168C1F34041002940
:10094000FAD0416821F47C1141F4E811416001685A
:1009500041F0807101600168C1F340610029FAD063
:10096000416821F0F0014160416821F4E06141F407
:1009700080614160416821F4605141F4005141605F
:10098000416821F0030141F002014160416801F03A
:100990000C010829FAD1094C2046FFF7B3FD4FF0AE
:1009A000E021086940F0040008612046BDE81040DD
:1009B000FFF7C6BD002002400010024000A24A041A
:1009C0000D48016841F00101016041680B4A114086
:1009D000416001680A4A11400160016821F48021E8
:1009E0000160416821F4FE0141604FF41F01816004
:1009F0000449C00308607047001002400000FFF87F
:100A0000FFFFF6FE08ED00E010B54FF080442069CE
:100A100010F0010F08D005480168491C016000F082
:100A20005BFB6FF00100206110BD0000140000208E
:100A300070B5104805682868D0F5A05019D0AC688A
:100A40004FF4A0518C4200D90C46844200D9044690
:100A5000204600F0BBFF00280BD007492868084457
:100A6000214600F0DDFE286820442860A868401C6C
:100A7000A86070BD1C2800201C0000202DE9F0415A
:100A8000134C8046256800F0E2FA07466868A4F532
:100A9000A05681193A46404600F0A5FA68684FF41E
:100AA000A0523844686090420AD10A480068012187
:100AB000A06061740020C5B2335CAB4202D0A17467
:100AC000BDE8F081401C9042F5D30020A074F7E708
:100AD0001C28002014000020FEB5002001250090F5
:100AE000CDE90105144A4FF4A05100BF02F8010BF3
:100AF000401C8842FAD3114800F088FB6A4642F253
:100B00001071012000F070F80D4E0E4C0E4F0EE0EB
:100B1000E0683968884203D865740420A07409E04D
:100B2000B04700F0F3FB00F0ADFF01F071FB607C1B
:100B30000028EDD0A07CFEBD1C0000201C1400206D
:100B4000310A00081C2800201400002000F034BDE9
:100B500001F0ECB801F0B4BC002070470449097CF6
:100B6000002903D0012901D1FFF788BF7047000099
:100B70001C2800200449097C002903D0012901D147
:100B800001F049BA704700001C2800200449097C84
:100B9000002903D0012901D101F00BBE70470000EC
:100BA0001C28002010B5044600F0D2F81CB1012C1E
:100BB00005D0052010BDBDE8104000F0C9B8BDE863
:100BC0001040FFF789BFFEE702E008C8121F08C106
:100BD000002AFAD170477047002001E001C1121FBE
:100BE000002AFBD170470000094B10B51874094862
:100BF00004685C60006801EB810100EBC100D86013
:100C0000002098605874072098741A6010BD000086
:100C10001C2800201400002000F02AFA00F09EFB9F
:100C200000F058FF01F01CFBFFF796FF10B101F038
:100C300067FEFEE7002001F063FE4FF4FA642046F1
:100C400000F00AFA00F014FA22A000F0B5FE2AA083
:100C500001F078FA32A001F03FFE4FF4165000F098
:100C6000E4FA0120FFF79EFF01F04AFE204600F063
:100C7000F3F900F0FDF96510284600F0EDF94FF4A6
:100C8000E13000F0D2FA0120FFF78CFF01F038FECE
:100C9000204600F0E1F900F0EBF9284600F0DCF91D
:100CA0004FF4612000F0C1FA0120FFF77BFF01F053
:100CB00027FE204600F0D0F900F0DAF9284600F0CF
:100CC000CBF9224800F0B1FA0120FFF76BFF01F0E9
:100CD00017FEFEE7314674657374206A756E6B20EB
:100CE000312064666764676473666764666768205A
:100CF0006466202E2E2E0A00325374657374206AA7
:100D0000756E6B203220657265722065727968207D
:100D10006572687920657268202E2E2E0A00000008
:100D2000335474657374206A756E6B203320736559
:100D300072682065686A2064666768206466686413
:100D40007A66686466682E2E2E0A0000200B20004A
:100D5000002210B511461046FFF746FF002010BDD7
:100D60002DE9F0411C4C94F82000002832D1EFF31B
:100D7000108572B60421194E3046FFF74BFA4FF436
:100D8000804070604010706040107060C000706003
:100D90006069D0E90112571A1AD0402F00D94027B4
:100DA0003A46616800F01FF9E0693844E0613A466C
:100DB00004213046FFF7C2FA042130466268FFF78B
:100DC000D9FA012084F8200004213046FFF752FAB6
:100DD00085F31088BDE8F081302800200000024033
:100DE0002DE9F0411C4C94F82000002831D1EFF39C
:100DF000108572B60721194E3046FFF70BFA7002C4
:100E000070604010706040107060C0007060606979
:100E1000D0E90112571A1AD0402F00D940273A467C
:100E2000616800F0E0F8E0693844E0613A46072183
:100E30003046FFF783FA072130466268FFF79AFAD7
:100E4000012084F8200007213046FFF713FA85F3CC
:100E50001088BDE8F08100007828002000000240E2
:100E60002DE9F0411C4C94F82000002831D1EFF31B
:100E7000108572B60221194E3046FFF7CBF940209B
:100E80007060202070601020706080207060606949
:100E9000D0E90112571A1AD0402F00D940273A46FC
:100EA000616800F0A0F8E0693844E0613A46022148
:100EB0003046FFF743FA022130466268FFF75AFADC
:100EC000012084F8200002213046FFF7D3F985F392
:100ED0001088BDE8F0810000C0280020000002401A
:100EE0000A46054991F8213023B1CB6801461846DE
:100EF00000F020B88B68F9E7302800200A46054941
:100F000091F8213023B1CB680146184600F012B8A1
:100F10008B68F9E7782800200A46054991F82130C6
:100F200023B1CB680146184600F004B88B68F9E796
:100F3000C028002030B59AB1D0E902431B1B934270
:100F400001D2032030BD056822442B198260A81805
:100F500004E000BF11F8012B03F8012B8342F9D103
:100F6000002030BDF0B5426842B181684FF0000406
:100F70008B1A0ED001688D18CE1805E00020F0BD48
:100F800015F8017B01F8017BB142F9D1C0E90143B9
:100F900001E0846044601046F0BDD0E90110814258
:100FA00001D10120704700207047C16000F110029C
:100FB0000021C0E900218160704710B4426832B15D
:100FC00083689A4206D100214160816009E00020D7
:100FD00010BC7047C468E31A8B4202D210BCFFF702
:100FE000C1BF1046F4E730B5002A0CD0D0E9005458
:100FF00022442B194260A81803E013F8012B01F8D2
:10100000012B8342F9D130BD0021416081607047DE
:1010100070B5D0E90152D1E90243521B1B1B9A4221
:1010200000D91A46002A11D003682B440D682C44BD
:101030009D1803E013F8016B04F8016BAB42F9D182
:1010400043681344436088681044886070BD8168B9
:101050004068081A70470000044900EB80000A68E5
:1010600002EBC0000A688242FCD3704714000020E3
:1010700005480021017144F62061016003494FF4E5
:10108000005008617047000000000020001001407F
:1010900005480021017144F62061016003494FF4C5
:1010A000005048617047000000000020001001401F
:1010B00003480121017144F620610160704700007E
:1010C000000000200348012101714FF4FA61016022
:1010D000704700000000002007480168074A1268B6
:1010E000B2FBF1F301FB1321002904D100790028A0
:1010F00001D0FFF74BB8704700000020140000201B
:1011000086B00120FFF77AF84FF08050FFF75EF8C5
:10111000324801684FF6FF021140314A41F44071F4
:101120001143016000680022C0F302200A21FFF78A
:1011300055FB01464FF0FF30FFF782FB294841681D
:1011400021F0E0614160416841F000714160FFF7CA
:10115000E5FB14216846FEF7ECFF1020FFF74EF880
:101160002020FFF74BF80420FFF748F80820FFF78E
:1011700045F81E481C494FF40052026100910121BC
:101180000324CDE901140022CDE903216946FFF7CC
:1011900041F9FFF7BDFA03234FF416551A461449D7
:1011A0002846009400F0E2F803231A461149284625
:1011B000009400F097FC03231A460F492846009438
:1011C00001F056F84FF08040016841F001010160E4
:1011D000C16841F00101C160FFF71EFD0CED00E0A8
:1011E0000000FA050000014020002004001001402A
:1011F0005D0B0008750B00088D0B0008002302E052
:1012000000F8011B5B1C9342FAD370470A46002189
:10121000FFF7F4BF01464FF4806200200B5C002B07
:1012200002D0401C9042F9D3704710B5044600F03C
:10123000D5FA204600F08CFE204601F057FA042033
:10124000FFF70AFF00F00CF800F0CAFB00F08EFF79
:1012500000F084F800F03EFCBDE8104001F000B85A
:1012600010B500F01FFB00F0BDF90348C16821F480
:101270000051C16010BD00000038014010B5114C94
:1012800005212046FFF73AF840B12068C0F38040BE
:1012900020B14FF48020606000F078FA05212046EC
:1012A000FFF736F800280BD02068C0F34040002834
:1012B00006D04FF400306060BDE8104000F066BA20
:1012C00010BD00000000024010B50E4C0421204665
:1012D000FFF71EF860B12068C0F3403040B14FF412
:1012E000005060600849002081F82000FFF738FDB9
:1012F0002068C0F3C030002802D04FF40040606086
:1013000010BD0000000002403028002010B5124C33
:10131000012084F821002169A068FFF779FEA06808
:10132000FFF720FE002084F82100D4E90301FFF735
:101330006FFEE068FFF716FE2069FFF72EFE00281B
:1013400008D1A16909B1206988472069BDE810402A
:10135000FFF75ABE10BD00003028002010B500F085
:10136000DDFABDE8104000F09BB900002DE9FF4F09
:1013700085B005461E4617464FF48040DDF848808C
:10138000FEF730FF0120FEF709FF0420FEF72AFFD9
:101390000DB94FF4E135814C802104F5B9606562E7
:1013A00084F8287084F8296084F82A8004F12C06D7
:1013B00000250C343561FFF7F8FDA06004F27C5085
:1013C00044F8080C8020206125757548E560009080
:1013D00009200327CDE901074FF00108DFF8C4A178
:1013E000CDE9035869465046FFF714F8DFF8B8B165
:1013F000102204215846FEF7AFFF00220421584670
:10140000FEF790FF002204215846FEF7D5FF002288
:1014100004215846FEF7E6FF802204215846FEF7D5
:10142000B3FF002204215846FEF7E8FF0022042102
:101430005846FEF7B5FF5D4A04215846FEF7C8FF3F
:1014400054F8082C04215846FEF794FF002204218A
:101450005846FEF773FFFFF7DBF9617F0022FFF7C5
:10146000A4F901460E20FFF7DBF90E20FFF790F9F3
:1014700030694FF4007140F00800306104F1CC0095
:1014800044F80C0C00F52870FFF78FFD4FF48079BD
:101490006060494604F5E670FFF787FD44F8040CE8
:1014A0006575802104F53770FFF77FFD20604048A7
:1014B000694605600698E0603E4800900420CDE94A
:1014C0000107CDE903585046FEF7A4FF002205218D
:1014D0005846FEF741FF002205215846FEF722FF3D
:1014E000202205215846FEF767FF002205215846B5
:1014F000FEF778FF802205215846FEF745FF0022BF
:1015000005215846FEF77AFF002205215846FEF7CE
:1015100047FF264A05215846FEF75AFF54F80C2C7F
:1015200005215846FEF726FF4A4605215846FEF794
:1015300005FFFFF76DF9217F0022FFF736F901461D
:101540000F20FFF76DF90F20FFF722F930693146C0
:1015500040F004003061A069C6E90005B560F5609F
:101560007561124D2D1F2846FFF760F8286920F499
:1015700090402861686920F02A006861FFF748F907
:10158000A17F0022FFF711F901462520FFF748F956
:101590002520FFF7FDF809B0BDE8F08F30280020C6
:1015A000020002040008014000000240043801402B
:1015B0000800002004000404094810B5C168C1F304
:1015C000001100290AD00168C1F30011002905D0DB
:1015D000FEF7F0FFBDE8104000F0D8B810BD0000E5
:1015E0000038014070B5EFF3108572B60521264E24
:1015F0003046FEF71BFE05213046FEF723FE234C46
:10160000E06820F01000E060606920F04000606158
:1016100005213046FEF7FEFD4FF48020706040103B
:10162000706040107060C00070602046FEF7C8FF18
:101630002046FEF7BFFF6FF0200020606FF04000F3
:1016400020606FF4807020606FF40070206085F37C
:1016500010880F486115A0F1D803186000F52870B4
:10166000FFF7A3FC1861A1150A48FFF79EFC0024B0
:10167000986083F8214080210748FFF796FCD860E6
:101680000648046070BD00000000024000380140C0
:1016900008290020082A0020182B0020080000201C
:1016A0002DE9F041EFF3108672B6324D4FF48020F1
:1016B00068604010686040106860C00068602E4C30
:1016C0002046FEF77DFF2046FEF774FF6FF02000F6
:1016D00020606FF0400020606FF4807020606FF435
:1016E00000702060254F052128463A68FEF742FE2B
:1016F0004FF48078424605212846FEF71FFE05215B
:101700002846FEF7C3FD05212846FEF7CBFDE0681D
:1017100040F01000E060606940F040006061052129
:101720002846FEF7A7FDE06840F40050E060052180
:101730002846FEF7D9FD0028F9D086F310880F4817
:101740004FF40071D830386000F52870FFF72DFC99
:10175000386141460A48FFF728FC0023B86087F843
:10176000213080210748FFF720FCF860064803601D
:10177000BDE8F08100000240003801403028002020
:10178000082A0020182B00200800002070B5052131
:101790000F48FEF79FFD0F4EC0F580740E4D306868
:1017A00084420FD004D92A68A4EB0001104407E05A
:1017B0002A68C0F580711044FFF792FB2146286823
:1017C000FFF78EFBB4F5807F00D10024346070BD3C
:1017D00000000240080000203028002070B50446B8
:1017E0000D48446200F05EF8FFF7FCFE0B4DE86820
:1017F00020F40050E86008482C3004602846FEF7CA
:10180000E5FE054928462C31FEF710FF00F086F86A
:10181000BDE87040FFF744BF302800200038014089
:101820002DE9F04107460E0011D0EFF3108472B697
:101830000E4D6869FFF7C1FB6869D0E90221891A7A
:10184000B14206D284F310880320BDE8F081002065
:10185000FBE732463946FFF76DFB10B9E869801B9C
:10186000E86184F31088FFF77BFAF0E73028002066
:101870002DE9F0410E46074600250EE0741B802C32
:1018800000D98024204600F0A1F80028FAD0214693
:101890003846FFF7C5FF25442744B542EED3BDE8DF
:1018A000F081000070B5194C04212046FEF7CAFCF7
:1018B00004212046FEF7D2FC154D686920F0800017
:1018C000686104212046FEF7A5FC124B93F8200026
:1018D00038B12868C0F3C0100028FAD0002083F87F
:1018E00020004FF4804060604010606040106060F5
:1018F000C000606080210848FFF757FB5861064828
:10190000403858608020D86170BD0000000002405F
:101910000038014030280020F82D00202DE9F0414A
:1019200080212148FFF741FB204D686105F5B1603A
:1019300068608020E861EFF3108672B61C4C4FF4AB
:10194000804060604010606040106060C000606077
:1019500004212046FEF7A6FC04212046FEF7AEFC3B
:10196000144F786940F080007861002204212046FD
:10197000FEF7E4FC042120466A68FEF7FBFC042124
:101980002046FEF777FC04212046FEF7ADFC002838
:10199000F9D0F86840F40050F860002085F8200085
:1019A00086F31088BDE8F081F82D00203028002053
:1019B000000002400038014010B50446FFF72AFC41
:1019C00001462046BDE81040FFF752BF0349C969F0
:1019D000814201D301207047002070473028002049
:1019E00010B500F025FB00F0B7F90348C16821F4F9
:1019F0000051C16010BD00000044004010B5104C03
:101A000006212046FEF77AFC38B12068C0F38050EA
:101A100018B16001606000F073FA06212046FEF7FD
:101A200077FC00280BD02068C0F34050002806D077
:101A30004FF400106060BDE8104000F061BA10BDC6
:101A40000000024010B50D4C07212046FEF760FC57
:101A500058B12068C0F3406038B120026060084986
:101A6000002081F82000FFF7BBF92068C0F3C060B8
:101A7000002802D04FF00060606010BD00000240FE
:101A80007828002010B5124C012084F8210021692B
:101A9000A068FFF7BDFAA068FFF764FA002084F899
:101AA0002100D4E90301FFF7B3FAE068FFF75AFA1F
:101AB0002069FFF772FA002808D1A16909B12069ED
:101AC00088472069BDE81040FFF79EBA10BD0000AE
:101AD0007828002010B500F0E7FABDE8104000F0CB
:101AE00097B900002DE9FF4F85B005461E46174601
:101AF0004FF40030DDF84880FEF75CFB0120FEF774
:101B00004DFB0420FEF76EFB0DB94FF4E135824C1E
:101B1000802104F53060656284F8287084F82960BB
:101B200084F82A8004F12C0600250C343561FFF777
:101B30003CFAA06004F6B42044F8080C8020206130
:101B4000257540F20440E560009009200327CDE9A7
:101B500001074FF00108DFF8C4A1CDE90358694639
:101B60005046FEF757FCDFF8B8B11022072158465F
:101B7000FEF7F2FB002207215846FEF7D3FB0022B6
:101B800007215846FEF718FC002207215846FEF7A9
:101B900029FC802207215846FEF7F6FB0022072188
:101BA0005846FEF72BFC002207215846FEF7F8FBAB
:101BB0005C4A07215846FEF70BFC54F8082C072115
:101BC0005846FEF7D7FB002207215846FEF7B6FB22
:101BD000FEF71EFE617F0022FEF7E7FD01461120A1
:101BE000FEF71EFE1120FEF7D3FD30694FF40071A1
:101BF00040F00800306104F2046044F80C0C00F579
:101C00002870FFF7D2F94FF480796060494604F2FA
:101C10000470FFF7CAF944F8040C6575802104F6D6
:101C20001400FFF7C2F920603F48694645600698F6
:101C3000E06040F6080000900420CDE90107CDE9FE
:101C400003585046FEF7E6FB002206215846FEF7F1
:101C500083FB002206215846FEF764FB2022062162
:101C60005846FEF7A9FB002206215846FEF7BAFBAC
:101C7000802206215846FEF787FB0022062158469F
:101C8000FEF7BCFB002206215846FEF789FB254AD9
:101C900006215846FEF79CFB54F80C2C06215846AA
:101CA000FEF768FB4A4606215846FEF747FBFEF75B
:101CB000AFFD217F0022FEF778FD01461020FEF7E0
:101CC000AFFD1020FEF764FD3069314640F004009E
:101CD0003061A069C6E90005B560F5607561114D18
:101CE0002D1F2846FEF7A2FC286920F490402861A9
:101CF000686920F02A006861FEF78AFDA17F002252
:101D0000FEF753FD01462620FEF78AFD2620FEF74A
:101D10003FFD09B0BDE8F08F7828002000080140A1
:101D2000000002400444004008000020094810B5AB
:101D3000C168C1F3001100290AD00168C1F3001184
:101D4000002905D0FEF736FCBDE8104000F0D8B8F9
:101D500010BD00000044004070B5EFF3108572B66E
:101D60000621254E3046FEF761FA06213046FEF781
:101D700069FA224CE06820F01000E060606920F011
:101D80004000606106213046FEF744FA7001706041
:101D90004010706040107060C00070602046FEF718
:101DA0000FFC2046FEF706FC6FF0200020606FF06D
:101DB000400020606FF4807020606FF4007020603D
:101DC00085F310880E486115A0F5C263186000F510
:101DD0002870FFF7EAF81861A1150A48FFF7E5F83F
:101DE0000024986083F8214080210748FFF7DDF840
:101DF000D8600648446070BD0000024000440040C6
:101E0000882E0020882F0020983000200800002015
:101E10002DE9F041EFF3108672B6324D4FF4800099
:101E200068604010686040106860C00068602E4CB8
:101E30002046FEF7C5FB2046FEF7BCFB6FF02000F6
:101E400020606FF0400020606FF4807020606FF4BD
:101E500000702060254F062128463A68FEF78AFA6E
:101E60004FF48078424606212846FEF767FA06219D
:101E70002846FEF70BFA06212846FEF713FAE0681B
:101E800040F01000E060606940F0400060610621B1
:101E90002846FEF7EFF9E06840F40050E0600621C4
:101EA0002846FEF721FA0028F9D086F3108810485A
:101EB00038604FF4007100F52870FFF776F838614C
:101EC00041460C48FFF771F80023B86087F82130CD
:101ED00080210948FFF769F8F86008484360BDE8C9
:101EE000F0810000000002400044004078280020FB
:101EF000882E0020882F0020983000200800002025
:101F000070B506210F48FEF7E5F90F4EC0F5807455
:101F10000E4D706884420FD004D92A68A4EB0001EA
:101F2000104407E02A68C0F580711044FEF7E6FF10
:101F300021462868FEF7E2FFB4F5807F00D1002437
:101F4000746070BD00000240080000207828002066
:101F500070B504460D48446200F06AF8FFF7FCFED5
:101F60000B4DE86820F40050E86008482C3004600D
:101F70002846FEF72BFB054928462C31FEF756FB79
:101F800000F092F8BDE87040FFF742BF78280020CB
:101F9000004400402DE9F04107460E0011D0EFF358
:101FA000108472B60E4D6869FFF707F86869D0E9CA
:101FB0000221891AB14206D284F310880320BDE8B9
:101FC000F0810020FBE732463946FEF7B3FF10B937
:101FD000E869801BE86184F31088FEF701FFF0E7F1
:101FE000782800202DE9F0410E46074600250EE036
:101FF000741B802C00D98024204600F0ADF8002806
:10200000FAD021463846FFF7C5FF25442744B5429C
:10201000EED3BDE8F08170B50446D4E901010D1A94
:1020200029462068FFF7DEFF60682844606070BDC5
:1020300070B5194C07212046FEF704F90721204608
:10204000FEF70CF9154D686920F0800068610721E2
:102050002046FEF7DFF8124B93F8200038B12868CD
:10206000C0F3C0100028FAD0002083F820004FF001
:10207000806060604010606040106060C000606020
:1020800080210848FEF791FF5861064840385860A3
:102090008020D86170BD0000000002400044004074
:1020A00078280020783300202DE9F0418021214854
:1020B000FEF77BFF204D686105F52C60686080208D
:1020C000E861EFF3108672B61C4C4FF080606060E0
:1020D0004010606040106060C000606007212046D2
:1020E000FEF7E0F807212046FEF7E8F8144F78697C
:1020F00040F080007861002207212046FEF71EF99B
:10210000072120466A68FEF735F907212046FEF7C9
:10211000B1F807212046FEF7E7F80028F9D0F86863
:1021200040F40050F860002085F8200086F3108805
:10213000BDE8F081783300207828002000000240BC
:102140000044004010B50446FFF764F801462046FD
:10215000BDE81040FFF746BF0349C969814201D37A
:1021600001207047002070477828002010B500F04B
:102170002DFB00F0BBF90348C16821F40051C16098
:1021800010BD00000048004010B5104C032120464F
:10219000FEF7B4F838B12068C0F3802018B12015DC
:1021A000606000F07BFA03212046FEF7B1F80028BA
:1021B0000BD02068C0F34020002806D04FF40070F8
:1021C0006060BDE8104000F069BA10BD0000024038
:1021D00010B50D4C02212046FEF79AF858B1206840
:1021E000C0F3401038B1202060600849002081F819
:1021F0002000FEF735FE2068C0F3C010002801D093
:102200008020606010BD000000000240C028002057
:1022100010B5124C012084F821002169A068FEF756
:10222000F7FEA068FEF79EFE002084F82100D4E9A6
:102230000301FEF7EDFEE068FEF794FE2069FEF76D
:10224000ACFE002808D1A16909B12069884720693E
:10225000BDE81040FEF7D8BE10BD0000C028002029
:1022600010B500F0EDFABDE8104000F09FB9000095
:102270002DE9FF4F85B005461E4617464FF48020D6
:10228000DDF84880FDF796FF0120FDF787FF082065
:10229000FDF7A8FF0DB94FF4E135814C802181484D
:1022A000656284F8287084F8296084F82A8004F133
:1022B0002C0600250C343561FEF777FEA06004F68D
:1022C000EC7044F8080C8020206125757648E560A4
:1022D000009009200327CDE901074FF00108DFF83E
:1022E000CCA1CDE9035869465046FEF793F8DFF8D4
:1022F000C0B1102202215846FEF72EF8002202211A
:102300005846FEF70FF8002202215846FEF754F80F
:10231000002202215846FEF765F880220221584625
:10232000FEF732F8002202215846FEF767F8002235
:1023300002215846FEF734F85E4A02215846FEF75D
:1023400047F854F8082C02215846FEF713F80022EB
:1023500002215846FDF7F2FFFEF75AFA617F00228C
:10236000FEF723FA01460C20FEF75AFA0C20FEF77E
:102370000FFA30694FF4007140F00800306104F644
:102380003C3044F80C0C00F52870FEF70EFE4FF4BC
:1023900080796060494604F63C40FEF706FE44F84A
:1023A000040C6575802104F64C50FEF7FEFD20609C
:1023B0004148694685600698E060404800900420E6
:1023C000CDE90107CDE903585046FEF723F8002276
:1023D00003215846FDF7C0FF002203215846FDF7B0
:1023E000A1FF202203215846FDF7E6FF002203212A
:1023F0005846FDF7F7FF802203215846FDF7C4FF3A
:10240000002203215846FDF7F9FF00220321584618
:10241000FDF7C6FF274A03215846FDF7D9FF54F8B8
:102420000C2C03215846FDF7A5FF4A4603215846C8
:10243000FDF784FFFEF7ECF9217F0022FEF7B5F9E6
:1024400001460D20FEF7ECF90D20FEF7A1F93069E9
:10245000314640F004003061A069C6E90005B5606E
:10246000F5607561134D2D1F2846FEF7DFF82869CA
:1024700020F490402861686920F02A006861FEF726
:10248000C7F9A17F0022FEF790F901462720FEF749
:10249000C7F92720FEF77CF909B0BDE8F08F0000EE
:1024A000C0280020F838002004000404000C01407B
:1024B0000000024004480040080000200800080412
:1024C000094810B5C168C1F3001100290AD001689C
:1024D000C1F30011002905D0FEF76CF8BDE81040EB
:1024E00000F0DCB810BD0000004800402DE9F041CC
:1024F000EFF3108572B60321264F3846FDF796FE9E
:1025000003213846FDF79EFE234CE06820F01000C2
:10251000E060606920F04000606103213846FDF70B
:1025200079FE2015786046107E604FF48078C7F8F9
:102530000480400078602046FEF742F82046FEF70F
:1025400039F86FF0200020606FF0400020606FF4D9
:10255000807020606FF40070206085F310880F4851
:102560003146A0F64833186000F52870FEF71DFDCF
:10257000186141460A48FEF718FD0024986083F868
:10258000214080210748FEF710FDD860064884608E
:10259000BDE8F081000002400048004008340020FF
:1025A0000835002018360020080000202DE9F047EB
:1025B000EFF3108672B6324D4FF4806068604FF4CE
:1025C0000079C5F804904FF48078C5F80480400085
:1025D00068602C4C2046FDF7F3FF2046FDF7EAFF2C
:1025E0006FF0200020606FF0400020606FF480707A
:1025F00020606FF400702060234F032128463A6862
:10260000FDF7B8FE424603212846FDF797FE032159
:102610002846FDF73BFE03212846FDF743FEE06810
:1026200040F01000E060606940F04000606103210C
:102630002846FDF71FFEE06840F40050E0600321EB
:102640002846FDF751FE0028F9D086F310880F4880
:102650003860494600F52870FEF7A7FC386141460E
:102660000B48FEF7A2FC0023B86087F821308021D8
:102670000848FEF79AFCF86007488360BDE8F087D9
:102680000000024000480040C0280020083400201C
:1026900008350020183600200800002070B50321FE
:1026A0000F48FDF717FE0F4EC0F580740E4DB06851
:1026B00084420FD004D92A68A4EB0001104407E03B
:1026C0002A68C0F580711044FEF726FC2146286870
:1026D000FEF722FCB4F5807F00D10024B46070BD09
:1026E0000000024008000020C028002070B5044609
:1026F0000D48446200F06AF8FFF7F8FE0B4DE868F9
:1027000020F40050E86008482C3004602846FDF7AB
:102710005DFF054928462C31FDF788FF00F090F851
:10272000BDE87040FFF742BFC028002000480040CD
:102730002DE9F04107460E0011D0EFF3108472B678
:102740000E4D6869FEF739FC6869D0E90221891AE3
:10275000B14206D284F310880320BDE8F081002046
:10276000FBE732463946FEF7E5FB10B9E869801B06
:10277000E86184F31088FEF773FBF0E7C0280020BF
:102780002DE9F0410E46074600250EE0741B802C13
:1027900000D98024204600F0A9F80028FAD021466C
:1027A0003846FFF7C5FF25442744B542EED3BDE8C0
:1027B000F08170B50446D4E901010D1A294620685C
:1027C000FFF7DEFF60682844606070BD70B5184D8B
:1027D00002212846FDF736FD02212846FDF73EFD81
:1027E000144C606920F08000606102212846FDF7EA
:1027F00011FD114B93F8200038B12068C0F3C010D0
:102800000028FAD0002083F82000402068602020B3
:1028100068601020686080246C6021460748FEF7DD
:10282000C4FB58610548DC614038586070BD000049
:102830000000024000480040C0280020F838002076
:102840002DE9F04180212048FEF7AFFB1F4D686164
:1028500005F6F87068608020E861EFF3108672B6C4
:1028600040211B4C6160202161601021616060602B
:1028700002212046FDF716FD02212046FDF71EFD30
:10288000144F786940F080007861002202212046D0
:10289000FDF754FD022120466A68FDF76BFD022119
:1028A0002046FDF7E7FC02212046FDF71DFD00282C
:1028B000F9D0F86840F40050F860002085F8200056
:1028C00086F31088BDE8F081F8380020C028002089
:1028D000000002400048004010B50446FEF79AFC94
:1028E00001462046BDE81040FFF74ABF0349C969C9
:1028F000814201D30120704700207047C02800208A
:1029000018B1042803D0FEF7C3BBFEF7D1BBFEF716
:10291000D9BB0000081C3044586C80000000000047
:10292000963007772C610EEEBA51099919C46D07DC
:102930008FF46A7035A563E9A395649E3288DB0E37
:10294000A4B8DC791EE9D5E088D9D2972B4CB6091A
:10295000BD7CB17E072DB8E7911DBF906410B71DF7
:10296000F220B06A4871B9F3DE41BE847DD4DA1A30
:10297000EBE4DD6D51B5D4F4C785D38356986C1361
:10298000C0A86B647AF962FDECC9658A4F5C0114DA
:10299000D96C0663633D0FFAF50D088DC8206E3BB8
:1029A0005E10694CE44160D5727167A2D1E4033CCA
:1029B00047D4044BFD850DD26BB50AA5FAA8B535F1
:1029C0006C98B242D6C9BBDB40F9BCACE36CD832E0
:1029D000755CDF45CF0DD6DC593DD1ABAC30D92687
:1029E0003A00DE518051D7C81661D0BFB5F4B4218A
:1029F00023C4B3569995BACF0FA5BDB89EB8022887
:102A00000888055FB2D90CC624E90BB1877C6F2F0B
:102A1000114C6858AB1D61C13D2D66B69041DC7606
:102A20000671DB01BC20D2982A10D5EF8985B171DF
:102A30001FB5B606A5E4BF9F33D4B8E8A2C907788E
:102A400034F9000F8EA8099618980EE1BB0D6A7F25
:102A50002D3D6D08976C6491015C63E6F4516B6BDE
:102A600062616C1CD83065854E0062F2ED95066C93
:102A70007BA5011BC1F4088257C40FF5C6D9B06508
:102A800050E9B712EAB8BE8B7C88B9FCDF1DDD6265
:102A9000492DDA15F37CD38C654CD4FB5861B24DCB
:102AA000CE51B53A7400BCA3E230BBD441A5DF4A95
:102AB000D795D83D6DC4D1A4FBF4D6D36AE9694358
:102AC000FCD96E34468867ADD0B860DA732D044403
:102AD000E51D03335F4C0AAAC97C0DDD3C7105502E
:102AE000AA41022710100BBE86200CC925B56857D5
:102AF000B3856F2009D466B99FE461CE0EF9DE5E1E
:102B000098C9D9292298D0B0B4A8D7C7173DB359CE
:102B1000810DB42E3B5CBDB7AD6CBAC02083B8ED5F
:102B2000B6B3BF9A0CE2B6039AD2B1743947D5EA6C
:102B3000AF77D29D1526DB048316DC73120B63E39B
:102B4000843B64943E6A6D0DA85A6A7A0BCF0EE4FA
:102B50009DFF099327AE000AB19E077D44930FF0B5
:102B6000D2A3088768F2011EFEC206695D5762F7AC
:102B7000CB67658071366C19E7066B6E761BD4FEE9
:102B8000E02BD3895A7ADA10CC4ADD676FDFB9F9C6
:102B9000F9EFBE8E43BEB717D58EB060E8A3D6D688
:102BA0007E93D1A1C4C2D83852F2DF4FF167BBD1B6
:102BB0006757BCA6DD06B53F4B36B248DA2B0DD8B9
:102BC0004C1B0AAFF64A0336607A0441C3EF60DF5C
:102BD00055DF67A8EF8E6E3179BE69468CB361CB45
:102BE0001A8366BCA0D26F2536E2685295770CCC6A
:102BF00003470BBBB91602222F260555BE3BBAC5AB
:102C0000280BBDB2925AB42B046AB35CA7FFD7C29B
:102C100031CFD0B58B9ED92C1DAEDE5BB0C2649B8C
:102C200026F263EC9CA36A750A936D02A906099CBF
:102C30003F360EEB8567077213570005824ABF9532
:102C4000147AB8E2AE2BB17B381BB60C9B8ED292B5
:102C50000DBED5E5B7EFDC7C21DFDB0BD4D2D3860C
:102C600042E2D4F1F8B3DD686E83DA1FCD16BE817F
:102C70005B26B9F6E177B06F7747B718E65A088850
:102C8000706A0FFFCA3B06665C0B0111FF9E658FE1
:102C900069AE62F8D3FF6B6145CF6C1678E20AA08B
:102CA000EED20DD75483044EC2B30339612667A711
:102CB000F71660D04D476949DB776E3E4A6AD1AE60
:102CC000DC5AD6D9660BDF40F03BD83753AEBCA9EF
:102CD000C59EBBDE7FCFB247E9FFB5301CF2BDBD5C
:102CE0008AC2BACA3093B353A6A3B4240536D0BA65
:102CF0009306D7CD2957DE54BF67D9232E7A66B302
:102D0000B84A61C4021B685D942B6F2A37BE0BB4AE
:102D1000A18E0CC31BDF055A8DEF022D00000000B1
:102D2000000000000102030406070809000000007B
:102D300001020304542D0008000000201C000000C4
:102D4000C80B0008702D00081C0000206C3D00001E
:102D5000D80B000800000000000000000000000088
:102D60000000000000000000000000000024F4004B
:04000005080000ED02
:00000001FF
