:020000040800F2
:100000006008002001010008FF0B00086F080008CD
:10001000FD0B00085D080008930E000800000000BA
:10002000000000000000000000000000750D000846
:100030006D08000800000000BF0C0008770D0008E4
:100040001B0100081B0100081B0100081B01000820
:100050001B0100081B0100081B0100081B01000810
:100060001B0100081B0100081B0100081B01000800
:100070005F080008610800086308000865080008B8
:1000800067080008690800081B0100081B01000838
:100090001B0100081B0100081B0100081B010008D0
:1000A0001B0100081B0100081B0100081B010008C0
:1000B000650E00081B0100081B0100081B01000859
:1000C0001B0100081B0100081B0100081B010008A0
:1000D0001B0100088D0E00088F0E0008910E00080D
:1000E0001B0100081B0100081B010008DFF80CD0F1
:1000F00000F0A2FB00480047492D000860080020DE
:100100000648804706480047FEE7FEE7FEE7FEE7B1
:10011000FEE7FEE7FEE7FEE7FEE7FEE71D0E00084E
:10012000ED000008D2B201E000F8012B491EFBD21D
:1001300070470022F6E710B513460A4604461946F2
:10014000FFF7F0FF204610BDF0B480EA0102D40FA3
:100150004200B2EB410F02D20246084611464A0065
:1001600042D0C30DDDB2C1F3C752AD1A202D35DA2E
:10017000C1F3160141F4000204B15242C5F1200658
:1001800002FA06F12A411044B3EBD05F23D0C4B188
:10019000012DA0EBC35009DCF0BC4FF0004202EA95
:1001A000C352DBB200F5000000F033BA400000F1AA
:1001B000807000EBC350A0F1807040EAD17049001C
:1001C00009E0490841EAC071A0EBC35000F5000006
:1001D000400800EBC350F0BC00F012BA61420122AB
:1001E00002EB4101001BF6E7F0BC704781F00041D3
:1001F000AAE780F00040A7E72DE9FE4F804681EA9C
:100200000300C00F0C46009021F0004123F0004590
:10021000B8EB0200A94105D24046214690461C4653
:100220000B46024623F00040104347D0270DC7F38A
:100230000A00C3F30A510290401A019040286BDA79
:10024000C3F3130040F4801B0098924620B10023B2
:10025000D2EB030A63EB0B0B01985946C0F1400245
:10026000504600F09CF906460D4650465946019A04
:1002700000F0B4F910EB08006141002487EA115244
:1002800084EAE7731A4340D0009A62B3019A012AC4
:100290004FEA075215DC001B61EB02014FF00042F0
:1002A00002EA0752CDE90042001C41F580113246B6
:1002B0002B4600F0EBF903B0BDE8F08F4046214635
:1002C000F9E7001B61EB0201001C41F580130018E7
:1002D0005B412018A2F5001747EB030140EAD570F7
:1002E000B6196D4111E06D084FEA360645EAC07552
:1002F0004FEA0752001B61EB0201001C41F580111F
:1003000049084FEA30000019514132462B4603B0EC
:10031000BDE8F04F00F0ABB9009801224000002387
:10032000D0EB020263EBE073009821464FEAE074E1
:10033000B8EB000061EB0401E9E783F000435BE701
:1003400081F0004158E72DE9FE4F81EA030404F0F3
:10035000004421F0004100944FF0000B23F00043D3
:1003600050EA01045ED052EA03045BD0C3F30A549E
:10037000C1F30A552C44A4F2F3340194A0FB0254B7
:10038000C1F3130141F48011C3F3130343F4801349
:1003900001FB024400FB034E840A970A44EA81549D
:1003A00047EA8357A4FB076802958D0A05FB07857A
:1003B0004FEA932C04FB0C542705029D4FEA065884
:1003C00047EA1637B5EB08056EEB070C870E920E61
:1003D00047EA811742EA8312A7FB0201B6EB0B0141
:1003E00064EB00042B0D43EA0C335E1844EB1C5005
:1003F000DA465146E7FB0201C5F313044FEA0B331B
:1004000043EA14534FEA0432019C43EA0603A4F181
:100410000C040294009CCDE900B400F037F903B05D
:10042000BDE8F08F00200146F9E70EB540F23341F8
:1004300002910021CDE900110A460B4600F026F991
:1004400003B000BDC1F30A5210B5C1F3130140F26D
:10045000FF3341F480119A4201DA002010BD40F2CE
:1004600033439A42A2F2334203DC524200F0A6F830
:1004700010BD904010BD00F0004230F000400AD0A6
:10048000C10D01F56071C0F3160042EA0151C208C6
:1004900040071143704700200146704730B5041EE5
:1004A00071F1000404DB4FF00044404264EB0101B1
:1004B000141E73F1000405DB1C464FF0004352424A
:1004C00063EB04038B4208BF824230BD30B5041E8B
:1004D00071F1000404DB4FF00044404264EB010181
:1004E000141E73F1000405DB1C464FF0004352421A
:1004F00063EB0403994208BF904230BD002801DB42
:10050000C0F10040002901DBC1F100418142704788
:1005100030B50B46014600202022012409E021FAD3
:1005200002F59D4205D303FA02F5491B04FA02F5D0
:100530002844151EA2F10102F1DC30BD2DE9F05F67
:100540000546002092469B46884606468146402442
:100550001BE0284641464746224600F02FF8534606
:100560005A46C01A914110D311461846224600F04F
:1005700016F82D1A67EB01084F462246012000218C
:1005800000F00DF817EB00094E41201EA4F1010404
:10059000DFDC484631462A464346BDE8F09F202A24
:1005A00004DB203A00FA02F1002070479140C2F1CA
:1005B000200320FA03F3194390407047202A04DBFC
:1005C000203A21FA02F00021704721FA02F3D040CC
:1005D000C2F120029140084319467047202A06DBE9
:1005E000CB17203A41FA02F043EAE07306E041FA01
:1005F00002F3D040C2F120029140084319467047EF
:100600000029A8BF7047401C490008BF20F0010026
:10061000704710B4B0FA80FC00FA0CF050EA010404
:1006200004BF10BC704749B1CCF1200421FA04F496
:1006300011FA0CF118BF012121430843A3EB0C016F
:10064000CB1D4FEA00614FEA102042BF002010BCD2
:10065000704700EBC35010440029A4BF10BC704782
:10066000401C490008BF20F0010010BC704710B5C5
:10067000141E73F1000408DA401C41F100019218C5
:100680005B411A4301D120F0010010BD2DE9F04D6E
:1006900092469B4611B1B1FA81F202E0B0FA80F2C3
:1006A00020329046FFF77BFF04460F4640EA0A00DF
:1006B00041EA0B0153465A46084313D0114653EA08
:1006C000010019D0C8F140025046FFF777FF0546F8
:1006D0000E46504659464246FFF761FF084305D093
:1006E000012004E020463946BDE8F08D0020054396
:1006F00046EAE0762C4337430A986305E40AA0EB08
:1007000008000022FD0A44EA47540A3002D50020BE
:100710000146E9E7010510196941DDE908450019BD
:100720006941BDE8F04DA2E72DE9F04D81EA0304EF
:1007300004F0004B21F0004514464FF0000A23F06E
:10074000004150EA050220D054EA01021DD0C5F351
:100750000A570246C5F31303C1F31300C1F30A5647
:1007600040F4801543F48013A7EB0608101BD6460F
:1007700008F2FD3873EB050002D308F1010801E02F
:1007800092185B41B8F1000F03DA00200146BDE882
:10079000F08D00204FF48011064684460EE0171BB2
:1007A00073EB050705D3121B63EB050306434CEA05
:1007B000010C49084FEA300092185B4150EA0107EA
:1007C000EDD152EA030012D082EA040083EA050167
:1007D000084305D0101BAB4106D20122002306E0DE
:1007E00000224FF0004302E06FF0010253101AEBB9
:1007F00006004CEB085110EB0A0041EB0B01BDE881
:10080000F04DFFF734BFC1F30A52C1F3130140F2B8
:10081000FF3341F480119A4202DA0020014670470A
:1008200040F233439A42A2F2334202DC5242FFF7D3
:10083000C5BEFFF7B4BE0000064C074D06E0E068F9
:1008400040F0010394E8070098471034AC42F6D317
:10085000FFF750FC2447000844470008FEE77047B4
:10086000704770477047704702F042BF7047FEE71D
:100870000248C16881F40051C16070470010014016
:10088000044908B5CA690243CA61C96901400091B7
:1008900008BD000000100240044908B58A690243FF
:1008A0008A6189690140009108BD00000010024082
:1008B000044A114411F8011C425822F0010242502E
:1008C000704700002C420008044A114411F8011C32
:1008D000425842F001024250704700002C4200088A
:1008E000054B001D194411F8011C0B586FF30F0341
:1008F00013430B50704700002C420008F0B50A6803
:10090000C2F30F2595FAA5F2B2FA82F369E001224B
:100910009A402A4264D0082B03D240F201129A4036
:1009200006E0A3F108024FF00114944044F0806205
:1009300092FAA2F700EB1264B7FA87F74FEA870C36
:100940000F27266807FA0CF7BE4392FAA2F7D1F8F0
:1009500004E0B7FA87F7BF000EFA07FE46EA0E0674
:1009600026600E69C7684FEA122C9CFAACFCBCFAF0
:100970008CFC27EA122706FA0CF63743C7604E684C
:10098000012E01D0092E2BD192FAA2F7B7FA87F7E0
:100990004FEA870C032707FA0CF72668D1F808E01E
:1009A000BE4392FAA2F7B7FA87F7BF000EFA07FE26
:1009B00092FAA2FC46EA0E06BCFA8CFC4FEA8C0EB8
:1009C0004FF0040C26600CFA0EFC92FAA2F2B2FA76
:1009D00082F2CF68920026EA0C0697403E432660DA
:1009E0005B1C35FA03F292D10020F0BD4FF47A710E
:1009F000B0FBF1F14FF0E020491E4161002181611F
:100A000005210161704700B5034600F083F91860C5
:100A100000F056F9586000F061F99860586800F0ED
:100A20006BF9D86000BD0000014908607047000004
:100A30002C000020F0B50268154B164C164D4FF0F7
:100A40008046984205D0B04203D0A04201D0A842CF
:100A500003D14F6822F070023A43984205D0B04269
:100A600003D0A04201D0A84203D1CC6822F4407246
:100A7000224302608A68C2620A888262984201D177
:100A8000097C0163416941F0010141610020F0BD31
:100A9000002C014000040040000800402DE9FF4107
:100AA0000446C0680D460126C0F34030F0BBE9683B
:100AB0006868E2680843296941F20C639A4311436C
:100AC0000843E060A868216921F440510143216195
:100AD0006869616921F44071014361616846FFF70B
:100AE00092FF2448844201D1039806E022488442C0
:100AF00002D02248844238D10298B8B12A68AAB1FB
:100B000000EBC00101EB00119200B1FBF2F3642095
:100B1000B3FBF0F3B1FBF2F56FF018077B4300264F
:100B200005EB8305322303EB051500E01DE0B1FB67
:100B3000F2F7B5FBF0F5B7FBF0F705F0F00505EBC4
:100B40000715B1FBF2F7B1FBF2F1B1FBF0F16FF079
:100B50001802514307EB810103EB0111B1FBF0F0E7
:100B600000F00F00284480B2A06004B03046BDE819
:100B7000F08100000038014000440040004800407F
:100B800010B586B014216846FFF7D3FA0120FFF7AD
:100B900077FE194800680022C0F30220114600F0D9
:100BA00055F801461C2000F07AF84FF0E0224FF093
:100BB00080510020C2F800112321ADF8001031212E
:100BC000CDE901014FF08044039069462046FFF7CC
:100BD00031FF206820F080002060A06844F2070107
:100BE0008843A060606820F070006060A06820F01A
:100BF0008000A06006B010BD0CED00E0FEE770477D
:100C0000002809DB00F01F0201219140400980000B
:100C100000F1E020C0F80011704730B500F0070384
:100C2000C3F10704042C00D90424181D072801D29D
:100C3000002300E0DB1E012505FA04F0401E0840F9
:100C400098409D406D1E1540284330BD30B500F0E2
:100C50000703C3F10704042C00D90424181D072836
:100C600001D2002300E0DB1E012505FA04F0401E3E
:100C7000084098409D406D1E1540284330BD09072F
:100C8000090E002804DB00F1E02080F80014704712
:100C900000F00F0000F1E02080F8141D70470907F4
:100CA000090E002804DB00F1E02080F800147047F2
:100CB00000F00F0000F1E02080F8141D704770472D
:100CC00004494968044A01F0F0010909515CC8402F
:100CD000704700000010024074460008044949684B
:100CE000044A01F4E06102EB11210978C840704721
:100CF000001002408446000804494968044A01F48F
:100D0000605102EBD1210978C840704700100240C1
:100D1000844600080648406810F00C01054805D0DC
:100D2000042903D0082901D100F006B8704700005B
:100D30000010024000127A000B48416811F4803222
:100D40000A4909D0B2F5803F06D14168084AC1F38B
:100D50004041491CB2FBF1F14068022200F47010DE
:100D600002EB9040484370470010024000093D00EC
:100D700000127A0070477047254810B5016821F0CD
:100D8000070141F00201016000682248016841F456
:100D9000803101600168C1F340410029FAD0416807
:100DA00021F47C1141F4E8114160016841F0807147
:100DB00001600168C1F340610029FAD0416821F067
:100DC000F0014160416821F4E06141F480614160DB
:100DD000416821F4605141F400514160416821F0C3
:100DE000030141F002014160416801F00C01082952
:100DF000FAD1094C2046FFF7F9FD4FF0E0210869D0
:100E000040F0040008612046BDE81040FFF70CBE2A
:100E1000002002400010024000A24A040D48016870
:100E200041F00101016041680B4A114041600168D5
:100E30000A4A11400160016821F480210160416883
:100E400021F4FE0141604FF41F0181600449C00399
:100E500008607047001002400000FFF8FFFFF6FE38
:100E600008ED00E010B54FF08044206910F0010F4C
:100E700008D005480168491C016001F03BFF6FF094
:100E80000100206110BD000028000020704770475D
:100E90007047FEE70FB4084B10B504A902AA0398E7
:100EA00000F074FA044602A9002000F006FE204675
:100EB00010BC5DF814FB0000BB1A0008044AB2EB3A
:100EC000410F00D108B10020704701207047000099
:100ED0000000E0FF4FF07F41B1EB400F01D1012056
:100EE000704700207047000000B10120014321F04D
:100EF00000400249081AC00F704700000000F07F50
:100F000002E008C8121F08C1002AFAD170477047D2
:100F1000002001E001C1121F002AFBD17047000030
:100F200010B5084B0446186828B94FF4807106487C
:100F300001F043F81860214600F0CCFFBDE81040F6
:100F400000F002BE180000207C0200200FB4094B04
:100F500010B5186828B94FF48071074801F02DF8D2
:100F6000186003AA029902F01FFB00F0EDFD10BC0F
:100F70005DF814FB180000207C0200202DE9FF5FC3
:100F8000DDE90220010DDDF838B0024318D044F647
:100F90001050A1F2FF3141430D140F98012820D0C9
:100FA000A5EB0B00401C5FEA000A4FF00004474E1F
:100FB000DFF81C91A046504616D5CAF1000728E07C
:100FC0000F98012443A2012808D0002100980F9B0C
:100FD000C0E90021C0E90243BDE8FF9F6FEA0B01B1
:100FE000F4E7CBF10000DEE7074612E0F80707D090
:100FF0002246334640464946FFF7A5F980468946D2
:101000002246334610461946FFF79DF904460E4620
:101010007F10002FEAD1DDE90201BAF1000F42464C
:101020004B4602DAFFF78FF901E0FFF77DFB04463C
:101030000E460022284BFFF749FA03D84FF0FF3045
:10104000014607E00022254B20463146FFF7D4F841
:10105000FFF7D9FB102409E0002C0ADB0A22002349
:10106000FFF76CFA019B30321A55641E50EA0102F8
:10107000F2D1641C019AC4F1110314440F9A012A9D
:1010800003D0012208430DD10AE0084304D0002018
:101090004FF0110B0F9080E7A3EB0B056D1E0DE0D9
:1010A0005B4504DD4FF0000205F1010504E003DAC1
:1010B0004FF00002A5F10105002AECD000980F992D
:1010C000C0E90231C0E9004586E700000000244085
:1010D0000000F03F300000000000F0430000E03F5F
:1010E000092816D2DFE800F0150507090B0D0F11CE
:1010F0001300012070470220704704207047082029
:101100007047102070472020704740207047802093
:10111000704700207047000096B001F0B7FD02F064
:101120000BFBDFF82C914C46D9F8008049A0FFF763
:10113000F7FE2768504E00255FF0000456F82400A3
:10114000FFF799F902460B464CA16846FFF7A2FE4D
:10115000641CA4B2042CF1D36D1CADB2642DEBD38E
:10116000D9F800004C46C11B4FF0280BB1FBFBF532
:1011700002F0B6F90646294643A0FFF7E7FE3146DE
:101180004BA0FFF7E3FE26683B4F002510370024F5
:1011900052A157F824206846FFF77CFE641CA4B2D5
:1011A000042CF5D36D1CADB2642DF0D3D9F800003A
:1011B000CA464C46811BD946B1FBF9FB4021684623
:1011C00000F0FBFE149026682B4F002530370024DA
:1011D00042A157F82420149801F058FE149801F009
:1011E00016F8641CA4B2042CF2D36D1CADB2642DAD
:1011F000EDD3DAF800005546801B4E46B0FBF6F4FE
:10120000594638A0FFF7A2FE214640A0FFF79EFEF8
:1012100002F082FE01F030FC01F028F801F02CFC15
:1012200001F00CFA01F028FC01F01AFA01F024FC9C
:101230002968A1EB0800B0FBF6F13EA0FFF786FE9F
:10124000002002F0A7FF012001F02CFAFBE70000CC
:10125000280000204D6963726F73696C615F4C4CAC
:1012600020636F7265207465737420737461727487
:1012700065642E200A00000034460008546573742B
:101280002025336600000000737072696E74665F1B
:10129000666C6F61745F706572665F746573743AD3
:1012A000202564206D696C6C697365632E200A00CB
:1012B0006D695F7072696E74665F666C6F61745F92
:1012C000706572665F746573743A202564206D6979
:1012D0006C6C697365632E200A000000546573749A
:1012E00020256400737072696E74665F696E745F46
:1012F000706572665F746573743A202564206D6949
:101300006C6C697365632E200A0000006D695F7064
:1013100072696E74665F696E745F706572665F7421
:101320006573743A202564206D696C6C697365631C
:101330002E200A00546573747320636F6D706C65A2
:10134000746520696E2020256420206D696C6C69AD
:101350007365636F6E642873292E0A0070B50546A5
:1013600002F082F908484FF49671006800F025FEFB
:101370000646002404E0E1B2304601F051F8641C56
:10138000AC42F8D3304670BD080000202DE9FF4F75
:1013900095B09B468946064600250FE2252877D161
:1013A00000242746F84A0121059400E0044316F87A
:1013B000013F203B01FA03F01042F7D130782A2890
:1013C00011D06FF02F033078A0F13002092A16D81F
:1013D000059A44F0020402EB820203EB420210443D
:1013E000761C0590EFE759F8042B0592002A03DAE2
:1013F000504244F40054059044F00204761C3078C6
:101400002E2816D116F8010F44F004042A280DD016
:101410006FF02F023078A0F13003092B09D807EBC9
:10142000870302EB4303C718761CF3E759F8047BE4
:10143000761C30786C280FD006DC4C2817D0682832
:101440000DD06A2814D104E0742810D07A280FD166
:101450000DE044F400140AE044F4801401E044F484
:1014600040147278824202D104F58014761C761CF6
:10147000307866280BD013DC582877D009DC002898
:1014800075D04528F6D04628F4D047281AD19DE1DA
:1014900018E0632835D0642879D0652812D195E109
:1014A000702873D008DC6728F1D069286FD06E28C7
:1014B0000DD06F2806D1B5E073282CD0752875D0D3
:1014C000782874D05A46179990476D1C75E1C4F37B
:1014D0000250022809D003280DD0D9F800100428A2
:1014E0000DD00D6009F1040967E1D9F80010EA1781
:1014F000C1E90052F6E7D9F800100D80F2E70D704F
:10150000F0E719F8041B8DF8001000208DF8010099
:10151000EA46012003E059F804AB4FF0FF306107C1
:101520004FF0000102D40DE008F101018846B942F4
:101530000FDA8045F8DB1AF808100029F4D108E02A
:1015400008F1010188468142FADB1AF808100029E7
:10155000F6D105985B46A0EB080721463846179A56
:1015600000F094FA284400EB080507E04DE029E17B
:101570000DE01AF8010B5A4617999047B8F1010887
:10158000F7D25B4621463846179A13E142E00A2219
:101590000092C4F302524FF0000A022A08D059F810
:1015A00004CB032A4FEAEC710AD00DE029E02AE0CF
:1015B00009F1070121F00702F2E802C1914609E0B2
:1015C0000FFA8CFC4FEAEC71042A03D14FFA8CFC21
:1015D0004FEAEC71002907DA0A460021DCF1000C21
:1015E00061EB02012D2202E0220504D52B228DF8A9
:1015F0000420012203E0E20701D02022F7E7904611
:1016000059E00A2102E010220DE010214FF0000AFB
:1016100000910BE010224FF0000A44F00404082768
:10162000009203E008224FF0000A0092C4F3025235
:10163000022A05D059F804CB0021032A08D009E07A
:1016400009F1070121F00702F2E802C1914605E025
:101650001FFA8CFC042A01D10CF0FF0C4FF000089B
:10166000220728D5702806D0009B83F0100353EA88
:101670000A0305D00EE040228DF80420012208E084
:101680005CEA010206D030228DF804208DF80500B6
:1016900002229046009B83F0080353EA0A030AD112
:1016A0005CEA010201D1620705D530228DF80420E1
:1016B0004FF001087F1E582804D034A003900EA8D4
:1016C00002900DE036A0F9E753466046009AFEF717
:1016D00035FF84460398825C0298401E0290027097
:1016E0005CEA0100F0D1029806A9081A00F1200A6C
:1016F000600702D524F4803400E00127574502DD5D
:10170000A7EB0A0000E0002000EB0A01009005981A
:101710004144401A0590E00306D45B462146179ADF
:10172000059800F0B3F90544002706E001A85A46E1
:10173000C05D179990476D1C7F1C4745F6DBE003A1
:101740000CD55B462146179A059800F09FF9054491
:1017500004E030205A46179990476D1C0099481EA6
:1017600000900029F5DC08E0029802995A460078BA
:10177000491C0291179990476D1CBAF10001AAF11A
:10178000010AF1DC65E10000092801003031323343
:1017900034353637383961626364656600000000AD
:1017A0003031323334353637383941424344454697
:1017B0000000000000F058F90544761C307800283D
:1017C0007FF4ECAD19B02846BDE8F08F620700D475
:1017D000062709F1070222F0070CFCE80223E14684
:1017E00003F000485FEA080C02D00FF2702C0DE005
:1017F0005FEA045C02D50FF2682C07E05FEAC47C64
:1018000002D00FF2602C01E0AFF2700C4FF0FF3805
:1018100023F00043CDF850C065280CD006DC4528E5
:1018200009D046281DD047283DD13DE0662818D074
:1018300067287ED138E00021112F01DB112000E064
:10184000781CCDE9000106A90EA8FFF797FBDDE99A
:101850000F010E9A03910021009207F1010A0491F1
:101860004DE04FF000400097CDE9011006A90EA809
:10187000FFF784FBDDE90F0203920E9B1199002212
:10188000DDF80CA00093049211B9791C00EB010A59
:10189000B7EB0A0004D4C0F1FF3007F1010A04904D
:1018A000AAEB0700019044E0012F00DA0127002194
:1018B000112F01DD112000E03846CDE9000106A915
:1018C0000EA8FFF75BFBDDE90F010E9A03910021E3
:1018D00004910092BA4621070CD40399514500DACD
:1018E0008A46BAF1010F05DD009AAAF10101515CA7
:1018F000302908D0B84202DA10F1040F06DA0121CB
:10190000CDE9011015E0AAF10101E9E7002805DCA5
:10191000049901440491AAEB000102E0411C5145E5
:1019200000DD8A460499401A401C01904FF00040A7
:101930000290200704D40198504501DBCDF80480C3
:1019400000208DF84F0002980DF14F07B0F1004FC5
:1019500025D02B200E9002984FF0020800280CDAB8
:10196000404202902D200E9007E00A210298FEF7D7
:10197000CFFD3031029007F8011DB8F10001A8F148
:101980000108F2DC02980028EFD1791E0E98087049
:10199000307800F0200040F0450007F8020D12A852
:1019A000C01B00F107081498007800B1012000EB7B
:1019B0000A01019801EBE07105984144401A401E6C
:1019C0000590E00306D45B462146179A059800F07F
:1019D0005DF805441498007818B15A461799904755
:1019E0006D1CE00324D55B462146179A059800F04C
:1019F0004DF805441CE00498002807DBDDE90301ED
:101A0000884203DD0098405C179901E01799302067
:101A10005A469047049805F10105401C049001982E
:101A2000401E019004D12E205A46179990476D1CF4
:101A3000BAF10001AAF1010ADDDC05E017F8010B9B
:101A40005A46179990476D1CB8F10001A8F101089A
:101A5000F4DC5B462146179A0598ABE62D000000A2
:101A60002B000000200000002DE9F0410446002575
:101A70001E461746880404D405E039462020B047A6
:101A80006D1C641EF9D52846BDE8F0812DE9F041B2
:101A9000044600251E469046C80301D5302700E0C5
:101AA0002027880404D505E041463846B0476D1C20
:101AB000641EF9D52846BDE8F0810A68531C0B6006
:101AC000107070472DE9F0411C4C94F8200000285C
:101AD00032D1EFF3108572B60721194E3046FEF76A
:101AE000E7FE700270604010706040107060C000CF
:101AF00070606069D0E90112571A1BD0402F00D9DD
:101B000040273A46616800F0F7FAE0693844E0613E
:101B10003A4607213046FEF7E3FE0A4960688A79B3
:101B200007490C315050012084F82000072130462D
:101B3000FEF7CAFE85F31088BDE8F081340200206C
:101B4000000002402C42000810B5044C206801F04F
:101B500002FF2068BDE8104000F059BB18000020CB
:101B60000A46A0F10A01062910D2DFE801F00305B8
:101B700007090B0D41210BE0422109E0432107E059
:101B8000442105E0452103E0462101E03030C1B2A7
:101B9000104600F04CBC2DE9F0471446DDE90889F9
:101BA0001D4606460F46FEF7C8FB21F0004142469F
:101BB0004B46FEF773FC0AD922462B46304639467F
:101BC00002F0CEF80022D0F104008A4102DB0120AD
:101BD000BDE8F0870020FBE72DE9FC4100243949EE
:101BE0002246CDE90041384920460B46FFF7D3FF96
:101BF00000B9012400203349344BCDE900015D1CBC
:101C0000821E2946FFF7C7FF00B901242D49002095
:101C1000CB02CDE9000102460146FFF7BCFF00B947
:101C20000124002027490246CDE90001284B014646
:101C3000FFF7B1FF00B1012427492648274E284F5E
:101C4000CDE9000132463B4600202946FFF7A3FFBD
:101C500000B9012424492348CDE9000132463B461E
:101C600000202946FFF797FF00B1012420491F48B3
:101C7000164BCDE900011F4A693300202946FFF7C2
:101C80008AFF00B901240F4900201B4E4FF0224566
:101C9000CDE9000128462A4631463346FFF77BFF4F
:101CA00000B9012407490020CDE90001134A31465B
:101CB00033462846FFF76FFF00B101242046BDE8F8
:101CC000FC8100000000B03C00005940FFFFEF3FE6
:101CD0000000D03CFCA9F1D24D62503FC4B12E6E41
:101CE000A301F03F2D431CEBE2361A3F6132553021
:101CF0002AA9233F71AC8BDB941A6D42080000A225
:101D000070B514460D460646FEF770FA20F0004006
:101D10002146FEF7F3FB05D92946304602F0A2F82A
:101D2000042801DC012070BD002070BD2DE9F041C8
:101D30002E484FF0505500242A460146FFF7E0FF99
:101D400000B901242A492A468E1C3046FFF7D8FFE5
:101D500000B901242A464FF000410020FFF7D0FFD0
:101D600000B901242A464FF054510020FFF7C8FF64
:101D700000B10124204F1F4A39463046FFF7C0FF0B
:101D800000B901241D4A39463046FFF7B9FF00B1BA
:101D900001241B4A1B493046FFF7B2FF00B901245A
:101DA00019492A468F1E3846FFF7AAFF00B90124B9
:101DB00015492A460B313846FFF7A2FF00B101242E
:101DC0003046124E00253146FEF7BEF96D1C642DDB
:101DD000F9DB0F49884200D101240E4AFFF790FF3A
:101DE00000B901242046BDE8F08100000000C8428F
:101DF000FEFF7F3F6F12833A1B0D803F17B7D1382C
:101E000052491D394703803F02247449CDCCCC3D53
:101E100000003041ACC5273730B59AB1D0E9024354
:101E20001B1B934201D2032030BD056822442B19AD
:101E30008260A81804E000BF11F8012B03F8012B01
:101E40008342F9D1002030BD38B5002440F229107A
:101E5000FFF784FA054600F0ACF8032800D001240F
:101E60001BA004220068009069462846FFF7D4FFB3
:101E7000032800D00124284600F09BF8032800D056
:101E8000012400F0CDFF00B9012403226946284651
:101E9000FFF7C2FF00B10124284600F08AF800B124
:101EA0000124286890F82B11032900D0012490F810
:101EB0002A11022900D0012490F82901012800D01C
:101EC000012400F0ADFF00B90124204638BD000018
:101ED0000102030470B505460C46084601F044FBB8
:101EE000024621462846BDE87040FFF795BFF0B591
:101EF000426842B181684FF000048B1A0ED001682D
:101F00008D18CE1805E00020F0BD15F8017B01F812
:101F1000017BB142F9D1C0E9014301E08460446032
:101F20001046F0BD70B54FF4967600243046FFF7AA
:101F300015FA0546FFF7DBFF284600F06DFAB042C0
:101F400000D00124284600F034F800B101242846CE
:101F500000F0CCF8284600F05FFAA0F580712B392C
:101F600000D00124284600F024F800B101242846BE
:101F7000FFF7BDFF284600F01CF8012800D001241F
:101F800029680020C2B20B5C521C934200D001248D
:101F9000401C1F28F6D300F043FF00B9012420465F
:101FA00070BDD0E90110814201D1012070470020AD
:101FB0007047C1688068081A7047C16000F110025C
:101FC0000021C0E9002181607047000070B5002445
:101FD00001F04AFB00F024FF00B901240D484FF442
:101FE000967631460068FFF7E8FF054600F018FFD7
:101FF00000B90124E868B04200D00124686808B93B
:10200000A86800B1012400F00BFF00B901242046AC
:1020100070BD00000800002010B4426832B183682F
:102020009A4206D100214160816009E0002010BC85
:102030007047C468E31A8B4202D210BCFFF757BF47
:102040001046F4E738B5002440F22910FFF786F96E
:1020500005460321FFF7E0FF00B10124284600F008
:1020600045F805212846FFF7D7FF012800D00124B5
:102070001DA004220068009069462846FFF7CCFEA8
:1020800000B10124286800214FF49472455C4B1C78
:10209000DBB29D4200D00124491C9142F6D390F856
:1020A0002C11AE2900D0012490F82B11042900D066
:1020B000012490F82A11032900D0012490F8291155
:1020C000022900D0012490F82811012900D0012410
:1020D00090F82701282800D0012400F0A1FE00B9C3
:1020E0000124204638BD000001020304D0E900317C
:1020F0004A1C4260585C704730B5002A0CD0D0E9C9
:10210000005422442B194260A81803E013F8012B55
:1021100001F8012B8342F9D130BD000070B50024D5
:102120004FF49670FFF71AF9174E05462022716892
:10213000FFF7E2FF284600F06FF9E968203988428E
:1021400000D0012471680020C3B20A5C9A4200D01A
:102150000124401C2028F7D300F062FE00B90124BE
:10216000A9682868405CAE2800D00124706810F887
:10217000011CAE2900D0012490F82000AE2800D028
:102180000124204670BD0000080000202DE9F04128
:102190004FF4967700243846FFF7E0F80546FFF73E
:1021A00000FF00B10124284600F036F9B84200D003
:1021B000012400262846FFF799FFF1B2814200D0A2
:1021C0000124761CBE42F5D3284600F025F900B163
:1021D00001242846FFF7E5FE00B901246868B842EB
:1021E00002D1A868B84200D00124284600F00FF8B8
:1021F000686820B9A86810B9E868B84200D001241E
:1022000000F00EFE00B901242046BDE8F081002157
:10221000416081607047000070B5002401F024FA2D
:1022200011484FF496710068FFF7C7FE054603207A
:1022300068600520A860284600F0EEF8022800D06B
:10224000012400F0EDFD00B901242846FFF7DFFF6F
:10225000686808B9A86800B1012400F0E1FD00B980
:102260000124204670BD00000800002010B50024A5
:1022700000F06EF800284AD1641C642CF8D30024C6
:10228000FFF7A4FE002842D1641C642CF8D300247C
:10229000FFF7C2FF00283AD1641C642CF8D3002455
:1022A000FFF774FF002832D1641C642CF8D300249B
:1022B000FFF734FF00282AD1641C642CF8D30024D3
:1022C000FFF7C2FD002822D1641C642CF8D300243F
:1022D00000F0BAF800281AD1641C642CF8D300244A
:1022E00000F036F8002812D1641C642CF8D30024C6
:1022F000FFF718FE00280AD1641C642CF8D30024D0
:10230000FFF7A0FE002802D1641C642CF8D310BD96
:1023100070B5D0E90152D1E90243521B1B1B9A420E
:1023200000D91A46002A11D003682B440D682C44AA
:102330009D1803E013F8016B04F8016BAB42F9D16F
:1023400043681344436088681044886070BD00008F
:102350002DE9F04100244FF49670FEF7FFFF074689
:102360002C4820218068FFF728FE054601463846A4
:10237000FFF7CEFF00F054FD00B90124384600F00D
:102380004BF84FF48676B04200D00124284600F086
:1023900043F8202800D0012429680020C3B20A5C39
:1023A0009A4200D00124401C2028F7D32946384601
:1023B000FFF7AEFF00F034FD00B90124384600F00D
:1023C0002BF8B04200D00124284600F025F8202840
:1023D00000D001242846FFF789FE2846FFF787FD35
:1023E00029463846FFF794FF384600F015F8A0F567
:1023F00080710B3900D00124284600F00DF8202808
:1024000000D0012400F00CFD00B901242046BDE8F5
:10241000F08100000800002081684068081A7047B9
:1024200010B582680468531C8360A15410BD10B5B8
:10243000D0E902239A4205D2531C0468836000202D
:10244000A15410BD032010BD70B5002440F2291026
:10245000FEF784FF0546FFF7ACFD032800D00124FA
:1024600001212846FFF7E3FF00B10124022128469D
:10247000FFF7DDFF00B1012403212846FFF7D7FF56
:1024800000B1012404212846FFF7D1FF032800D022
:102490000124286890F82B11032900D0012490F81A
:1024A0002A11022900D0012490F82901012800D026
:1024B000012400F0B5FC00B90124204670BD0000E5
:1024C00070B504460D46000909D0FFF749FB00BF6F
:1024D00004F00F002946BDE87040FFF741BB002A19
:1024E000F6D030212846FFF7A2FFF1E770B594B08F
:1024F0000024264640216846FFF75FFD0546FFF7AA
:1025000086FE012229463046FFF7DAFF2846FFF70C
:1025100083FF022800D00124022227A1286800F0AE
:10252000BDFF00B901242846FFF771FE00222946AD
:102530003046FFF7C5FF2846FFF76EFF012800D0A1
:10254000012401221DA1286800F0A8FF00B9012480
:10255000CF262846FFF75BFE012229463046FFF7CB
:10256000AFFF012216A1286800F098FF00B90124EE
:10257000AF262846FFF74BFE012229463046FFF7DB
:102580009FFF02220FA1286800F088FF00B90124F4
:102590001C262846FFF73BFE012229463046FFF75E
:1025A0008FFF022208A1286800F078FF00B90124FB
:1025B00014B0204670BD0000303000003000000034
:1025C00043000000414600003143000030B5D243D3
:1025D000064B07E010F8015BD4B26C4053F824407E
:1025E00084EA1222491EF5D2D04330BD344200089D
:1025F00010B514460022FFF7E9FF2168884201D197
:10260000012010BD002010BD38B50A4800900024FC
:102610006A4604210848FFF7EBFF00B90124064A87
:102620000421121D101FFFF7E3FF00B9012420460B
:1026300038BD0000CDFB3CB61642000810B50024A2
:1026400001F0CCFD00280AD1641C642CF8D30024CE
:10265000FFF7DAFF002802D1641C642CF8D310BD08
:10266000AFF3008010B594B0002440216846FFF716
:10267000A4FC0448016804A0FEF768FC14B02046DE
:1026800010BD0000140000202A2064635F7072698E
:102690006E74665F746573743A202573202A200A6D
:1026A00000000000044900EB80000A6802EBC00053
:1026B0000A688242FCD3704728000020704700005F
:1026C00010B5002420460949FFF7F8FF074A51409A
:1026D000084300D0012400200549FFF7EFFF044A1A
:1026E0005140084300D00124204610BD0000F03FB7
:1026F000001059C07047000070B54FF07E5500249F
:102700002846FFF7F7FFA84200D00124044D2846D1
:10271000FFF7F0FFA84200D00124204670BD000062
:102720000080C8C22DE9F0471F46140005460E463A
:1027300007D0082C00D90824FEF7D6FB18B14AA10F
:102740001DE00124F8E728463146FEF7B7FB08B143
:1027500046A114E00022134628463146FDF79EFEAE
:1027600005D286F000462D213846FFF760FE424A2A
:10277000424B28463146FDF7A9FE05D240A1384616
:10278000BDE8F047FFF7A6BB28463146FDF75AFEE5
:102790008146FDF74AFE2A463346FDF7D1FD06463F
:1027A0000125204605E000BF05EB85025500401ECF
:1027B000C0B20028F8D10022334B3046FDF71CFD93
:1027C000064688462846FDF730FE32464346FDF76A
:1027D000BAFD06468846FDF735FE0546FDF725FE9F
:1027E00043463246FDF7ACFD0022284BFDF76EFE56
:1027F00004D86D1C012C01D109F101093946484664
:1028000001F00EFA2E213846FFF711FE3946284610
:1028100001F006FA0DB100200FE03846BDE8F047A0
:102820003021FFF704BEB9683A68091B0B18D35C66
:102830000A44411E401C5354C0B2A042F3D3BA68AC
:102840000021521E0120BA6008E03B68151A5B5D4A
:10285000302B01D1491CC9B2401CC0B2A042F4D3F4
:10286000501AB860BDE8F0874E414E00696E666947
:102870006E697479000000000000E0FFFFFFEF4187
:102880006C617267650000000000F03F0000E03FEF
:10289000F0B595B0002440216846FFF78EFB054651
:1028A0000346002004220146FFF73CFF2846FFF7BD
:1028B000B3FD032800D0012403224EA1286800F0B4
:1028C000EDFD00B901242846FFF7A1FC4FF00041BF
:1028D0002B4604220020FFF725FF2846FFF79CFD2A
:1028E000032800D00124032242A1286800F0D6FD6D
:1028F00000B901242846FFF78AFC2B4604224FF03A
:1029000020403D49FFF70EFF2846FFF785FD0428CC
:1029100000D00124042239A1286800F0BFFD00B9CD
:1029200001242846FFF773FC2B460422002035497A
:10293000FFF7F8FE052234A1286800F0AFFD00B9CA
:1029400001242846FFF763FC2B4605223048314915
:10295000FFF7E8FE082230A1286800F09FFD00B9CB
:1029600001242846FFF753FC2B4603222D482E490D
:10297000FFF7D8FE05222DA1286800F08FFD00B9D1
:1029800001242846FFF743FC2A4E2B4F2B460522F5
:1029900030463946FFF7C6FE0D2228A1286800F010
:1029A0007DFD00B901242846FFF731FC2B460122AA
:1029B00030463946FFF7B6FE0C2224A1286800F005
:1029C0006DFD00B901242846FFF721FC2B460822A3
:1029D00022482349FFF7A6FE112222A1286800F011
:1029E0005DFD00B901242846FFF711FC15B0204613
:1029F000F0BD0000302E30009999B9BF2D302E3136
:102A000000000000D676E0446C617267650000004B
:102A10000E6B2A8BC23E254031302E36323235388D
:102A20000000000003780B24287ED03F302E323582
:102A30003800000052B87E0065CDCDC12D31303058
:102A4000303030303030302E393900002D313030D8
:102A5000303030303030312E30000000746B7E006A
:102A600084D797413130303030303030302E3132F1
:102A7000333435363738000010B5002802D001F065
:102A800089FBFEE710BD704770B54FF07E550024FE
:102A90002846FFF7F8FFA84200D001240B4D284636
:102AA000FFF7F1FFA84200D001240020FFF7EBFF61
:102AB00010F0FF4F00D001244FF00040FFF7E3FF7C
:102AC00010F0FF4F00D00124204670BD0080C8C226
:102AD00070B50D46040005D52D212846FFF7A7FC4B
:102AE000E443641C29462046BDE8704001F098B8D4
:102AF00030B595B0002440216846FFF75EFA0546E0
:102B000000202946FFF7E4FF2846FFF785FC01284F
:102B100000D0012428680078302800D001242846FD
:102B2000FFF775FB34482946FFF7D2FF2846FFF729
:102B300073FC0A2800D0012428680178322900D0CB
:102B4000012430220921401C00F0B6FC00B9012408
:102B50002846FFF75CFB6FF001002946FFF7B8FF3E
:102B60002846FFF759FC022800D001242868017884
:102B70002D2900D001244078322800D00124284695
:102B8000FFF745FB4FF0FF302946FFF7A1FF28462E
:102B9000FFF742FC022800D00124286801782D2983
:102BA00000D001244078312800D001242846FFF7C6
:102BB0002EFB12482946FFF78BFF2846FFF72CFC17
:102BC0000B2800D00124296808782D2800D0012482
:102BD000012000F130020B5C934200D00124401C24
:102BE0000A28F6D3887A302800D001242846FFF737
:102BF0000EFB15B0204630BD009435772EFD69B62A
:102C00007047000070B5174D002420462946FFF795
:102C1000F7FF00222B46FDF741FC00D00124124DA6
:102C200000202946FFF7ECFF00222B46FDF736FC7B
:102C300000D0012400200146FFF7E2FF00221346E6
:102C4000FDF72CFC00D001244FF000450020294660
:102C5000FFF7D6FF00222B46FDF720FC00D0012411
:102C6000204670BD0000F03F001059C066280BD010
:102C700004DC252808D0642804D105E0732803D09B
:102C8000782801D0002070470120704705480021B6
:102C9000017144F62061016003494FF4005008615E
:102CA000704700000000002000100140054800218E
:102CB000017144F62061016003494FF400504861FE
:102CC000704700000000002000100140034801216F
:102CD000017144F62061016070470000000000208F
:102CE0000348012101714FF4FA610160704700004F
:102CF0000000002007480168074A1268B2FBF1F3A0
:102D000001FB1321002904D10079002801D0FDF72F
:102D1000AFBD7047000000202800002007A1002060
:102D20000968C1F30741032900D001200449054A7D
:102D30008968914200D00120704700000102030021
:102D4000204200080000404086B00120FDF7A4FDAD
:102D50004FF08050FDF794FD2B4801684FF6FF02BD
:102D600011402A4A41F44071114301600068002279
:102D7000C0F302200A21FDF769FF01464FF0FF3042
:102D8000FDF78DFF2248416821F0E0614160416814
:102D900041F000714160FDF7EFFF14216846FDF737
:102DA000C8F91020FDF778FD2020FDF775FD0420FF
:102DB000FDF772FD0820FDF76FFD174815494FF428
:102DC00000520261009101210324CDE90114002287
:102DD000CDE903216946FDF791FDFDF7D1FE0323FF
:102DE0001A460E494FF4E130009400F0A7FC4FF072
:102DF0008040016841F001010160C16841F00101BA
:102E0000C160FEF789F900000CED00E00000FA0552
:102E10000000014020002004001001406536000839
:102E200010B5AE221421174800F046FB002827D029
:102E3000AE221421144800F03FFB002820D0124895
:102E4000AE221421143000F037FB002818D00E48B1
:102E5000AE221421483000F02FFB002810D00A4881
:102E6000AE2214215C3000F027FB002808D0064871
:102E7000AE221421A03000F01FFB002800D001205A
:102E800010BD000030000020800100200FB410B5FC
:102E900004AA039900F088FB10BC5DF814FB2DE92F
:102EA000F04715460E4607460024A1F10109A1F19D
:102EB000020A2DE0385D252829D14C452AD007EBA0
:102EC000040898F80100303809280FD8544521D05B
:102ED00098F80200FFF7CAFEC8B138198078287048
:102EE00098F801003038687203200BE038194078F8
:102EF000FFF7BCFE002808D098F8010028700020D9
:102F000068720220287201206C60BDE8F087641CA2
:102F1000B442CFD30020F8E73EB500246A462146EC
:102F200028A0FFF7BCFF00B101246A46042126A0B7
:102F3000FFF7B5FF00B101246A46072124A0FFF77F
:102F4000AEFF012800D00124019850B99DF8080077
:102F5000022806D19DF80000642802D19DF80900DE
:102F600000B101246A4608211BA0FFF798FF012841
:102F700000D00124019804280BD19DF808000328F3
:102F800007D19DF80000662803D19DF809000328A9
:102F900000D001246A46072111A0FFF780FF00B18D
:102FA00001246A46062110A0FFF779FF00B1012431
:102FB0006A4607210EA0FFF772FF012800D0012406
:102FC00020463EBD000000007465737400000000E0
:102FD000256474657374000074657374253366002A
:102FE00074657374253300007465737425000000E4
:102FF000746573742525000070B5A0B000245021BD
:1030000007A8FEF7DAFF0546FFF701F90322A3A19F
:103010002846FFF73BFF00B101242846FFF7FCF9E3
:10302000142800D001241422A2A1286800F036FA46
:1030300000B901242846FFF7EAF8A3A12846FFF7C4
:1030400025FF00B10124686800B101242846FFF77C
:10305000DEF89EA12846FFF719FF00B1012428469B
:10306000FFF7DAF9042800D00124042297A1286888
:1030700000F014FA00B901242846FFF7C8F801222D
:1030800094A12846FFF702FF00B101242846FFF76C
:10309000C3F9062800D00124062290A1286800F078
:1030A000FDF900B901242846FFF7B1F801238D4A44
:1030B0008DA12846FFF7EAFE00B101242846FFF75C
:1030C000ABF90F2800D001240F228AA1286800F054
:1030D000E5F900B901242846FFF799F88A4989489B
:1030E000CDE90001012289A12846FFF7CFFE00B1FA
:1030F00001242846FFF790F90E2800D001240E2263
:1031000086A1286800F0CAF900B901242846FFF713
:103110007EF887498548CDE900010223012285A177
:103120002846FFF7B3FE00B101242846FFF774F9E3
:10313000152800D00124152283A1286800F0AEF9DB
:1031400000B901242846FFF762F80F2284A128461F
:10315000FFF79CFE00B101242846FFF75DF9062821
:1031600000D00124062280A1286800F097F900B958
:1031700001242846FFF74BF80F227DA12846FFF7D0
:1031800085FE00B101242846FFF746F90D2800D03E
:1031900001240D2279A1286800F080F900B90124EA
:1031A0002846FFF734F8794E79A132462846FFF7D2
:1031B0006DFE00B101242846FFF72EF90D2800D03E
:1031C00001240D2275A1286800F068F900B90124D6
:1031D0002846FFF71CF8324661A12846FFF756FE45
:1031E00000B101242846FFF717F90C2800D001246C
:1031F0000C226EA1286800F051F900B9012428467C
:10320000FFF705F86DA26EA12846FFF73FFE00B15B
:1032100001242846FFF700F9072800D001240722DF
:1032200069A1286800F03AF900B901242846FEF7A0
:10323000EEFF68496648CDE9000167A3012269A154
:103240002846FFF723FE00B1012431226FA1286830
:1032500000F024F900B901242846FEF7D8FF784889
:1032600006905C495A48CDE9040176A3032279A16E
:1032700002208DE80F0079A301227AA12846FFF7EA
:1032800005FE00B1012445228349286800F006F9B3
:1032900000B9012420B0204670BD00002A204279E8
:1032A00074654275662873697A65203D2025642916
:1032B0003A0000002A2042797465427566287369D5
:1032C0007A65203D2033293A00000000746573744C
:1032D00000000000746573742025640074657374C5
:1032E000203100003041AB002537642074657374D1
:1032F0002025640031313232333334342074657325
:10330000742031008716D9CEF79336402325643ACE
:1033100020746573742025326600000023313A2042
:10332000746573742032322E35380000D42B651941
:103330004A99C3402325642D2538643A2074657367
:10334000742025356600000023312D323A20746543
:1033500073742031303033342E3537383900000063
:1033600074657374202578007465737420460000BA
:1033700074657374202531780000000074657374DF
:103380002030303030303030460000004D3C2B0AC9
:1033900074657374202538780000000074657374B8
:1033A000203041324233433444000000746573746A
:1033B0002041324233433444000000006F6B000070
:1033C000746573742025730074657374206F6B00CB
:1033D0001F85EB51B81EE13F746865206D657373FE
:1033E000616765002325642E20746573742025733E
:1033F0002072656365697665642C202533662061DB
:1034000070706C657320656174656E0023312E20C9
:103410007465737420746865206D65737361676586
:103420002072656365697665642C20302E353335EE
:10343000206170706C657320656174656E000000BA
:10344000775544007761746572206D656C6F6E739B
:1034500000000000706C756D730000006170706C8E
:103460006500000025642025732C20256420257329
:103470002C2025642025732C206672616374696F8B
:103480006E3A202535662C2068657820636F646568
:103490003A202531780000008C46000830B5002322
:1034A00006E0C45CCD5CAC4201D0002030BD5B1CAA
:1034B0009342F6D3012030BD014405E003789342E6
:1034C00001D000207047401C8842F7D1012070478E
:1034D000002302E000F8011B5B1C9342FAD3704703
:1034E0002DE9F04395B040216846FEF766FDDFF810
:1034F0004C808146D8F80070114E00255FF0000422
:1035000056F82400FCF7B7FF02460B460D49484623
:10351000FFF7BCFC4846FEF77AFE641CA4B2042CFC
:10352000EED36D1CADB2642DE8D3D8F8000015B011
:10353000C01B2821B0FBF1F0BDE8F083280000207B
:10354000544600087C12000830B500224FF4806415
:10355000835C8D5CAB4203D123B1521CA242F7D3F2
:10356000002030BD012030BD01464FF480620020B4
:103570000B5C002B02D0401C9042F9D37047000036
:1035800010B5002406A0FFF7EFFF00B1012405A04D
:10359000FFF7EAFF012800D00124204610BD0000FB
:1035A00000000000310000002DE9FE4F82469046E9
:1035B0000F464FF000090846FFF7D6FF06460024E5
:1035C00041E029465046019AFEF726FC9DF800008E
:1035D000662810D004DC252829D064282BD104E0EB
:1035E00073281ED0782826D113E058F8040B5146D2
:1035F000FFF76EFA1FE008F1070020F007009DF8C2
:103600000920F0E80251804653462846FFF78AF821
:1036100011E058F8040B9DF80920514600F00CFA0F
:1036200009E058F8041B5046FEF754FC03E025213E
:103630005046FEF7FCFE9DF808100198084420440F
:10364000B04208D804463819311B05466A46FFF7D0
:1036500026FC0028B5D139195046FEF73BFC4846F8
:10366000BDE8FE8F7047000010B54FF4B272AE2176
:103670000748FFF72DFF4822AE210648FFF728FF35
:1036800004485822AE21BDE810404830FFF720BF63
:10369000300000209401002000B502460846FDF7E6
:1036A0001FFD22EA000000BD10B5002420460221C3
:1036B00000F016F8022800D00124082100F010F8CC
:1036C000822800D001240221FFF7E6FF802800D0E5
:1036D00001240821FFF7E0FF00B10124204610BDBE
:1036E00000B502460846FDF7FBFC104300BD000094
:1036F00010B50F480D4C80792058C0F3400058B1E8
:103700002068C0F3406038B12002606009490020A1
:1037100081F82000FEF7D6F92068C0F3C0600028C9
:1037200002D04FF00060606010BD00000000024059
:103730002C4200083402002000F01AB9F0B55E49AE
:1037400087B00C9DCC6944F40034CC61CC6904F49E
:10375000003400944C6944F001044C614C6904F05D
:10376000010400948C6944F004048C61896901F0BF
:103770000401009108B94FF4E130504C802104F16C
:103780002C06606284F8282084F8293084F82A50B6
:10379000002504F5CC700C343561FEF70EFCA060FA
:1037A00004F5A67044F8080C80202061257540F2CD
:1037B0000440E5600190092002900320CDE9030553
:1037C0000120059001A93E48FDF798F83E493D4B80
:1037D000881D8979595844F210029143027841F0CA
:1037E0001001995001785958027821F440519950AC
:1037F00001785958027821F02001995001785958E0
:10380000027821F04001995001785958027841F02E
:103810008001995001785958027821F440719950EB
:1038200001785958027821F440619950254F027867
:1038300008372649D1510278381D54F8081C115018
:10384000002207211846FDF74BF8214F3868617FA9
:10385000C0F302200022FDF7E0F901461120FDF738
:103860000EFA1120FDF7CCF93069314640F008001E
:103870003061A069C6E90005B560F5607561134D5A
:103880002D1F2846FDF70AF9286920F49040286189
:10389000686920F02A0068613868A17FC0F30220BF
:1038A0000022FDF7BAF901462620FDF7E8F92620A7
:1038B000FDF7A6F907B0F0BD001002403402002069
:1038C00000080140000002402C420008044400406F
:1038D0000CED00E02DE9F04107460E0011D0EFF3AA
:1038E000108472B60E4D6869FEF796FB6869D0E9E0
:1038F0000221891AB14206D284F310880320BDE860
:10390000F0810020FBE732463946FEF785FA10B910
:10391000E869801BE86184F31088FEF7D3F8F0E7CC
:10392000340200202DE9F0410E46074600250EE046
:10393000741B802C00D98024204600F073F80028E6
:10394000FAD021463846FFF7C5FF25442744B54243
:10395000EED3BDE8F08170B50446D4E901010D1A3B
:1039600029462068FFF7DEFF60682844606070BD6C
:103970002DE9F04180212648FEF71FFB254E70619E
:1039800006F5AC7070608020F061EFF3108772B6BE
:10399000214C4FF0806060604010606040106060BB
:1039A000C00060601D48851D80792058297840F04E
:1039B0000200605028782058297840F008006050B4
:1039C000DFF85C80D8F8141041F08001C8F81410BA
:1039D000002207212046FCF783FF0F492A780C318B
:1039E0007068505007212046FCF76EFF2878215858
:1039F00011F0010FFBD0D8F80C1041F40051C8F8B9
:103A00000C10002086F8200087F31088BDE8F081B4
:103A1000CC03002034020020000002402C420008A9
:103A2000004400400349C969814201D30120704725
:103A30000020704734020020F8B50E4688B10021FE
:103A40006C466054000A491C0429FAD34FF0030560
:103A500092B1605D01223146FEF732FD6D1EF8D550
:103A6000F8BD22B109A13046FEF734FAF8BD302185
:103A70003046FEF7DCFCF8BD605D18B1002231462F
:103A8000FEF71EFD6D1EF7D5F8BD0000303030305A
:103A9000303030300000000070B594B0002426466D
:103AA00040216846FEF789FA0546FEF7B0FB012281
:103AB00029463046FFF7C0FF2846FEF7ADFC082830
:103AC00000D00124082246A12868FFF7E7FC00B9CE
:103AD00001242846FEF79BFB002229463046FFF7CB
:103AE000ABFF2846FEF798FC012800D001240122F4
:103AF0003EA12868FFF7D2FC00B901240126284620
:103B0000FEF785FB002229463046FFF795FF284641
:103B1000FEF782FC012800D00124012234A128688C
:103B2000FFF7BCFC00B9012440F22F162846FEF72F
:103B30006EFB002229463046FFF77EFF2846FEF73F
:103B40006BFC032800D0012401222AA12868FFF77A
:103B5000A5FC00B901242846FEF759FB012229469D
:103B60003046FFF769FF2846FEF756FC082800D0CC
:103B70000124082220A12868FFF790FC00B9012445
:103B8000204E2846FEF743FB012229463046FFF728
:103B900053FF2846FEF740FC082800D001240822E5
:103BA00019A12868FFF77AFC00B90124194E2846AC
:103BB000FEF72DFB002229463046FFF73DFF284641
:103BC000FEF72AFC072800D00124072212A128684A
:103BD000FFF764FC00B9012414B0204670BD00005A
:103BE0003030303030303030000000003000000025
:103BF0003100000031324600303030303031324652
:103C000000000000785634123132333435363738FC
:103C100000000000EFCDAB09394142434445460066
:103C20002DE9F047124C8A46054600274FF030092F
:103C30004FF00A08B5FBF4F63EB106F13000C1B210
:103C40005046FEF7F4FB012704E01FB149465046F9
:103C5000FEF7EDFB06FB1455B4FBF8F40A2CE9D291
:103C60003035E9B25046BDE8F047FEF7E0BB000052
:103C700000CA9A3B30B595B0002440216846FEF753
:103C80009CF9054600202946FFF7CAFF2846FEF7A3
:103C9000C3FB012800D0012428680078302800D018
:103CA00001242846FEF7B3FA2B482946FFF7B8FF50
:103CB0002846FEF7B1FB0A2800D0012428680178C5
:103CC000342900D0012430220921401CFFF7F4FBE5
:103CD00000B901242846FEF79AFA1F482946401CDD
:103CE000FFF79EFF2846FEF797FB0A2800D0012425
:103CF00028680178342900D0012430220821401C92
:103D0000FFF7DAFB00B901242868407A312800D097
:103D100001242846FEF77BFA10482946FFF780FF6A
:103D20002846FEF779FB0A2800D0012429680020E4
:103D300000F131020B5C934200D00124401C0928A1
:103D4000F6D3487A302800D001242846FEF75FFADF
:103D500015B0204630BD000000286BEED202964917
:103D60002DE9F04716461D4607460C46FCF796FB24
:103D700003D100200146BDE8F08738462146FDF713
:103D8000B3F84FF0FF386FF00049D0B930462946FC
:103D9000FDF7AAF8A8B938462146FDF78FF880B993
:103DA00030462946FDF78AF858B9002C01DA01207F
:103DB00000E00020002D01DA012100E0002188420E
:103DC00002D040464946D6E7B81B74EB0501D2D570
:103DD0000022404262EB0101CDE7000070B50024F3
:103DE0001D4922460B462046FFF7BAFF084300D084
:103DF00001241A4D012229462B460020FFF7B0FF6F
:103E000080F00100084300D00124144B6FF0010240
:103E10005B1E00202946FFF7A3FF80F00200084345
:103E200000D0012400204FF0FF41FEF7E9FE0546D7
:103E30000E4600200A49FEF7E3FE02460B462846DE
:103E40003146FFF78DFF6FF00042514071EA0000EC
:103E500000D00124204670BD000059400000F03F12
:103E6000000080FF70B50D460446FCF747FB01D10A
:103E7000002070BD24F00040C0F1FF40C00F6FF083
:103E8000004611D125F00040C0F1FF40C00F0BD11A
:103E90002046FDF71FF838B92846FDF71BF818B97A
:103EA000E00FB0EBD57F01D0304670BD601BFCD574
:103EB000404270BD70B5154800240146FFF7D2FF9F
:103EC00000B1012412494D1E2846FFF7CBFF0128FF
:103ED00000D001240E492846C91EFFF7C3FF02285F
:103EE00000D001244FF0FF40FEF7CDFD0546094804
:103EF000FEF7C9FD01462846FFF7B4FF6FF0004109
:103F0000884200D00124204670BD00000000C84255
:103F10000100803F000080FF70B54FF47A740025E7
:103F2000FFF76AF800287CD16D1CA542F8D3002366
:103F3000FEF7F4FE002874D15B1CA342F8D30025E1
:103F4000FFF71EFB00286CD16D1CA542F8D300259D
:103F5000FEF7D2FB00287CD16D1CA542F8D30025CA
:103F6000FEF792FD002874D16D1CA542F8D3002500
:103F7000FFF7A0FF00286CD16D1CA542F8D30025E7
:103F8000FDF7D4FE002864D16D1CA542F8D30025AE
:103F9000FEF796FB00285CD16D1CA542F8D30025E6
:103FA000FEF730FE002854D16D1CA542F8D3002541
:103FB000FFF714FF00284CD16D1CA542F8D3002553
:103FC000FDF70AFE002844D16D1CA542F8D3002558
:103FD000FFF750FE00283CD16D1CA542F8D3002508
:103FE000FEF786FD002834D16D1CA542F8D30025CC
:103FF000FFF75AFB00282CD16D1CA542F8D30025F1
:10400000FEF746FC002824D16D1CA542F8D30025FC
:10401000FEF782FF00281CD16D1CA542F8D30025B5
:1040200000E016E0FEF762FA002812D16D1CA542EE
:10403000F6D3002500F042F800280AD16D1CA542F5
:10404000F8D30025FFF728FD002802D16D1CA542FA
:10405000F8D370BD0FB42DE9FC4107460024099840
:10406000FFF782FA060009D00AAD11A10998FFF7FF
:104070006BFA40B10A980124009011E00020BDE8DD
:10408000FC015DF814FB0BA10998FFF75DFA38B14C
:10409000ED1D25F007010124D1E90001CDE9000162
:1040A000324638460999FDF7B7FE2046E7E700009B
:1040B000696E7400646F75626C65000030B597B00E
:1040C0000024402102A8FDF778FF054626A1FFF74E
:1040D000C1FF00B101242846FEF799F8032223A16D
:1040E0002846FFF7B7FF00B9012420A0FFF73CFAEC
:1040F00002461EA12868FFF7D1F900B9012428461D
:10410000FEF785F81A4A1B4B1BA12846FFF7A2FFB2
:1041100000B9012418A0FFF727FA024616A1286863
:10412000FFF7BCF900B901242846FEF770F81449DE
:104130000020CDE900014FF47A7212A12846FFF762
:1041400089FF00B101240FA0FFF70EFA02460DA16E
:104150002868FFF7A3F900B901242846FEF757F8AD
:1041600017B0204630BD000000000000696E7400EA
:1041700048E17A14AE175940646F75626C650000AF
:10418000501AF8407468697320697320612074655F
:104190007374000018B1042803D0FEF787BDFEF742
:1041A00095BDFEF79DBD0000002210B54B081146DD
:1041B00004E000BF30F8024B6240491C9942F9D339
:1041C000104610BD10B51446FFF7EEFF2188884257
:1041D00001D1012010BD002010BD000038B50B4AF0
:1041E00000240421101FFFF7EDFF00B9012440F265
:1041F0000260ADF8000005486A460421001FFFF781
:10420000E1FF00B90124204638BD00001442000837
:1042100001020304020601020304CDFB3CB60000C8
:104220000000803F0000004000004040081C304477
:10423000586C800000000000963007772C610EEE6D
:10424000BA51099919C46D078FF46A7035A563E9ED
:10425000A395649E3288DB0EA4B8DC791EE9D5E014
:1042600088D9D2972B4CB609BD7CB17E072DB8E713
:10427000911DBF906410B71DF220B06A4871B9F368
:10428000DE41BE847DD4DA1AEBE4DD6D51B5D4F4A1
:10429000C785D38356986C13C0A86B647AF962FD06
:1042A000ECC9658A4F5C0114D96C0663633D0FFA53
:1042B000F50D088DC8206E3B5E10694CE44160D559
:1042C000727167A2D1E4033C47D4044BFD850DD243
:1042D0006BB50AA5FAA8B5356C98B242D6C9BBDB56
:1042E00040F9BCACE36CD832755CDF45CF0DD6DC51
:1042F000593DD1ABAC30D9263A00DE518051D7C8F8
:104300001661D0BFB5F4B42123C4B3569995BACF82
:104310000FA5BDB89EB802280888055FB2D90CC6A3
:1043200024E90BB1877C6F2F114C6858AB1D61C11C
:104330003D2D66B69041DC760671DB01BC20D2983B
:104340002A10D5EF8985B1711FB5B606A5E4BF9FC8
:1043500033D4B8E8A2C9077834F9000F8EA80996BB
:1043600018980EE1BB0D6A7F2D3D6D08976C649126
:10437000015C63E6F4516B6B62616C1CD83065853F
:104380004E0062F2ED95066C7BA5011BC1F408821C
:1043900057C40FF5C6D9B06550E9B712EAB8BE8B5D
:1043A0007C88B9FCDF1DDD62492DDA15F37CD38CE6
:1043B000654CD4FB5861B24DCE51B53A7400BCA3E4
:1043C000E230BBD441A5DF4AD795D83D6DC4D1A416
:1043D000FBF4D6D36AE96943FCD96E34468867ADED
:1043E000D0B860DA732D0444E51D03335F4C0AAA8C
:1043F000C97C0DDD3C710550AA41022710100BBE8F
:1044000086200CC925B56857B3856F2009D466B9D5
:104410009FE461CE0EF9DE5E98C9D9292298D0B00A
:10442000B4A8D7C7173DB359810DB42E3B5CBDB7B7
:10443000AD6CBAC02083B8EDB6B3BF9A0CE2B60338
:104440009AD2B1743947D5EAAF77D29D1526DB04ED
:104450008316DC73120B63E3843B64943E6A6D0D38
:10446000A85A6A7A0BCF0EE49DFF099327AE000A83
:10447000B19E077D44930FF0D2A3088768F2011E16
:10448000FEC206695D5762F7CB67658071366C19AD
:10449000E7066B6E761BD4FEE02BD3895A7ADA10CE
:1044A000CC4ADD676FDFB9F9F9EFBE8E43BEB717AF
:1044B000D58EB060E8A3D6D67E93D1A1C4C2D83839
:1044C00052F2DF4FF167BBD16757BCA6DD06B53F9F
:1044D0004B36B248DA2B0DD84C1B0AAFF64A0336DE
:1044E000607A0441C3EF60DF55DF67A8EF8E6E315D
:1044F00079BE69468CB361CB1A8366BCA0D26F25A6
:1045000036E2685295770CCC03470BBBB9160222F2
:104510002F260555BE3BBAC5280BBDB2925AB42B07
:10452000046AB35CA7FFD7C231CFD0B58B9ED92C1C
:104530001DAEDE5BB0C2649B26F263EC9CA36A7581
:104540000A936D02A906099C3F360EEB8567077238
:1045500013570005824ABF95147AB8E2AE2BB17B9F
:10456000381BB60C9B8ED2920DBED5E5B7EFDC7C26
:1045700021DFDB0BD4D2D38642E2D4F1F8B3DD687D
:104580006E83DA1FCD16BE815B26B9F6E177B06F78
:104590007747B718E65A0888706A0FFFCA3B066665
:1045A0005C0B0111FF9E658F69AE62F8D3FF6B61F2
:1045B00045CF6C1678E20AA0EED20DD75483044E94
:1045C000C2B30339612667A7F71660D04D47694922
:1045D000DB776E3E4A6AD1AEDC5AD6D9660BDF4035
:1045E000F03BD83753AEBCA9C59EBBDE7FCFB247E8
:1045F000E9FFB5301CF2BDBD8AC2BACA3093B353CD
:10460000A6A3B4240536D0BA9306D7CD2957DE54D5
:10461000BF67D9232E7A66B3B84A61C4021B685DAE
:10462000942B6F2A37BE0BB4A18E0CC31BDF055A27
:104630008DEF022D250620C130412B4BA2C47C3FBB
:104640000000008000000000443322119FAFFAFFF9
:104650001C000000250620C130412B4BA2C47C3F2A
:104660000000008000000000443322119FAFFAFFD9
:104670001C00000000000000000000000102030414
:1046800006070809000000000102030431206170E0
:10469000706C652C203220706C756D732C2033206B
:1046A0007761746572206D656C6F6E732C20667215
:1046B000616374696F6E3A20302E3533352C206873
:1046C000657820636F64653A20303034343535378F
:1046D000370000004F4B00002A2042797465427574
:1046E000662873697A65203D202564293A20257360
:1046F0000A20202A20726561643A2025642C2077E4
:10470000726974653A2025640A20202A2044617465
:10471000613A202700000000494E4445585F455249
:10472000524F5200444700080000002030000000B3
:10473000000F000874470008300000203008000017
:10474000100F0008000000000000000044000020DE
:10475000A8010020F0010020D4460008000000005D
:10476000D446000818470008D8460008000000009A
:044770000024F4002D
:04000005080000ED02
:00000001FF
