:020000040800F2
:100000003815002001010008E706000889010008F2
:10001000E50600086D0100089509000800000000D1
:10002000000000000000000000000000710800084F
:100030008701000800000000B907000873080008E5
:100040001B0100081B0100081B0100081B01000820
:100050001B0100081B0100081B0100081B01000810
:100060001B0100081B0100081B0100081B01000800
:100070006F01000873010008770100087B01000888
:100080007F010008830100081B0100081B01000814
:100090001B0100081B0100081B0100081B010008D0
:1000A0001B0100081B0100081B0100081B010008C0
:1000B000610900081B0100081B0100081B01000862
:1000C0001B0100081B0100081B0100081B010008A0
:1000D0001B010008890900088D0900089109000822
:1000E0001B0100081B0100081B010008DFF80CD0F1
:1000F00000F02AF800480047650D00083815002078
:100100000648804706480047FEE7FEE7FEE7FEE7B1
:10011000FEE7FEE7FEE7FEE7FEE7FEE71909000857
:10012000ED000008D2B201E000F8012B491EFBD21D
:1001300070470022F6E710B513460A4604461946F2
:10014000FFF7F0FF204610BD064C074D06E0E068C3
:1001500040F0010394E8070098471034AC42F6D30E
:10016000FFF7C8FFDC1A0008FC1A0008FEE701F0E0
:100170003BBA01F015BA00F0BDBE00F095BE00F02C
:100180001BBF00F03DBF7047FEE700000248C1689A
:1001900081F40051C160704700100140044908B566
:1001A0004A6902434A6149690140009108BD000063
:1001B00000100240044908B5CA690243CA61C9690E
:1001C0000140009108BD000000100240044908B53C
:1001D000CA690243CA61C9690140009108BD0000B3
:1001E00000100240044908B58A6902438A6189699E
:1001F0000140009108BD000000100240044908B50C
:100200008A6902438A6189690140009108BD000042
:1002100000100240044A114411F8011C425822F017
:100220000102425070470000BC160008044A114405
:1002300011F8011C425842F0010242507047000080
:10024000BC160008044A114411F8011C425842F03F
:100250000402425070470000BC160008044A1144D2
:1002600011F8011C425842F002024250704700004F
:10027000BC160008044A114411F8011C425842F00F
:100280000802425070470000BC160008034A001DD7
:10029000114411F8011C085880B27047BC160008C0
:1002A000034A114411F8011C405800F00100704746
:1002B000BC160008034A114411F8011C4058C0F351
:1002C00080007047BC160008034A114411F8011C55
:1002D0004058C0F340007047BC160008044B194456
:1002E00011F8011C435823F4405313434350704703
:1002F000BC160008054B001D194411F8011C0B58D1
:100300006FF30F0313430B5070470000BC16000837
:10031000054B10B5194411F8011C435844F2100460
:10032000A3431343435010BDBC160008034B0C30CD
:10033000194411F8011C0A5070470000BC1600084F
:10034000044B194411F8011C435823F08003134354
:1003500043507047BC160008044B194411F8011CA7
:10036000435823F44063134343507047BC160008BE
:10037000044B194411F8011C435823F02003134384
:1003800043507047BC160008034B0830194411F85D
:10039000011C0A5070470000BC160008044B1944A9
:1003A00011F8011C435823F0400313434350704796
:1003B000BC160008044B194411F8011C435823F4DF
:1003C0004073134343507047BC160008F0B50A68E9
:1003D000C2F30F2595FAA5F2B2FA82F369E0012281
:1003E0009A402A4264D0082B03D240F201129A406C
:1003F00006E0A3F108024FF00114944044F080623B
:1004000092FAA2F700EB1264B7FA87F74FEA870C6B
:100410000F27266807FA0CF7BE4392FAA2F7D1F825
:1004200004E0B7FA87F7BF000EFA07FE46EA0E06A9
:1004300026600E69C7684FEA122C9CFAACFCBCFA25
:100440008CFC27EA122706FA0CF63743C7604E6881
:10045000012E01D0092E2BD192FAA2F7B7FA87F715
:100460004FEA870C032707FA0CF72668D1F808E053
:10047000BE4392FAA2F7B7FA87F7BF000EFA07FE5B
:1004800092FAA2FC46EA0E06BCFA8CFC4FEA8C0EED
:100490004FF0040C26600CFA0EFC92FAA2F2B2FAAB
:1004A00082F2CF68920026EA0C0697403E4326600F
:1004B0005B1C35FA03F292D10020F0BD4FF47A7143
:1004C000B0FBF1F14FF0E020491E41610021816154
:1004D00005210161704700B5034600F099F91860E5
:1004E00000F06CF9586000F077F99860586800F0F7
:1004F00081F9D86000BD0000014908607047000024
:1005000014000020F0B50268154B164C164D4FF044
:100510008046984205D0B04203D0A04201D0A84204
:1005200003D14F6822F070023A43984205D0B0429E
:1005300003D0A04201D0A84203D1CC6822F440727B
:10054000224302608A68C2620A888262984201D1AC
:10055000097C0163416941F0010141610020F0BD66
:10056000002C0140000400400008004008B501686C
:1005700000914068009008BD08B50168009140688E
:10058000009008BD2DE9FF410446C0680D460126D4
:10059000C0F34030F0BBE9686868E2680843296945
:1005A00041F20C639A4311430843E060A868216953
:1005B00021F44051014321616869616921F440716E
:1005C000014361616846FFF786FF2448844201D1F8
:1005D000039806E02248844202D02248844238D15F
:1005E0000298B8B12A68AAB100EBC00101EB001172
:1005F0009200B1FBF2F36420B3FBF0F3B1FBF2F530
:100600006FF018077B43002605EB8305322303EBCD
:10061000051500E01DE0B1FBF2F7B5FBF0F5B7FB07
:10062000F0F705F0F00505EB0715B1FBF2F7B1FBAC
:10063000F2F1B1FBF0F16FF01802514307EB8101C9
:1006400003EB0111B1FBF0F000F00F00284480B281
:10065000A06004B03046BDE8F081000000380140E1
:10066000004400400048004010B586B014216846A0
:10067000FFF75FFD0120FFF7A9FD19480068002280
:10068000C0F30220114600F055F801461C2000F08E
:1006900083F84FF0E0224FF080510020C2F80011A3
:1006A0002321ADF800103121CDE901014FF0804444
:1006B000039069462046FFF725FF206820F0800060
:1006C0002060A06844F207018843A060606820F0C1
:1006D00070006060A06820F08000A06006B010BDCF
:1006E0000CED00E0FEE77047002809DB00F01F0278
:1006F000012191404009800000F1E020C0F8001184
:10070000704730B500F00703C3F10704042C00D98B
:100710000424181D072801D2002300E0DB1E012558
:1007200005FA04F0401E084098409D406D1E15409B
:10073000284330BD30B500F00703C3F10704042C93
:1007400000D90424181D072801D2002300E0DB1E75
:10075000012505FA04F0401E084098409D406D1E9A
:100760001540284330BD000002480068C0F3022055
:10077000704700000CED00E00907090E002804DBBB
:1007800000F1E02080F80014704700F00F0000F145
:10079000E02080F8141D70470907090E002804DBCB
:1007A00000F1E02080F80014704700F00F0000F125
:1007B000E02080F8141D7047704700000449496824
:1007C000044A01F0F0010909515CC840704700007B
:1007D00000100240C41A000804494968044A01F4A0
:1007E000E06102EB11210978C84070470010024017
:1007F000D41A000804494968044A01F4605102EB24
:10080000D1210978C840704700100240D41A00086E
:100810000648406810F00C01054805D0042903D0B3
:10082000082901D100F006B870470000001002400E
:1008300000127A000B48416811F480320A4909D04D
:10084000B2F5803F06D14168084AC1F34041491CD6
:10085000B2FBF1F14068022200F4701002EB90400C
:10086000484370470010024000093D0000127A0022
:1008700070477047254810B5016821F0070141F025
:100880000201016000682248016841F48031016082
:100890000168C1F340410029FAD0416821F47C117C
:1008A00041F4E8114160016841F080710160016824
:1008B000C1F340610029FAD0416821F0F0014160A4
:1008C000416821F4E06141F480614160416821F4B4
:1008D000605141F400514160416821F0030141F051
:1008E00002014160416801F00C010829FAD1094C6C
:1008F0002046FFF7E3FD4FF0E021086940F00400D7
:1009000008612046BDE81040FFF7F6BD0020024018
:100910000010024000A24A040D48016841F00101A4
:10092000016041680B4A1140416001680A4A114068
:100930000160016821F480210160416821F4FE0119
:1009400041604FF41F0181600449C0030860704793
:10095000001002400000FFF8FFFFF6FE08ED00E087
:1009600010B54FF08044206910F0010F08D0054801
:100970000168491C016000F0E1F96FF0010020619D
:1009800010BD00001000002000F0D4BA00F0A8BC98
:1009900000F048BEFEE702E008C8121F08C1002AA6
:1009A000FAD170477047002001E001C1121F002AF0
:1009B000FBD170472DE9F0411C4CA07F002833D1BA
:1009C000EFF3108572B60421194E3046FFF722FC72
:1009D0004FF4804070604010706040107060C00044
:1009E00070606069C1888288891A0F043F0C19D031
:1009F000402F00D940273A46616800F021F9A08BCA
:100A00003844A0833A4604213046FFF773FC0421A2
:100A100030466268FFF78AFC0120A0770421304647
:100A2000FFF704FC85F31088BDE8F0811800002072
:100A3000000002402DE9F0411C4CA07F002832D17B
:100A4000EFF3108572B60721194E3046FFF7E2FB2F
:100A5000700270604010706040107060C000706084
:100A60006069C1888288891A0F043F0C19D0402F11
:100A700000D940273A46616800F0E2F8A08B38447C
:100A8000A0833A4607213046FFF734FC0721304661
:100A90006268FFF74BFC0120A07707213046FFF783
:100AA000C5FB85F31088BDE8F08100005C000020E4
:100AB000000002402DE9F0411C4CA07F002832D1FB
:100AC000EFF3108572B60221194E3046FFF7A2FBF4
:100AD0004020706020207060102070608020706066
:100AE0006069C1888288891A0F043F0C19D0402F91
:100AF00000D940273A46616800F0A2F8A08B38443C
:100B0000A0833A4602213046FFF7F4FB022130462B
:100B10006268FFF70BFC0120A07702213046FFF747
:100B200085FB85F31088BDE8F0810000A00000205F
:100B300000000240044BDA7F22B1DB680A46194606
:100B400000F01CB89B68F9E718000020044BDA7F1E
:100B500022B1DB680A46194600F010B89B68F9E735
:100B60005C000020044BDA7F22B1DB680A4619469C
:100B700000F004B89B68F9E7A000002030B50B89AD
:100B8000CC881B1B9BB2934201D2032030BD0D6861
:100B9000224492B22B19CA80A91803E010F8012B45
:100BA00003F8012B8B42F9D1002030BDF0B58288CB
:100BB00052B1C1884FF00004891A0B041B0C0ED0EF
:100BC00001688D18CE1805E00020F0BD15F8017BF6
:100BD00001F8017BB142F9D18480C38001E0C48077
:100BE00084801046F0BD8188C088814201D10120F7
:100BF00070470020704710B504460C3020602181FA
:100C00000020A080E080204600F050F8204610BD73
:100C100010B4828832B1C3889A4206D10021818003
:100C2000C1800AE0002010BC70470489E31A9BB21F
:100C30008B4202D210BCFFF7B9BF1046F3E70000A9
:100C400030B584880568224492B22B198280A81896
:100C500004E000BF13F8012B01F8012B8342F9D106
:100C600030BD00218180C180704770B5C288858801
:100C70000B89CC88521B1B1B92B29BB29A4200D9A3
:100C80001A46002A11D003682B440D682C449D1885
:100C900003E013F8016B04F8016BAB42F9D18388D0
:100CA00013448380C8881044C88070BD00218180AF
:100CB000C1800189006800F0E6B80000044900EB3B
:100CC00080000A6802EBC0000A688242FCD37047C9
:100CD0001000002005480021017144F620610160E8
:100CE00003494FF4005008617047000000000020E5
:100CF0000010014005480021017144F620610160A7
:100D000003494FF400504861704700000000002084
:100D10000010014003480121017144F62061016087
:100D200070470000000000200348012101714FF4CA
:100D3000FA61016070470000000000200748016868
:100D4000074A1268B2FBF1F301FB1321002904D119
:100D50000079002801D0FFF719BA70470000002081
:100D60001000002086B00120FFF748FA4FF08050B5
:100D7000FFF72CFA354801684FF6FF021140344A5C
:100D800041F440711143016000680022C0F3022069
:100D90000A21FFF7CFFC01464FF0FF30FFF7FCFCC4
:100DA0002C48416821F0E0614160416841F00071E8
:100DB0004160FFF75FFD14216846FFF7BAF9102084
:100DC000FFF71CFA2020FFF719FA0420FFF716FAA4
:100DD0000820FFF713FA21481F494FF4005202611F
:100DE000009101210324CDE901140022CDE9032162
:100DF0006946FFF7EBFAFFF737FC03231A46184959
:100E00004FF4E130009400F049F94FF08040016860
:100E100041F001010160C16841F00101C160FFF7CB
:100E200059FF00F033F9002000F03EFC4FF4FA6067
:100E3000FFF744FFFFF74EFF0AA000F09DFB0120E3
:100E4000FFF73CFF00F0FCF8F9E700000CED00E0D4
:100E50000000FA05000001402000200400100140BD
:100E60008F0E00085465737420626567696E2E2EBC
:100E70002E000000002303E05B1C00F8011B9BB266
:100E80009342F9D370470A460021FFF7F3BF70473A
:100E9000014600204FF480620B5C002B03D0401C05
:100EA00080B29042F8D3704710B5114C052120460E
:100EB000FFF700FA40B12068C0F3804020B14FF442
:100EC0008020606000F04CF805212046FFF7FCF917
:100ED00000280BD02068C0F34040002806D04FF413
:100EE00000306060BDE8104000F03AB810BD00006E
:100EF0000000024010B50D4C04212046FFF7E4F934
:100F000058B12068C0F3403038B14FF400506060F1
:100F1000074900208877FFF74DFD2068C0F3C030F7
:100F2000002802D04FF40040606010BD0000024075
:100F300018000020094810B5C168C1F3001100294C
:100F40000AD00168C1F30011002905D0FFF70EFB9C
:100F5000BDE8104000F004B810BD000000380140AA
:100F600070B505211148FFF791F9114EC0F5807059
:100F700084B230880F4D844211D005D9A4EB000112
:100F80002A6889B2104408E0C0F580712A6889B2E5
:100F90001044FFF7CFFD21462868FFF7CBFDB4F5DD
:100FA000807F00D10024348070BD0000000002402A
:100FB000080000201800002010B5104C0621204623
:100FC000FFF778F938B12068C0F3805018B160019C
:100FD000606000F011FA06212046FFF775F900283D
:100FE0000BD02068C0F34050002806D04FF400100A
:100FF0006060BDE8104000F0FFB910BD0000024085
:1010000010B50D4C07212046FFF75EF950B120685E
:10101000C0F3406030B1200260600849002088774A
:10102000FFF708FD2068C0F3C060002802D04FF031
:101030000060606010BD0000000002405C00002005
:1010400010B5114C0120E0772169A068FFF70DFE73
:10105000A068FFF7ABFD0020E077D4E90301FFF7BC
:1010600004FEE068FFF7A2FD2069FFF7BCFD002841
:1010700008D1A16909B1206988472069BDE81040FD
:10108000FFF7EFBD10BD00005C00002010B500F0C0
:1010900025FABDE8104000F039B900002DE9FF4FF6
:1010A00085B005461E4617464FF40030DDF84880EF
:1010B000FFF780F80120FFF771F80420FFF792F89E
:1010C0000DB94FF4E135814C802104F6DC20256216
:1010D00084F8247084F8256004F1280684F82680BA
:1010E00000253561FFF787FD606104F69C20606094
:1010F0008020A083A57740F20440A56100900920DC
:101100000327CDE901074FF00108DFF8C4A1CDE9BD
:10111000035869465046FFF759F9DFF8B8B1102275
:1011200007215846FFF7F4F8002207215846FFF739
:10113000D5F8002207215846FFF71AF900220721A7
:101140005846FFF72BF9802207215846FFF7F8F899
:10115000002207215846FFF72DF9002207215846A3
:10116000FFF7FAF85C4A07215846FFF70DF9072107
:1011700058466268FFF7DAF8002207215846FFF761
:10118000B9F8FFF7F1FA94F825100022FFF7B9FA41
:1011900001461120FFF7F0FA1120FFF7A5FA306998
:1011A0004FF4007140F00800306104F5BF6020602A
:1011B00000F52670FFF71FFD4FF480792061494646
:1011C00004F5DF60FFF717FDA060E577802104F6E6
:1011D0000400FFF710FDE06040486946458006982E
:1011E000A06140F6080000900420CDE90107CDE998
:1011F00003585046FFF7EAF8002206215846FFF749
:1012000087F8002206215846FFF768F820220621B9
:101210005846FFF7ADF8002206215846FFF7BEF802
:10122000802206215846FFF78BF8002206215846F7
:10123000FFF7C0F8002206215846FFF78DF8264A2E
:1012400006215846FFF7A0F8062158462268FFF706
:101250006DF84A4606215846FFF74CF8FFF784FA26
:1012600094F824100022FFF74CFA01461020FFF7F3
:1012700083FA1020FFF738FA3069314640F0040055
:101280003061206AC6E90005B560F5607561124DF0
:101290002D1F2846FFF776F9286920F49040286131
:1012A000686920F02A006861FFF75EFA94F826105A
:1012B0000022FFF726FA01462620FFF75DFA2620D6
:1012C000FFF712FA09B0BDE8F08F00005C000020C3
:1012D00000080140000002400444004008000020D3
:1012E000094810B5C168C1F3001100290AD001688E
:1012F000C1F30011002905D0FFF738F9BDE810400F
:1013000000F07AB810BD0000004400402DE9F04123
:10131000EFF3108672B6314D4FF4800068604010D4
:10132000686040106860C00068602D4C2046FFF780
:1013300023F92046FFF71AF96FF0200020606FF0C4
:10134000400020606FF4807020606FF400702060B7
:10135000244F062128463A68FEF7E8FF4FF48078CC
:10136000424606212846FEF7C5FF06212846FEF71D
:1013700069FF06212846FEF771FFE06840F0100083
:10138000E060606940F04000606106212846FEF799
:101390004DFFE06840F40050E06006212846FEF76B
:1013A0007FFF0028F9D086F310880F4838604FF48B
:1013B000007100F52670FFF71EFC386141460B48AE
:1013C000FFF719FC0024B860FC7780210848FFF77C
:1013D00012FCF86007484480BDE8F081000002403C
:1013E000004400405C000020540600205407002008
:1013F000600800200800002070B506211148FEF7A3
:1014000045FF114EC0F5807084B270880F4D844244
:1014100011D005D9A4EB00012A6889B2104408E074
:10142000C0F580712A6889B21044FFF78FFB21460E
:101430002868FFF78BFBB4F5807F00D1002474800F
:1014400070BD000000000240080000205C00002089
:101450002DE9F04107460E0012D0EFF3108472B66A
:101460000F4D6869FFF7D4FB69690889CA88801A3B
:1014700080B2B04206D284F310880320BDE8F08128
:101480000020FBE732463846FFF778FB10B9A88BFF
:10149000801BA88384F31088FFF7CCFAF0E70000E4
:1014A0005C0000202DE9F0410E460746002510E0C3
:1014B000701B84B2802C00D98024204600F066F88E
:1014C0000028FAD021463846FFF7C2FF281985B216
:1014D0002744B542ECD3BDE8F08100002DE9F0418E
:1014E00080212148FFF787FB204D686105F69C208D
:1014F00068608020A883EFF3108672B61C4C4FF012
:10150000806060604010606040106060C00060609B
:1015100007212046FEF7A2FE07212046FEF7AAFE7D
:10152000144F786940F0800078610022072120463E
:10153000FEF7E0FE072120466A68FEF7F7FE072166
:101540002046FEF773FE07212046FEF7A9FE00287D
:10155000F9D0F86840F40050F8600020A87786F3CE
:101560001088BDE8F0810000380B00205C000020EE
:10157000000002400044004010B50446FFF788FC1C
:1015800001462046BDE81040FFF78CBF0349898B18
:10159000814201D301207047002070475C00002089
:1015A00010B5104C03212046FEF784FE38B12068A8
:1015B000C0F3802018B12015606000F049F80321C5
:1015C0002046FEF781FE00280BD02068C0F34020A3
:1015D000002806D04FF400706060BDE8104000F0B5
:1015E00037B810BD0000024010B50C4C0221204657
:1015F000FEF76AFE50B12068C0F3401030B12020E1
:101600006060074900208877FFF754FA2068C0F32C
:10161000C010002801D08020606010BD0000024092
:10162000A0000020094810B5C168C1F300110029CD
:101630000AD00168C1F30011002905D0FEF796FF1A
:10164000BDE8104000F004B810BD000000480040A4
:1016500070B503211148FEF719FE114EC0F58070D8
:1016600084B2B0880F4D844211D005D9A4EB00019B
:101670002A6889B2104408E0C0F580712A6889B2EE
:101680001044FFF76FFA21462868FFF76BFAB4F5AC
:10169000807F00D10024B48070BD000000000240B3
:1016A00008000020A000002018B1042803D0FFF794
:1016B00021BBFFF72FBBFFF737BB0000081C3044EE
:1016C000586C800000000000963007772C610EEE09
:1016D000BA51099919C46D078FF46A7035A563E989
:1016E000A395649E3288DB0EA4B8DC791EE9D5E0B0
:1016F00088D9D2972B4CB609BD7CB17E072DB8E7AF
:10170000911DBF906410B71DF220B06A4871B9F303
:10171000DE41BE847DD4DA1AEBE4DD6D51B5D4F43C
:10172000C785D38356986C13C0A86B647AF962FDA1
:10173000ECC9658A4F5C0114D96C0663633D0FFAEE
:10174000F50D088DC8206E3B5E10694CE44160D5F4
:10175000727167A2D1E4033C47D4044BFD850DD2DE
:101760006BB50AA5FAA8B5356C98B242D6C9BBDBF1
:1017700040F9BCACE36CD832755CDF45CF0DD6DCEC
:10178000593DD1ABAC30D9263A00DE518051D7C893
:101790001661D0BFB5F4B42123C4B3569995BACF1E
:1017A0000FA5BDB89EB802280888055FB2D90CC63F
:1017B00024E90BB1877C6F2F114C6858AB1D61C1B8
:1017C0003D2D66B69041DC760671DB01BC20D298D7
:1017D0002A10D5EF8985B1711FB5B606A5E4BF9F64
:1017E00033D4B8E8A2C9077834F9000F8EA8099657
:1017F00018980EE1BB0D6A7F2D3D6D08976C6491C2
:10180000015C63E6F4516B6B62616C1CD8306585DA
:101810004E0062F2ED95066C7BA5011BC1F40882B7
:1018200057C40FF5C6D9B06550E9B712EAB8BE8BF8
:101830007C88B9FCDF1DDD62492DDA15F37CD38C81
:10184000654CD4FB5861B24DCE51B53A7400BCA37F
:10185000E230BBD441A5DF4AD795D83D6DC4D1A4B1
:10186000FBF4D6D36AE96943FCD96E34468867AD88
:10187000D0B860DA732D0444E51D03335F4C0AAA27
:10188000C97C0DDD3C710550AA41022710100BBE2A
:1018900086200CC925B56857B3856F2009D466B971
:1018A0009FE461CE0EF9DE5E98C9D9292298D0B0A6
:1018B000B4A8D7C7173DB359810DB42E3B5CBDB753
:1018C000AD6CBAC02083B8EDB6B3BF9A0CE2B603D4
:1018D0009AD2B1743947D5EAAF77D29D1526DB0489
:1018E0008316DC73120B63E3843B64943E6A6D0DD4
:1018F000A85A6A7A0BCF0EE49DFF099327AE000A1F
:10190000B19E077D44930FF0D2A3088768F2011EB1
:10191000FEC206695D5762F7CB67658071366C1948
:10192000E7066B6E761BD4FEE02BD3895A7ADA1069
:10193000CC4ADD676FDFB9F9F9EFBE8E43BEB7174A
:10194000D58EB060E8A3D6D67E93D1A1C4C2D838D4
:1019500052F2DF4FF167BBD16757BCA6DD06B53F3A
:101960004B36B248DA2B0DD84C1B0AAFF64A033679
:10197000607A0441C3EF60DF55DF67A8EF8E6E31F8
:1019800079BE69468CB361CB1A8366BCA0D26F2541
:1019900036E2685295770CCC03470BBBB91602228E
:1019A0002F260555BE3BBAC5280BBDB2925AB42BA3
:1019B000046AB35CA7FFD7C231CFD0B58B9ED92CB8
:1019C0001DAEDE5BB0C2649B26F263EC9CA36A751D
:1019D0000A936D02A906099C3F360EEB85670772D4
:1019E00013570005824ABF95147AB8E2AE2BB17B3B
:1019F000381BB60C9B8ED2920DBED5E5B7EFDC7CC2
:101A000021DFDB0BD4D2D38642E2D4F1F8B3DD6818
:101A10006E83DA1FCD16BE815B26B9F6E177B06F13
:101A20007747B718E65A0888706A0FFFCA3B066600
:101A30005C0B0111FF9E658F69AE62F8D3FF6B618D
:101A400045CF6C1678E20AA0EED20DD75483044E2F
:101A5000C2B30339612667A7F71660D04D476949BD
:101A6000DB776E3E4A6AD1AEDC5AD6D9660BDF40D0
:101A7000F03BD83753AEBCA9C59EBBDE7FCFB24783
:101A8000E9FFB5301CF2BDBD8AC2BACA3093B35368
:101A9000A6A3B4240536D0BA9306D7CD2957DE5471
:101AA000BF67D9232E7A66B3B84A61C4021B685D4A
:101AB000942B6F2A37BE0BB4A18E0CC31BDF055AC3
:101AC0008DEF022D00000000000000000102030461
:101AD000060708090000000001020304FC1A0008C0
:101AE000000000201800000096090008141B0008E0
:101AF0001800002020150000A609000800000000C2
:101B000000000000000000000000000000000000D5
:041B10000024F400B9
:04000005080000ED02
:00000001FF
