:020000040800F2
:10000000180B002001010008B70A0008DF050008EE
:10001000B50A0008C9050008810D000800000000AD
:10002000000000000000000000000000410C00087B
:10003000DD05000800000000890B0008430C0008E3
:100040001B0100081B0100081B0100081B01000820
:100050001B0100081B0100081B0100081B01000810
:100060001B0100081B0100081B0100081B01000800
:10007000CB050008CF050008D3050008D705000808
:10008000D9050008DB0500081B0100081B0100085A
:100090001B0100081B0100081B0100081B010008D0
:1000A0001B0100081B0100081B0100081B010008C0
:1000B000310D00081B0100081B0100081B0100088E
:1000C0001B0100081B0100081B0100081B010008A0
:1000D0001B010008790D00087B0D00087D0D00084C
:1000E0001B0100081B0100081B010008DFF80CD0F1
:1000F00000F058FA00480047C9150008180B002006
:100100000648804706480047FEE7FEE7FEE7FEE7B1
:10011000FEE7FEE7FEE7FEE7FEE7FEE7E90C000884
:10012000ED0000082DE9F05F0546002092469B4651
:1001300088460646814640241BE0284641464746FD
:10014000224600F0B0F953465A46C01A914110D3E6
:1001500011461846224600F097F92D1A67EB010860
:100160004F4622460120002100F08EF917EB0009CE
:100170004E41201EA4F10104DFDC484631462A46E8
:100180004346BDE8F09FD2B201E000F8012B491EC2
:10019000FBD270470022F6E710B513460A46044624
:1001A0001946FFF7F0FF204610BD2DE9FE4F8046AF
:1001B00081EA0300C00F0C46009021F0004123F0BB
:1001C0000045B8EB0200A94105D2404621469046C1
:1001D0001C460B46024623F00040104347D0270D33
:1001E000C7F30A00C3F30A510290401A0190402855
:1001F0006BDAC3F3130040F4801B0098924620B1E1
:100200000023D2EB030A63EB0B0B01985946C0F1B4
:100210004002504600F038F906460D465046594611
:10022000019A00F050F910EB08006141002487EAC0
:10023000115284EAE7731A4340D0009A62B3019ADC
:10024000012A4FEA075215DC001B61EB02014FF057
:10025000004202EA0752CDE90042001C41F580113C
:1002600032462B4600F050F903B0BDE8F08F40460F
:100270002146F9E7001B61EB0201001C41F58013E8
:1002800000185B412018A2F5001747EB030140EA74
:10029000D570B6196D4111E06D084FEA360645EA92
:1002A000C0754FEA0752001B61EB0201001C41F5CB
:1002B000801149084FEA30000019514132462B465F
:1002C00003B0BDE8F04F00F010B9009801224000E3
:1002D0000023D0EB020263EBE073009821464FEA63
:1002E000E074B8EB000061EB0401E9E783F0004340
:1002F0005BE781F0004158E72DE9FE4F81EA0304F6
:1003000004F0004421F0004100944FF0000B23F072
:10031000004350EA01045ED052EA03045BD0C3F309
:100320000A54C1F30A552C44A4F2F3340194A0FBFF
:100330000254C1F3130141F48011C3F3130343F4D6
:10034000801301FB024400FB034E840A970A44EA2F
:10035000815447EA8357A4FB076802958D0A05FB81
:1003600007854FEA932C04FB0C542705029D4FEAA6
:10037000065847EA1637B5EB08056EEB070C870EF3
:10038000920E47EA811742EA8312A7FB0201B6EBFD
:100390000B0164EB00042B0D43EA0C335E1844EBB5
:1003A0001C50DA465146E7FB0201C5F313044FEA3D
:1003B0000B3343EA14534FEA0432019C43EA060329
:1003C000A4F10C040294009CCDE900B400F09CF868
:1003D00003B0BDE8F08F00200146F9E70EB540F20A
:1003E000334102910021CDE900110A460B4600F08D
:1003F0008BF803B000BDC1F30A5210B5C1F313016D
:1004000040F2FF3341F480119A4201DA002010BD1E
:1004100040F233439A42A2F2334203DC524200F0EC
:1004200042F810BD904010BD30B5041E71F10004BB
:1004300004DB4FF00044404264EB0101141E73F1F1
:10044000000405DB1C464FF00043524263EB0403FB
:100450008B4208BF824230BD30B5041E71F10004EA
:1004600004DB4FF00044404264EB0101141E73F1C1
:10047000000405DB1C464FF00043524263EB0403CB
:10048000994208BF904230BD202A04DB203A00FA8E
:1004900002F1002070479140C2F1200320FA03F3DB
:1004A000194390407047202A04DB203A21FA02F0D9
:1004B0000021704721FA02F3D040C2F1200291409E
:1004C000084319467047202A06DBCB17203A41FA29
:1004D00002F043EAE07306E041FA02F3D040C2F1D1
:1004E0002002914008431946704710B5141E73F15D
:1004F000000408DA401C41F1000192185B411A43E4
:1005000001D120F0010010BD2DE9F04D92469B462F
:1005100011B1B1FA81F202E0B0FA80F220329046D5
:10052000FFF7B2FF04460F4640EA0A0041EA0B011A
:1005300053465A46084313D0114653EA010019D0D6
:10054000C8F140025046FFF7AEFF05460E46504642
:1005500059464246FFF798FF084305D0012004E0C2
:1005600020463946BDE8F08D0020054346EAE07696
:100570002C4337430A986305E40AA0EB08000022E5
:10058000FD0A44EA47540A3002D500200146E9E753
:10059000010510196941DDE9084500196941BDE807
:1005A000F04DA2E7064C074D06E0E06840F001037D
:1005B00094E8070098471034AC42F6D3FFF79AFD51
:1005C0005827000878270008FEE701F0D9BA01F0A3
:1005D000AFBA01F031B97047704770477047FEE716
:1005E0000248C16881F40051C160704700100140A9
:1005F000044908B54A6902434A61496901400091CA
:1006000008BD000000100240044908B5CA69024351
:10061000CA61C9690140009108BD00000010024094
:10062000044908B58A6902438A61896901400091D9
:1006300008BD000000100240044908B58A69024361
:100640008A6189690140009108BD000000100240E4
:10065000044A114411F8011C425822F00102425090
:1006600070470000E8220008044A114411F8011CF8
:10067000425842F00102425070470000E822000850
:10068000044A114411F8011C425842F0020242503F
:1006900070470000E8220008044A114411F8011CC8
:1006A000425842F00802425070470000E822000819
:1006B000034A114411F8011C405800F00100704732
:1006C000E8220008034A114411F8011C4058C0F305
:1006D00040007047E8220008044B194411F8011C3F
:1006E000435823F44053134343507047E822000813
:1006F000054B001D194411F8011C0B586FF30F0333
:1007000013430B5070470000E8220008054B10B55A
:10071000194411F8011C435844F21004A343134335
:10072000435010BDE8220008034B0C30194411F867
:10073000011C0A5070470000E8220008044B1944CD
:1007400011F8011C435823F08003134343507047B2
:10075000E8220008044B194411F8011C435823F403
:100760004063134343507047E8220008044B194488
:1007700011F8011C435823F02003134343507047E2
:10078000E8220008044B194411F8011C435823F0D7
:100790004003134343507047E8220008044B1944B8
:1007A00011F8011C435823F440731343435070471E
:1007B000E8220008F0B50A68C2F30F2595FAA5F201
:1007C000B2FA82F369E001229A402A4264D0082BEF
:1007D00003D240F201129A4006E0A3F108024FF062
:1007E0000114944044F0806292FAA2F700EB126484
:1007F000B7FA87F74FEA870C0F27266807FA0CF736
:10080000BE4392FAA2F7D1F804E0B7FA87F7BF0027
:100810000EFA07FE46EA0E0626600E69C7684FEA22
:10082000122C9CFAACFCBCFA8CFC27EA122706FAC4
:100830000CF63743C7604E68012E01D0092E2BD12C
:1008400092FAA2F7B7FA87F74FEA870C032707FA5D
:100850000CF72668D1F808E0BE4392FAA2F7B7FA7F
:1008600087F7BF000EFA07FE92FAA2FC46EA0E06D0
:10087000BCFA8CFC4FEA8C0E4FF0040C26600CFA8C
:100880000EFC92FAA2F2B2FA82F2CF68920026EA45
:100890000C0697403E4326605B1C35FA03F292D16A
:1008A0000020F0BD4FF47A71B0FBF1F14FF0E02081
:1008B000491E41610021816105210161704700B538
:1008C000034600F08DF9186000F060F9586000F000
:1008D0006BF99860586800F075F9D86000BD0000A9
:1008E000014908607047000040000020F0B5026830
:1008F000154B164C164D4FF08046984205D0B0422D
:1009000003D0A04201D0A84203D14F6822F0700268
:100910003A43984205D0B04203D0A04201D0A84249
:1009200003D1CC6822F44072224302608A68C2621A
:100930000A888262984201D1097C0163416941F0D1
:10094000010141610020F0BD002C01400004004085
:10095000000800402DE9FF410446C0680D4601260D
:10096000C0F34030F0BBE9686868E2680843296971
:1009700041F20C639A4311430843E060A86821697F
:1009800021F44051014321616869616921F440719A
:10099000014361616846FFF792FF2448844201D118
:1009A000039806E02248844202D02248844238D18B
:1009B0000298B8B12A68AAB100EBC00101EB00119E
:1009C0009200B1FBF2F36420B3FBF0F3B1FBF2F55C
:1009D0006FF018077B43002605EB8305322303EBFA
:1009E000051500E01DE0B1FBF2F7B5FBF0F5B7FB34
:1009F000F0F705F0F00505EB0715B1FBF2F7B1FBD9
:100A0000F2F1B1FBF0F16FF01802514307EB8101F5
:100A100003EB0111B1FBF0F000F00F00284480B2AD
:100A2000A06004B03046BDE8F0810000003801400D
:100A3000004400400048004010B586B014216846CC
:100A4000FFF7A8FB0120FFF7DFFD1948006800222F
:100A5000C0F30220114600F055F801461C2000F0BA
:100A600083F84FF0E0224FF080510020C2F80011CF
:100A70002321ADF800103121CDE901014FF0804470
:100A8000039069462046FFF731FF206820F0800080
:100A90002060A06844F207018843A060606820F0ED
:100AA00070006060A06820F08000A06006B010BDFB
:100AB0000CED00E0FEE77047002809DB00F01F02A4
:100AC000012191404009800000F1E020C0F80011B0
:100AD000704730B500F00703C3F10704042C00D9B8
:100AE0000424181D072801D2002300E0DB1E012585
:100AF00005FA04F0401E084098409D406D1E1540C8
:100B0000284330BD30B500F00703C3F10704042CBF
:100B100000D90424181D072801D2002300E0DB1EA1
:100B2000012505FA04F0401E084098409D406D1EC6
:100B30001540284330BD000002480068C0F3022081
:100B4000704700000CED00E00907090E002804DBE7
:100B500000F1E02080F80014704700F00F0000F171
:100B6000E02080F8141D70470907090E002804DBF7
:100B700000F1E02080F80014704700F00F0000F151
:100B8000E02080F8141D7047704700000449496850
:100B9000044A01F0F0010909515CC84070470000A7
:100BA00000100240F026000804494968044A01F494
:100BB000E06102EB11210978C84070470010024043
:100BC0000027000804494968044A01F4605102EB17
:100BD000D1210978C8407047001002400027000862
:100BE0000648406810F00C01054805D0042903D0E0
:100BF000082901D100F006B870470000001002403B
:100C000000127A000B48416811F480320A4909D079
:100C1000B2F5803F06D14168084AC1F34041491C02
:100C2000B2FBF1F14068022200F4701002EB904038
:100C3000484370470010024000093D0000127A004E
:100C400070477047254810B5016821F0070141F051
:100C50000201016000682248016841F480310160AE
:100C60000168C1F340410029FAD0416821F47C11A8
:100C700041F4E8114160016841F080710160016850
:100C8000C1F340610029FAD0416821F0F0014160D0
:100C9000416821F4E06141F480614160416821F4E0
:100CA000605141F400514160416821F0030141F07D
:100CB00002014160416801F00C010829FAD1094C98
:100CC0002046FFF7EFFD4FF0E021086940F00400F7
:100CD00008612046BDE81040FFF702BE0020024038
:100CE0000010024000A24A040D48016841F00101D1
:100CF000016041680B4A1140416001680A4A114095
:100D00000160016821F480210160416821F4FE0145
:100D100041604FF41F0181600449C00308607047BF
:100D2000001002400000FFF8FFFFF6FE08ED00E0B3
:100D300010B54FF08044206910F0010F14D00B481B
:100D400001684268491C42F10002016042600849A2
:100D5000097821B901684068064A1160506000F0C6
:100D600021FC6FF00100206110BD00003800002060
:100D700018000020200000207047704701F080B864
:100D8000FEE70000044AB2EB410F00D108B1002099
:100D900070470120704700000000E0FF00B1012013
:100DA000014321F000400249081AC00F70470000BB
:100DB0000000F07F02E008C8121F08C1002AFAD123
:100DC00070477047002001E001C1121F002AFBD1CB
:100DD0007047000010B5084B0446586828B94FF416
:100DE0008071064800F034FA5860214600F000FA9D
:100DF000BDE8104000F0AEB900000020E000002087
:100E000010B50E4C0346606828B94FF480710C4849
:100E100000F01EFA6060D3E901010A1AFF2A01D925
:100E2000FF2201E0002A07D01968606800F0C8F9C5
:100E3000BDE8104000F08EB910BD00000000002099
:100E4000E00000200FB4094B10B5586828B94FF4E2
:100E50008071074800F0FCF9586003AA029900F07D
:100E600075FC00F077F910BC5DF814FB0000002061
:100E7000E00000201CB5002001F02CFA00F0FEFC80
:100E800000F0C6FE384C00F025FB054637A0FFF702
:100E9000A1FF204601F026F9009000F01BFB411B4A
:100EA0003AA0FFF7CFFF00F015FB054641A0FFF782
:100EB00091FF204601F0DEF9CDE9000100F00AFBC8
:100EC000411B32A0FFF7BEFF00F004FB054641A026
:100ED000FFF780FF204601F0F5F8009000F0FAFAE5
:100EE000411B2AA0FFF7AEFF00F0F4FA054641A02F
:100EF000FFF770FF204601F09BF9CDE9000100F0FB
:100F0000E9FA411B21A0FFF79DFF00F0E3FA054637
:100F100040A0FFF75FFF204601F0BCF8009000F012
:100F2000D9FA411B19A0FFF78DFF00F0D3FA05464F
:100F300040A0FFF74FFF204601F046F9CDE9000140
:100F400000F0C8FA411B11A0FFF77CFF002001F060
:100F5000C1F9012000F0F2F900F032FE00F0BAFA17
:100F600000F000FAF5E70000A086010075696E74D4
:100F700033325F6D6F645F706572665F7465737442
:100F800020626567696E2E2E2E0A00005465737408
:100F900020636F6D706C65746520696E2025642018
:100FA0006D696C6C697365636F6E642873292E209C
:100FB0000A00000075696E7436345F6D6F645F708F
:100FC0006572665F7465737420626567696E2E2E44
:100FD0002E0A000075696E7433325F696E635F704C
:100FE0006572665F7465737420626567696E2E2E24
:100FF0002E0A000075696E7436345F696E635F7027
:101000006572665F7465737420626567696E2E2E03
:101010002E0A000075696E7433325F6469765F7002
:101020006572665F7465737420626567696E2E2EE3
:101030002E0A000075696E7436345F6469765F70DD
:101040006572665F7465737420626567696E2E2EC3
:101050002E0A00002DE9F0411C4C94F820000028D5
:1010600032D1EFF3108572B60421194E3046FFF7E6
:10107000EFFA4FF480407060401070604010706074
:10108000C00070606069D0E90112571A1AD0402F71
:1010900000D940273A46616800F0F8F8E069384422
:1010A000E0613A4604213046FFF722FB0421304636
:1010B0006268FFF739FB012084F8200004213046E4
:1010C000FFF7D2FA85F31088BDE8F08150000020C8
:1010D000000002402DE9F0411C4C94F8200000284B
:1010E00031D1EFF3108572B60221194E3046FFF769
:1010F000AFFA402070602020706010207060802067
:1011000070606069D0E90112571A1AD0402F00D9D7
:1011100040273A46616800F0B9F8E0693844E06178
:101120003A4602213046FFF7E3FA02213046626870
:10113000FFF7FAFA012084F8200002213046FFF779
:1011400093FA85F31088BDE8F08100009800002034
:101150000000024010B5044C606800F084FC606838
:10116000BDE8104000F0A3B8000000200A46054981
:1011700091F8213023B1CB680146184600F020B821
:101180008B68F9E7980000200A46A0F10A010629B9
:1011900010D2DFE801F0030507090B0D41210BE038
:1011A000422109E0432107E0442105E0452103E015
:1011B000462101E03030C1B2104600F09BB800007B
:1011C00030B59AB1D0E902431B1B934201D20320F0
:1011D00030BD056822442B198260A81804E000BFC6
:1011E00011F8012B03F8012B8342F9D1002030BD07
:1011F00070B505460C46084600F09DFA02462146A9
:101200002846BDE87040FFF7DBBFF0B5426842B149
:1012100081684FF000048B1A0ED001688D18CE182B
:1012200005E00020F0BD15F8017B01F8017BB1421B
:10123000F9D1C0E9014301E0846044601046F0BD8B
:10124000D0E90110814201D1012070470020704790
:10125000C16000F110020021C0E9002181607047E7
:1012600010B4426832B183689A4206D100214160CD
:10127000816009E0002010BC7047C468E31A8B420B
:1012800002D210BCFFF7C1BF1046F4E730B5002A08
:101290000CD0D0E9005422442B194260A81803E076
:1012A00013F8012B01F8012B8342F9D130BD002145
:1012B00041608160704770B5D0E90152D1E90243C5
:1012C000521B1B1B9A4200D91A46002A11D00368F0
:1012D0002B440D682C449D1803E013F8016B04F8AF
:1012E000016BAB42F9D143681344436088681044F2
:1012F000886070BD10B5D0E902239A4205D2531C14
:10130000046883600020A15410BD032010BD0000BC
:1013100070B504460D46000909D0FFF735FF00BF40
:1013200004F00F002946BDE87040FFF72DBF002AEA
:10133000F6D030212846FFF7DDFFF1E730B504464F
:1013400000F0C8F8051941F1000400BF00F0C2F830
:10135000401BA141FAD330BD0149C860704700006D
:1013600000070020704770472DE9F0471F46140022
:1013700005460E4607D0082C00D90824FFF70EFDBD
:1013800018B14AA11DE00124F8E728463146FFF7CD
:10139000F9FC08B146A114E0002213462846314664
:1013A000FFF742F805D286F000462D213846FFF7B8
:1013B000A1FF424A424B28463146FFF74DF805D27D
:1013C00040A13846BDE8F047FFF712BF2846314636
:1013D000FFF711F88146FFF701F82A463346FEF77A
:1013E00088FF06460125204605E000BF05EB850283
:1013F0005500401EC0B20028F8D10022334B3046C1
:10140000FEF7D3FE064688462846FEF7E7FF32463B
:101410004346FEF771FF06468846FEF7ECFF054699
:10142000FEF7DCFF43463246FEF763FF0022284BFF
:10143000FFF712F804D86D1C012C01D109F1010944
:101440003946484600F096FE2E213846FFF752FFF7
:101450003946284600F08EFE0DB100200FE03846D8
:10146000BDE8F0473021FFF745BFB9683A68091B6E
:101470000B18D35C0A44411E401C5354C0B2A04216
:10148000F3D3BA680021521E0120BA6008E03B681D
:10149000151A5B5D302B01D1491CC9B2401CC0B28A
:1014A000A042F4D3501AB860BDE8F0874E414E0018
:1014B000696E66696E697479000000000000E0FFE3
:1014C000FFFFEF416C617267650000000000F03FB4
:1014D0000000E03F70B5104A012010709068D1689C
:1014E0009169401A516800EB01039068D168C2E924
:1014F00006014FF0000111704FF02804B3FBF4F027
:10150000D2E904564019B3FBF4F5714104FB1533DD
:10151000C2E90401536070BD1800002070B50D468B
:10152000040005D52D212846FFF7E4FEE443641CA2
:1015300029462046BDE8704000F01CBE66280BD04E
:1015400004DC252808D0642804D105E0732803D0E2
:10155000782801D0002070470120704705480021FD
:10156000017244F62061016003494FF40050486164
:101570007047000044000020001001400348012192
:10158000017244F6206101607047000044000020B1
:101590000348012101724FF4FA61016070470000B5
:1015A0004400002007484168491C416041680268C6
:1015B000914206D100214160007A002801D0FFF756
:1015C0000FB870474400002086B00120FFF734F8C0
:1015D0004FF08050FFF718F8304801684FF6FF02CF
:1015E00011402F4A41F4407111430160006800220C
:1015F000C0F302200A21FFF785FA01464FF0FF30C1
:10160000FFF7B2FA2748416821F0E0614160416884
:1016100041F000714160FFF715FB14216846FEF7A9
:10162000B9FD1020FFF708F82020FFF705F8042087
:10163000FFF702F80820FEF7FFFF1C481A494FF495
:1016400000520261009101210324CDE9011400221E
:10165000CDE903216946FFF7ADF8FFF7EDF9032364
:101660004FF4E1351A4612492846009400F008F973
:1016700003231A460F492846009400F0D1FA0E4879
:10168000FFF76AFE6805016841F001010160C16869
:1016900041F00101C160FFF7EDFB00000CED00E03F
:1016A0000000FA0500000140200020040010014065
:1016B00009180008671300080D1800082DE9F04705
:1016C00015460E4607460024A1F10109A1F1020AC0
:1016D0002DE0385D252829D14C452AD007EB040898
:1016E00098F80100303809280FD8544521D098F8CF
:1016F0000200FFF723FFC8B138198078287098F8E6
:1017000001003038687203200BE038194078FFF789
:1017100015FF002808D098F8010028700020687292
:101720000220287201206C60BDE8F087641CB4427E
:10173000CFD30020F8E701464FF4806200200B5C15
:10174000002B02D0401C9042F9D370472DE9FE4F88
:10175000824690460F464FF000090846FFF7EBFF20
:101760000646002441E029465046019AFFF728FD2D
:101770009DF80000662810D004DC252829D06428B4
:101780002BD104E073281ED0782826D113E058F816
:10179000040B5146FFF7C2FE1FE008F1070020F0DE
:1017A00007009DF80920F0E802518046534628467C
:1017B000FFF7DAFD11E058F8040B9DF809205146B7
:1017C00000F0A8FC09E058F8041B5046FFF710FD94
:1017D00003E025215046FFF78DFD9DF80810019884
:1017E00008442044B04208D804463819311B054645
:1017F0006A46FFF763FF0028B5D139195046FFF755
:10180000F7FC4846BDE8FE8F7047000010B50C4657
:10181000014604A0FFF716FB2046BDE81040FFF785
:10182000EFBA000043482825642920726563656982
:101830007665643A200A000010B50E4C042120465B
:10184000FEF740FF60B12068C0F3403040B14FF474
:10185000005060600849002081F82000FFF7FAFB83
:101860002068C0F3C030002802D04FF40040606010
:1018700010BD0000000002405000002000F000B940
:10188000F0B585B004461D4616464FF480400A9FC9
:10189000FEF7C6FE0120FEF7ABFE0420FEF7C0FEF9
:1018A0000CB94FF4E1342046484C8021606284F842
:1018B000286084F8295084F82A7004F12C06002549
:1018C00004F5F0700C343561FFF7C2FCA06004F53C
:1018D000CA7044F8080C8020206125753C48E560FA
:1018E0000090092001900320CDE902050120049019
:1018F00069463848FEF75EFF374F1022042138460C
:10190000FEF704FF002204213846FEF7E5FE002220
:1019100004213846FEF72AFF002204213846FEF74C
:1019200031FF802204213846FEF708FF00220421FF
:101930003846FEF733FF002204213846FEF70AFF3F
:101940002749254A2548C9780832885054F8082C78
:1019500004213846FEF7E8FE002204213846FEF74F
:10196000C7FEFFF7E9F8617F0022FFF7B2F80146F2
:101970000E20FFF7E9F80E20FFF79EF83069314698
:1019800040F008003061A069C6E90005B560F56067
:101990007561124D2D1F2846FEF7DCFF286920F4E3
:1019A00090402861686920F02A006861FFF7C4F858
:1019B000A17F0022FFF78DF801462520FFF7C4F82C
:1019C0002520FFF779F805B0F0BD00005000002099
:1019D00002000204000801400000024004380140F7
:1019E000E82200082DE9F04107460E0011D0EFF380
:1019F000108472B60E4D6869FFF732FC6869D0E951
:101A00000221891AB14206D284F310880320BDE86E
:101A1000F0810020FBE732463946FFF7D1FB10B9D1
:101A2000E869801BE86184F31088FFF713FBF0E797
:101A3000500000202DE9F0410E46074600250EE03B
:101A4000741B802C00D98024204600F067F8002801
:101A5000FAD021463846FFF7C5FF25442744B54252
:101A6000EED3BDE8F08170B50446D4E901010D1A4A
:101A700029462068FFF7DEFF60682844606070BD7B
:101A80002DE9F04180212148FFF7E2FB204D6861FC
:101A900005F5D07068608020E861EFF3108672B6BB
:101AA0001C4C4FF4804060604010606040106060EB
:101AB000C000606004212046FEF7E2FD04212046BC
:101AC000FEF7EAFD144F786940F08000786100224B
:101AD00004212046FEF70CFE042120466A68FEF72A
:101AE00023FE04212046FEF7BFFD04212046FEF719
:101AF000DFFD0028F9D0F86840F40050F8600020BD
:101B000085F8200086F31088BDE8F08130020020BF
:101B10005000002000000240003801400349C9691C
:101B2000814201D3012070470020704750000020FF
:101B300010B51248104C80782058C0F3800038B19E
:101B40002068C0F3802018B12015606000F02EFAE4
:101B500003212046FEF7B6FD00280BD02068C0F315
:101B60004020002806D04FF400706060BDE81040AF
:101B700000F01CBA10BD000000000240E82200087E
:101B800010B50D4C02212046FEF79CFD58B120688F
:101B9000C0F3401038B1202060600849002081F86F
:101BA0002000FFF797FA2068C0F3C010002801D08A
:101BB0008020606010BD00000000024098000020FE
:101BC00010B5124C012084F821002169A068FFF7AC
:101BD00072FBA068FFF719FB002084F82100D4E90C
:101BE0000301FFF768FBE068FFF70FFB2069FFF7D1
:101BF00027FB002808D1A16909B12069884720691D
:101C0000BDE81040FFF753BB10BD00009800002056
:101C100010B500F0F3F9BDE8104000F049B900003C
:101C20002DE9FF4F05468D4887B01E46DDF85080F0
:101C3000C169174641F48021C161C06900F4802068
:101C400005900120FEF7D4FC0820FEF7E9FC0DB951
:101C50004FF4E135824C802104F5BB60656284F865
:101C6000287084F8296084F82A8004F12C06002565
:101C70000C343561FFF7ECFAA06004F28C5044F8A4
:101C8000080C8020206125757648E56000900920C9
:101C90000327CDE901074FF00108DFF8CCB1CDE90A
:101CA000035869465846FEF785FD102202216F4809
:101CB000FEF72CFD002202216C48FEF70DFD0022EC
:101CC00002216A48FEF752FD002202216748FEF712
:101CD00059FD802202216548FEF730FD00220221D5
:101CE0006248FEF75BFD002202216048FEF732FDEC
:101CF0006049DFF878A1DFF878914A780AF1080A9C
:101D000042F80A9054F8082C02215848FEF70CFDBE
:101D1000002202215548FEF7EBFCFEF70DFF617F24
:101D20000022FEF7D6FE01460C20FEF70DFF0C2028
:101D3000FEF7C2FE30694FF4007140F008003061D8
:101D400004F5077044F80C0C00F5B070FFF780FA4A
:101D50006060802104F52770FFF77AFA44F8040CDC
:101D60006575402104F54B70FFF772FA2060424818
:101D7000694685600898E060404800900420CDE9FD
:101D80000107CDE903585846FEF714FD0022032150
:101D90003648FEF7BBFC002203213448FEF79CFCCA
:101DA000202203213148FEF7E1FC002203212F48C5
:101DB000FEF7E8FC802203212C48FEF7BFFC00223E
:101DC00003212A48FEF7EAFC002203212748FEF7F8
:101DD000C1FC28498A7842F80A9054F80C2C032157
:101DE0002248FEF7A1FC802203212048FEF780FC58
:101DF000FEF7A2FE217F0022FEF76BFE01460D20BA
:101E0000FEF7A2FE0D20FEF757FE3069314640F086
:101E100004003061A069C6E90005B560F560756130
:101E2000A9F104052846FEF795FD286920F49040A5
:101E30002861686920F02A006861FEF77DFEA17FB5
:101E40000022FEF746FE01462720FEF77DFE2720F2
:101E5000FEF732FE0BB0BDE8F08F0000001002402C
:101E60009800002004000404000C0140000002401F
:101E700004480040E8220008000000200800080490
:101E80000A4882B0C168C1F3001100290BD0016873
:101E9000C1F30011002906D001680091406800904C
:101EA00002B000F083B802B0704700000048004064
:101EB0002DE9F843EFF3108672B6354D4FF480608C
:101EC00068604FF40078C5F8048080106860C00036
:101ED0006860304C20680090606800902068009036
:101EE000606800906FF0200020606FF0400020607C
:101EF0006FF4807020606FF400702060264F032123
:101F000028463A68FEF710FC802203212846FEF797
:101F1000EFFB2249C81C8978695810F8010C41F080
:101F20000401295003212846FEF7AAFBE06840F08F
:101F30001000E060606940F04000606103212846C5
:101F4000FEF792FBE06840F40050E0600321284671
:101F5000FEF7AEFB0028F9D086F3108810483860F1
:101F6000414600F5B070FFF773F938610C488021E5
:101F70008030FFF76DF90023B86087F821304021E9
:101F80000848FFF765F9F86007488360BDE8F88303
:101F9000000002400048004098000020E8220008AD
:101FA000C0020020D00300200000002070B50F48C0
:101FB0000F49807840580F4E0F4D80B2C0F1800419
:101FC000B16828688C4208440BD002D9A4EB010107
:101FD00005E0C1F18001FFF7C9F821462868FFF745
:101FE000C5F8802C00D10024B46070BDE822000840
:101FF0000400024000000020980000202DE9F0417C
:1020000080212048FFF724F91F4D686105F5B36072
:1020100068608020E861EFF3108672B640211B4CA7
:1020200061602021616010216160606002212046B2
:10203000FEF726FB02212046FEF72EFB144F78699F
:1020400040F080007861002202212046FEF750FB1C
:10205000022120466A68FEF767FB02212046FEF750
:1020600003FB02212046FEF723FB0028F9D0F86885
:1020700040F40050F860002085F8200086F31088B6
:10208000BDE8F081700600209800002000000240AA
:102090000048004018B50021009109492822084451
:1020A00040F2572308E000BFB1FBF2F49C4202D19A
:1020B000009C641C0094491C8142F5D3009818BD13
:1020C0004433221108B5002100910549084403E07A
:1020D000009A521C491C00928142F9D3009808BD15
:1020E0004433221108B500210091094928220844EF
:1020F00009E000BFB1FBF2F302FB131313B9009B1D
:102100005B1C0093491C8142F4D3009808BD000079
:1021100044332211F8B50E4688B100216C46605454
:10212000000A491C0429FAD34FF0030592B1605DFF
:1021300001223146FFF7ECF86D1EF8D5F8BD22B14B
:1021400009A13046FFF754F8F8BD30213046FFF7BB
:10215000D1F8F8BD605D18B100223146FFF7D8F81C
:102160006D1EF7D5F8BD00003030303030303030E3
:10217000000000002DE9F047124C8A460546002772
:102180004FF030094FF00A08B5FBF4F63EB106F106
:102190003000C1B25046FFF7ADF8012704E01FB18F
:1021A00049465046FFF7A6F806FB1455B4FBF8F471
:1021B0000A2CE9D23035E9B25046BDE8F047FFF7C6
:1021C00099B8000000CA9A3B2DE9FC470021CDE9EF
:1021D00000110E46134A144987184E414FF0280942
:1021E0004FF0000815460C4613E04A464346284681
:1021F0002146FDF797FF0D4A5040084306D1DDE91F
:102200000001401C41F10001CDE900016D1C44F1C9
:102210000004E81B74EB0600E7D3DDE90001BDE82C
:10222000FC8700008877665544332211768957026F
:102230007CB50021CDE900110C4B0A460C49C318AE
:102240004A410A490A4809E0DDE90045641C45F1B4
:102250000005491C40F10000CDE90045CC1A70EBA7
:102260000204F1D3DDE900017CBD000088776655EA
:10227000443322112DE9FC470021CDE900110E461F
:10228000124A134987184E414FF028094FF00008B1
:1022900015460C4611E04A46434628462146FDF7BE
:1022A00041FF1A4306D1DDE90001401C41F1000164
:1022B000CDE900016D1C44F10004E81B74EB06003D
:1022C000E9D3DDE90001BDE8FC87000088776655A9
:1022D0004433221118B1042803D0FFF73FB9FFF7A8
:1022E0004DB9FFF755B90000081C3044586C800008
:1022F00000000000963007772C610EEEBA51099964
:1023000019C46D078FF46A7035A563E9A395649EBF
:102310003288DB0EA4B8DC791EE9D5E088D9D297E3
:102320002B4CB609BD7CB17E072DB8E7911DBF903F
:102330006410B71DF220B06A4871B9F3DE41BE8463
:102340007DD4DA1AEBE4DD6D51B5D4F4C785D383BF
:1023500056986C13C0A86B647AF962FDECC9658A63
:102360004F5C0114D96C0663633D0FFAF50D088DBF
:10237000C8206E3B5E10694CE44160D5727167A263
:10238000D1E4033C47D4044BFD850DD26BB50AA5BF
:10239000FAA8B5356C98B242D6C9BBDB40F9BCACE3
:1023A000E36CD832755CDF45CF0DD6DC593DD1AB3F
:1023B000AC30D9263A00DE518051D7C81661D0BF63
:1023C000B5F4B42123C4B3569995BACF0FA5BDB8BF
:1023D0009EB802280888055FB2D90CC624E90BB163
:1023E000877C6F2F114C6858AB1D61C13D2D66B6BF
:1023F0009041DC760671DB01BC20D2982A10D5EF23
:102400008985B1711FB5B606A5E4BF9F33D4B8E87E
:10241000A2C9077834F9000F8EA8099618980EE122
:10242000BB0D6A7F2D3D6D08976C6491015C63E67E
:10243000F4516B6B62616C1CD83065854E0062F2A2
:10244000ED95066C7BA5011BC1F4088257C40FF5FE
:10245000C6D9B06550E9B712EAB8BE8B7C88B9FC22
:10246000DF1DDD62492DDA15F37CD38C654CD4FB7E
:102470005861B24DCE51B53A7400BCA3E230BBD422
:1024800041A5DF4AD795D83D6DC4D1A4FBF4D6D37E
:102490006AE96943FCD96E34468867ADD0B860DA22
:1024A000732D0444E51D03335F4C0AAAC97C0DDD7E
:1024B0003C710550AA41022710100BBE86200CC9A2
:1024C00025B56857B3856F2009D466B99FE461CEFE
:1024D0000EF9DE5E98C9D9292298D0B0B4A8D7C722
:1024E000173DB359810DB42E3B5CBDB7AD6CBAC07E
:1024F0002083B8EDB6B3BF9A0CE2B6039AD2B1749A
:102500003947D5EAAF77D29D1526DB048316DC73F5
:10251000120B63E3843B64943E6A6D0DA85A6A7A99
:102520000BCF0EE49DFF099327AE000AB19E077DF5
:1025300044930FF0D2A3088768F2011EFEC2066919
:102540005D5762F7CB67658071366C19E7066B6E75
:10255000761BD4FEE02BD3895A7ADA10CC4ADD6799
:102560006FDFB9F9F9EFBE8E43BEB717D58EB060F5
:10257000E8A3D6D67E93D1A1C4C2D83852F2DF4F99
:10258000F167BBD16757BCA6DD06B53F4B36B248F5
:10259000DA2B0DD84C1B0AAFF64A0336607A044199
:1025A000C3EF60DF55DF67A8EF8E6E3179BE6946F5
:1025B0008CB361CB1A8366BCA0D26F2536E2685219
:1025C00095770CCC03470BBBB91602222F26055575
:1025D000BE3BBAC5280BBDB2925AB42B046AB35C99
:1025E000A7FFD7C231CFD0B58B9ED92C1DAEDE5BF5
:1025F000B0C2649B26F263EC9CA36A750A936D02D9
:10260000A906099C3F360EEB856707721357000534
:10261000824ABF95147AB8E2AE2BB17B381BB60C58
:102620009B8ED2920DBED5E5B7EFDC7C21DFDB0BB4
:10263000D4D2D38642E2D4F1F8B3DD686E83DA1FD8
:10264000CD16BE815B26B9F6E177B06F7747B71834
:10265000E65A0888706A0FFFCA3B06665C0B0111D8
:10266000FF9E658F69AE62F8D3FF6B6145CF6C1634
:1026700078E20AA0EED20DD75483044EC2B30339D8
:10268000612667A7F71660D04D476949DB776E3E34
:102690004A6AD1AEDC5AD6D9660BDF40F03BD83758
:1026A00053AEBCA9C59EBBDE7FCFB247E9FFB530B4
:1026B0001CF2BDBD8AC2BACA3093B353A6A3B424D8
:1026C0000536D0BA9306D7CD2957DE54BF67D92334
:1026D0002E7A66B3B84A61C4021B685D942B6F2AD8
:1026E00037BE0BB4A18E0CC31BDF055A8DEF022D34
:1026F00000000000000000000102030406070809B2
:1027000000000000010203042A204279746542752A
:10271000662873697A65203D202564293A2025734F
:102720000A20202A20726561643A2025642C2077D3
:10273000726974653A2025640A20202A2044617455
:10274000613A2027000000004F4B0000494E4445ED
:10275000585F4552524F5200782700080000002071
:1027600044000000B40D0008BC270008440000200D
:10277000D40A0000C40D00080000000000000000A2
:1027800000000000482700084C2700080827000820
:102790000000000000000000000000000000000039
:1027A0000000000000000000000000000000000029
:0C27B00000000000000000000024F40005
:04000005080000ED02
:00000001FF
