:020000040800F2
:10000000C80D002001010008270A00087D0500082E
:10001000250A000869050008BD0C00080000000062
:100020000000000000000000000000009D0B000820
:100030007B05000800000000E70A00089F0B00088D
:100040001B0100081B0100081B0100081B01000820
:100050001B0100081B0100081B0100081B01000810
:100060001B0100081B0100081B0100081B01000800
:100070006B0500086D0500086F0500087305000892
:1000800077050008790500081B0100081B0100081E
:100090001B0100081B0100081B0100081B010008D0
:1000A0001B0100081B0100081B0100081B010008C0
:1000B0008D0C00081B0100081B0100081B01000833
:1000C0001B0100081B0100081B0100081B010008A0
:1000D0001B010008B50C0008B90C0008BB0C000897
:1000E0001B0100081B0100081B010008DFF80CD0F1
:1000F00000F028FA00480047C5120008C80D00208B
:100100000648804706480047FEE7FEE7FEE7FEE7B1
:10011000FEE7FEE7FEE7FEE7FEE7FEE7450C000828
:10012000ED000008D2B201E000F8012B491EFBD21D
:1001300070470022F6E710B513460A4604461946F2
:10014000FFF7F0FF204610BD2DE9FE4F804681EA03
:100150000300C00F0C46009021F0004123F0004541
:10016000B8EB0200A94105D24046214690461C4604
:100170000B46024623F00040104347D0270DC7F33B
:100180000A00C3F30A510290401A019040286BDA2A
:10019000C3F3130040F4801B0098924620B1002363
:1001A000D2EB030A63EB0B0B01985946C0F14002F6
:1001B000504600F039F906460D4650465946019A18
:1001C00000F051F910EB08006141002487EA115258
:1001D00084EAE7731A4340D0009A62B3019A012A75
:1001E0004FEA075215DC001B61EB02014FF00042A1
:1001F00002EA0752CDE90042001C41F58011324667
:100200002B4600F051F903B0BDE8F08F404621467F
:10021000F9E7001B61EB0201001C41F58013001897
:100220005B412018A2F5001747EB030140EAD570A7
:10023000B6196D4111E06D084FEA360645EAC07502
:100240004FEA0752001B61EB0201001C41F58011CF
:1002500049084FEA30000019514132462B4603B09D
:10026000BDE8F04F00F011B90098012240000023D2
:10027000D0EB020263EBE073009821464FEAE07492
:10028000B8EB000061EB0401E9E783F000435BE7B2
:1002900081F0004158E72DE9FE4F81EA030404F0A4
:1002A000004421F0004100944FF0000B23F0004384
:1002B00050EA01045ED052EA03045BD0C3F30A544F
:1002C000C1F30A552C44A4F2F3340194A0FB025468
:1002D000C1F3130141F48011C3F3130343F48013FA
:1002E00001FB024400FB034E840A970A44EA81544E
:1002F00047EA8357A4FB076802958D0A05FB07852B
:100300004FEA932C04FB0C542705029D4FEA065834
:1003100047EA1637B5EB08056EEB070C870E920E11
:1003200047EA811742EA8312A7FB0201B6EB0B01F1
:1003300064EB00042B0D43EA0C335E1844EB1C50B5
:10034000DA465146E7FB0201C5F313044FEA0B33CB
:1003500043EA14534FEA0432019C43EA0603A4F132
:100360000C040294009CCDE900B400F09DF803B0A9
:10037000BDE8F08F00200146F9E70EB540F23341A9
:1003800002910021CDE900110A460B4600F08CF8DD
:1003900003B000BDC1F30A5210B5C1F3130140F21E
:1003A000FF3341F480119A4201DA002010BD40F27F
:1003B00033439A42A2F2334203DC524200F043F844
:1003C00010BD904010BD000030B5041E71F1000456
:1003D00004DB4FF00044404264EB0101141E73F152
:1003E000000405DB1C464FF00043524263EB04035C
:1003F0008B4208BF824230BD30B5041E71F100044B
:1004000004DB4FF00044404264EB0101141E73F121
:10041000000405DB1C464FF00043524263EB04032B
:10042000994208BF904230BD202A04DB203A00FAEE
:1004300002F1002070479140C2F1200320FA03F33B
:10044000194390407047202A04DB203A21FA02F039
:100450000021704721FA02F3D040C2F120029140FE
:10046000084319467047202A06DBCB17203A41FA89
:1004700002F043EAE07306E041FA02F3D040C2F131
:100480002002914008431946704710B5141E73F1BD
:10049000000408DA401C41F1000192185B411A4344
:1004A00001D120F0010010BD2DE9F04D92469B4690
:1004B00011B1B1FA81F202E0B0FA80F22032904636
:1004C000FFF7B2FF04460F4640EA0A0041EA0B017B
:1004D00053465A46084313D0114653EA010019D037
:1004E000C8F140025046FFF7AEFF05460E465046A3
:1004F00059464246FFF798FF084305D0012004E023
:1005000020463946BDE8F08D0020054346EAE076F6
:100510002C4337430A986305E40AA0EB0800002245
:10052000FD0A44EA47540A3002D500200146E9E7B3
:10053000010510196941DDE9084500196941BDE867
:10054000F04DA2E7064C074D06E0E06840F00103DD
:1005500094E8070098471034AC42F6D3FFF7CAFD81
:100560006020000880200008FEE77047704700F018
:10057000E7BF00F0BDBF704770477047FEE700005F
:100580000248C16881F40051C16070470010014009
:10059000044908B5CA690243CA61C96901400091AA
:1005A00008BD000000100240044908B58A690243F2
:1005B0008A6189690140009108BD00000010024075
:1005C000044908B58A6902438A618969014000913A
:1005D00008BD000000100240044A114411F8011C3B
:1005E000425822F00102425070470000F01B000800
:1005F000044A114411F8011C425842F001024250D1
:1006000070470000F01B0008044A114411F8011C57
:10061000425842F00202425070470000F01B0008AE
:10062000034A114411F8011C405800F001007047C2
:10063000F01B0008034A114411F8011C4058C0F394
:1006400040007047F01B0008044B194411F8011CCE
:10065000435823F44053134343507047F01B0008A2
:10066000054B001D194411F8011C0B586FF30F03C3
:1006700013430B5070470000F01B0008054B10B5EA
:10068000194411F8011C435844F21004A3431343C6
:10069000435010BDF01B0008034B0C30194411F8F7
:1006A000011C0A5070470000F01B0008044B19445D
:1006B00011F8011C435823F0800313434350704743
:1006C000F01B0008044B194411F8011C435823F493
:1006D0004063134343507047F01B0008044B194418
:1006E00011F8011C435823F0200313434350704773
:1006F000F01B0008044B194411F8011C435823F067
:100700004003134343507047F01B0008044B194447
:1007100011F8011C435823F44073134343507047AE
:10072000F01B0008F0B50A68C2F30F2595FAA5F290
:10073000B2FA82F369E001229A402A4264D0082B7F
:1007400003D240F201129A4006E0A3F108024FF0F2
:100750000114944044F0806292FAA2F700EB126414
:10076000B7FA87F74FEA870C0F27266807FA0CF7C6
:10077000BE4392FAA2F7D1F804E0B7FA87F7BF00B8
:100780000EFA07FE46EA0E0626600E69C7684FEAB3
:10079000122C9CFAACFCBCFA8CFC27EA122706FA55
:1007A0000CF63743C7604E68012E01D0092E2BD1BD
:1007B00092FAA2F7B7FA87F74FEA870C032707FAEE
:1007C0000CF72668D1F808E0BE4392FAA2F7B7FA10
:1007D00087F7BF000EFA07FE92FAA2FC46EA0E0661
:1007E000BCFA8CFC4FEA8C0E4FF0040C26600CFA1D
:1007F0000EFC92FAA2F2B2FA82F2CF68920026EAD6
:100800000C0697403E4326605B1C35FA03F292D1FA
:100810000020F0BD4FF47A71B0FBF1F14FF0E02011
:10082000491E41610021816105210161704700B5C8
:10083000034600F083F9186000F056F9586000F0A4
:1008400061F99860586800F06BF9D86000BD00004D
:10085000014908607047000020000020F0B50268E0
:10086000154B164C164D4FF08046984205D0B042BD
:1008700003D0A04201D0A84203D14F6822F07002F9
:100880003A43984205D0B04203D0A04201D0A842DA
:1008900003D1CC6822F44072224302608A68C262AB
:1008A0000A888262984201D1097C0163416941F062
:1008B000010141610020F0BD002C01400004004016
:1008C000000800402DE9FF410446C0680D4601269E
:1008D000C0F34030F0BBE9686868E2680843296902
:1008E00041F20C639A4311430843E060A868216910
:1008F00021F44051014321616869616921F440712B
:10090000014361616846FFF792FF2448844201D1A8
:10091000039806E02248844202D02248844238D11B
:100920000298B8B12A68AAB100EBC00101EB00112E
:100930009200B1FBF2F36420B3FBF0F3B1FBF2F5EC
:100940006FF018077B43002605EB8305322303EB8A
:10095000051500E01DE0B1FBF2F7B5FBF0F5B7FBC4
:10096000F0F705F0F00505EB0715B1FBF2F7B1FB69
:10097000F2F1B1FBF0F16FF01802514307EB810186
:1009800003EB0111B1FBF0F000F00F00284480B23E
:10099000A06004B03046BDE8F0810000003801409E
:1009A000004400400048004010B586B0142168465D
:1009B000FFF7BFFB0120FFF7EBFD1948006800229D
:1009C000C0F30220114600F055F801461C2000F04B
:1009D0007AF84FF0E0224FF080510020C2F8001169
:1009E0002321ADF800103121CDE901014FF0804401
:1009F000039069462046FFF731FF206820F0800011
:100A00002060A06844F207018843A060606820F07D
:100A100070006060A06820F08000A06006B010BD8B
:100A20000CED00E0FEE77047002809DB00F01F0234
:100A3000012191404009800000F1E020C0F8001140
:100A4000704730B500F00703C3F10704042C00D948
:100A50000424181D072801D2002300E0DB1E012515
:100A600005FA04F0401E084098409D406D1E154058
:100A7000284330BD30B500F00703C3F10704042C50
:100A800000D90424181D072801D2002300E0DB1E32
:100A9000012505FA04F0401E084098409D406D1E57
:100AA0001540284330BD0907090E002804DB00F17A
:100AB000E02080F80014704700F00F0000F1E02003
:100AC00080F8141D70470907090E002804DB00F1A7
:100AD000E02080F80014704700F00F0000F1E020E3
:100AE00080F8141D7047704704494968044A01F0B2
:100AF000F0010909515CC840704700000010024035
:100B0000F81F000804494968044A01F4E06102EB57
:100B100011210978C84070470010024008200008E1
:100B200004494968044A01F4605102EBD121097873
:100B3000C84070470010024008200008064840687E
:100B400010F00C01054805D0042903D0082901D173
:100B500000F006B8704700000010024000127A0052
:100B60000B48416811F480320A4909D0B2F5803F40
:100B700006D14168084AC1F34041491CB2FBF1F17A
:100B80004068022200F4701002EB90404843704726
:100B90000010024000093D0000127A0070477047C3
:100BA000254810B5016821F0070141F002010160FC
:100BB00000682248016841F4803101600168C1F396
:100BC00040410029FAD0416821F47C1141F4E81138
:100BD0004160016841F0807101600168C1F34061CA
:100BE0000029FAD0416821F0F0014160416821F408
:100BF000E06141F480614160416821F4605141F459
:100C000000514160416821F0030141F0020141605F
:100C1000416801F00C010829FAD1094C2046FFF780
:100C2000F9FD4FF0E021086940F00400086120461A
:100C3000BDE81040FFF70CBE00200240001002404B
:100C400000A24A040D48016841F0010101604168B9
:100C50000B4A1140416001680A4A11400160016875
:100C600021F480210160416821F4FE0141604FF4CC
:100C70001F0181600449C0030860704700100240F2
:100C80000000FFF8FFFFF6FE08ED00E010B54FF0A2
:100C90008044206910F0010F08D005480168491C04
:100CA000016000F0FBFA6FF00100206110BD000050
:100CB0001C00002000F0CCBD70477047FEE700002C
:100CC000044AB2EB410F00D108B100207047012067
:100CD000704700000000E0FF00B10120014321F057
:100CE00000400249081AC00F704700000000F07F62
:100CF00002E008C8121F08C1002AFAD170477047E5
:100D0000002001E001C1121F002AFBD17047000042
:100D100010B5084B0446186828B94FF4807106488E
:100D200000F028F91860214600F0F4F8BDE8104002
:100D300000F0A2B808000020780000200FB4094B92
:100D400010B5186828B94FF48071074800F012F9FF
:100D5000186003AA029900F069FB00F08DF810BC3E
:100D60005DF814FB080000207800002000F062FA13
:100D700000F030FC002000F031FF0B4D2C680BA080
:100D8000FFF7C6FF00F0B0FB00F02CFA286828211E
:100D9000001BB0FBF1F10EA0FFF7D0FF012000F027
:100DA0005FF900F0EFFBF9E71C0000204E6F6E2D9D
:100DB000766F6C6174696C652073746F72616765BE
:100DC000207465737420626567696E2E2E2E0A008A
:100DD0005465737420636F6D706C65746520696E03
:100DE000202564206D696C6C697365636F6E64287F
:100DF00073292E0A000000002DE9F0411C4C94F8E4
:100E00002000002832D1EFF3108572B60421194E6C
:100E10003046FFF7E1FB4FF4804070604010706097
:100E200040107060C00070606069D0E90112571A0C
:100E30001AD0402F00D940273A46616800F0B8F830
:100E4000E0693844E0613A4604213046FFF708FC87
:100E5000042130466268FFF71FFC012084F820005F
:100E600004213046FFF7C4FB85F31088BDE8F0810C
:100E7000240000200000024010B5044C206800F05F
:100E8000E6FD2068BDE8104000F0A3B8080000208F
:100E90000A46054991F8213023B1CB68014618462E
:100EA00000F020B88B68F9E7240000200A46A0F182
:100EB0000A01062910D2DFE801F0030507090B0D2E
:100EC00041210BE0422109E0432107E0442105E0F4
:100ED000452103E0462101E03030C1B2104600F068
:100EE0009BB8000030B59AB1D0E902431B1B934276
:100EF00001D2032030BD056822442B198260A81856
:100F000004E000BF11F8012B03F8012B8342F9D153
:100F1000002030BD70B505460C46084600F07BFA4F
:100F2000024621462846BDE87040FFF7DBBFF0B51A
:100F3000426842B181684FF000048B1A0ED00168FC
:100F40008D18CE1805E00020F0BD15F8017B01F8E2
:100F5000017BB142F9D1C0E9014301E08460446002
:100F60001046F0BDD0E90110814201D10120704747
:100F700000207047C16000F110020021C0E900218B
:100F80008160704710B4426832B183689A4206D1DA
:100F900000214160816009E0002010BC7047C468F6
:100FA000E31A8B4202D210BCFFF7C1BF1046F4E730
:100FB00030B5002A0CD0D0E9005422442B194260ED
:100FC000A81803E013F8012B01F8012B8342F9D193
:100FD00030BD002141608160704770B5D0E9015299
:100FE000D1E90243521B1B1B9A4200D91A46002A20
:100FF00011D003682B440D682C449D1803E013F8AE
:10100000016B04F8016BAB42F9D1436813444360B0
:1010100088681044886070BD10B5D0E902239A42F8
:1010200005D2531C046883600020A15410BD032026
:1010300010BD000070B504460D46000909D0FFF749
:1010400035FF00BF04F00F002946BDE87040FFF7F0
:101050002DBF002AF6D030212846FFF7DDFFF1E74B
:10106000044900EB80000A6802EBC0000A68824273
:10107000FCD370471C0000202DE9F0471F461400E8
:1010800005460E4607D0082C00D90824FFF724FE99
:1010900018B14AA11DE00124F8E728463146FFF7C0
:1010A0000FFE08B146A114E000221346284631463F
:1010B000FFF78AF905D286F000462D213846FFF762
:1010C000ABFF424A424B28463146FFF795F905D21D
:1010D00040A13846BDE8F047FFF71CBF284631461F
:1010E000FFF758F98146FFF748F92A463346FFF7DC
:1010F000CFF806460125204605E000BF05EB850236
:101100005500401EC0B20028F8D10022334B3046B3
:10111000FFF71AF8064688462846FFF72EF93246AA
:101120004346FFF7B8F806468846FFF733F9054609
:10113000FFF723F943463246FFF7AAF80022284B6F
:10114000FFF75AF904D86D1C012C01D109F10109EE
:101150003946484600F018FD2E213846FFF75CFF5F
:101160003946284600F010FD0DB100200FE038464A
:10117000BDE8F0473021FFF74FBFB9683A68091B57
:101180000B18D35C0A44411E401C5354C0B2A04209
:10119000F3D3BA680021521E0120BA6008E03B6810
:1011A000151A5B5D302B01D1491CC9B2401CC0B27D
:1011B000A042F4D3501AB860BDE8F0874E414E000B
:1011C000696E66696E697479000000000000E0FFD6
:1011D000FFFFEF416C617267650000000000F03FA7
:1011E0000000E03F10B5002802D000F0F7FCFEE759
:1011F00010BD70B50D46040005D52D212846FFF71A
:101200000BFFE443641C29462046BDE8704000F013
:10121000BBBC66280BD004DC252808D0642804D188
:1012200005E0732803D0782801D000207047012002
:101230007047000005480021017144F620610160FB
:1012400003494FF40050086170470000000000207F
:101250000010014005480021017144F62061016041
:1012600003494FF40050486170470000000000201F
:101270000010014003480121017144F62061016022
:1012800070470000000000200348012101714FF465
:10129000FA61016070470000000000200748016803
:1012A000074A1268B2FBF1F301FB1321002904D1B4
:1012B0000079002801D0FFF763B9704700000020D3
:1012C0001C00002086B00120FFF77AF94FF0805013
:1012D000FFF75EF92B4801684FF6FF0211402A4ADA
:1012E00041F440711143016000680022C0F3022004
:1012F0000A21FFF7BFFB01464FF0FF30FFF7E3FB8A
:101300002248416821F0E0614160416841F000718C
:101310004160FFF745FC14216846FEF70AFF1020E4
:10132000FFF74EF92020FFF74BF90420FFF748F9AB
:101330000820FFF745F9174815494FF4005202619C
:10134000009101210324CDE901140022CDE90321FC
:101350006946FFF7E7F9FFF727FB03231A460E4913
:101360004FF4E130009400F03DF94FF08040016807
:1013700041F001010160C16841F00101C160FFF766
:10138000F5FC00000CED00E00000FA050000014053
:101390002000200400100140ED1400082DE9F04762
:1013A00015460E4607460024A1F10109A1F1020AE3
:1013B0002DE0385D252829D14C452AD007EB0408BB
:1013C00098F80100303809280FD8544521D098F8F2
:1013D0000200FFF71EFFC8B138198078287098F80E
:1013E00001003038687203200BE038194078FFF7AD
:1013F00010FF002808D098F80100287000206872BB
:101400000220287201206C60BDE8F087641CB442A1
:10141000CFD30020F8E701464FF4806200200B5C38
:10142000002B02D0401C9042F9D370472DE9FE4FAB
:10143000824690460F464FF000090846FFF7EBFF43
:101440000646002441E029465046019AFFF74AFD2E
:101450009DF80000662810D004DC252829D06428D7
:101460002BD104E073281ED0782826D113E058F839
:10147000040B5146FFF7BDFE1FE008F1070020F006
:1014800007009DF80920F0E802518046534628469F
:10149000FFF7F2FD11E058F8040B9DF809205146C2
:1014A00000F042FB09E058F8041B5046FFF732FDFC
:1014B00003E025215046FFF7AFFD9DF80810019885
:1014C00008442044B04208D804463819311B054668
:1014D0006A46FFF763FF0028B5D139195046FFF778
:1014E00019FD4846BDE8FE8F002070477047000098
:1014F00010B51248104C00792058C0F3800040B15C
:101500002068C0F3804020B14FF48020606000F07C
:1015100033FA05212046FFF78DF800280BD020680C
:10152000C0F34040002806D04FF400306060BDE8B2
:10153000104000F021BA10BD00000240F01B00086E
:1015400010B50E4C04212046FFF774F860B12068F6
:10155000C0F3403040B14FF40050606008490020B3
:1015600081F82000FFF748FC2068C0F3C030002855
:1015700002D04FF40040606010BD00000000024047
:101580002400002010B5124C012084F821002169AC
:10159000A068FFF722FDA068FFF7C9FC002084F8CF
:1015A0002100D4E90301FFF718FDE068FFF7BFFC55
:1015B0002069FFF7D7FC002808D1A16909B120698B
:1015C00088472069BDE81040FFF703BD10BD00004B
:1015D0002400002010B500F047FABDE8104000F0EC
:1015E0004FB900002DE9FF4F87B005461E4617464C
:1015F0004FF48040DDF85080FEF7D6FF8A484169FD
:1016000041F001014161406900F0010005900420B2
:10161000FEF7CAFF0DB94FF4E135844C802104F286
:101620001450656284F8287084F8296084F82A8050
:1016300004F12C0600250C343561FFF79BFCA060FB
:1016400004F5996044F8080C8020206125757848DD
:10165000E560009009204FF0030ACDE9010A4FF040
:10166000010BCDE9035B69467248FFF75BF8102276
:1016700004217148FFF702F8002204216E48FEF7AA
:10168000E3FF002204216C48FFF728F80022042120
:101690006948FFF72FF8802204216748FFF706F812
:1016A000002204216448FFF731F800220421624837
:1016B000FFF708F86249DFF88081DFF88091CA7887
:1016C00008F1080842F8089054F8082C04215A48F8
:1016D000FEF7E2FF002204215748FEF7C1FF594FF1
:1016E0003868617FC0F302200022FFF7AAF90146A3
:1016F0000E20FFF7D8F90E20FFF796F930694FF466
:10170000007140F00800306104F5AC7044F80C0C36
:1017100000F5B070FFF72EFC6060802104F5EC70DE
:10172000FFF728FC44F8040C6575402104F51A7095
:10173000FFF720FC20604448694645600898E06057
:10174000424800900420CDE9010ACDE9035B394805
:10175000FEF7E8FF002205213748FEF78FFF002241
:1017600005213548FEF770FF202205213248FEF79B
:10177000B5FF002205213048FEF7BCFF802205217D
:101780002D48FEF793FF002205212B48FEF7BEFFF0
:10179000002205212848FEF795FF29490A7942F8D9
:1017A000089054F80C2C05212348FEF775FF802281
:1017B00005212148FEF754FF3868217FC0F302203D
:1017C0000022FFF73EF901460F20FFF76CF90F20CA
:1017D000FFF72AF93069314640F004003061A06912
:1017E000C6E90005B560F5607561A9F104052846F4
:1017F000FFF768F8286920F490402861686920F0B4
:101800002A0068613868A17FC0F302200022FFF738
:1018100018F901462520FFF746F92520FFF704F9BE
:101820000BB0BDE8F08F0000001002402400002043
:101830000200020400080140000002400438014098
:10184000F01B00080CED00E0080000200400040478
:101850000A4882B0C168C1F3001100290BD00168A9
:10186000C1F30011002906D0016800914068009082
:1018700002B000F081B802B07047000000380140AB
:10188000F8B5EFF3108672B6344D4FF480206860DF
:101890004010686040106860C0006860304C20688C
:1018A00000906068009020680090606800906FF081
:1018B000200020606FF0400020606FF48070206096
:1018C0006FF400702060274F052128463A68FEF724
:1018D000E3FE802205212846FEF7C2FE2249481D6C
:1018E0000979695810F8010C41F0040129500521CB
:1018F0002846FEF789FEE06840F01000E06060696D
:1019000040F04000606105212846FEF771FEE06866
:1019100040F40050E06005212846FEF781FE0028D3
:10192000F9D086F31088114838604FF4007100F543
:10193000B070FFF71FFB38610C4880218030FFF743
:1019400019FB0023B86087F8213040210848FFF7D1
:1019500011FBF86007484360F8BD0000000002403A
:101960000038014024000020F01B000888010020FE
:10197000980200200800002070B510481049007936
:101980004058104E80B2104DC0F1800470682A6833
:1019900084420DD003D9A4EB0001104406E0C0F14D
:1019A00080011044FFF774FA21462868FFF770FAA7
:1019B000802C00D10024746070BD0000F01B000872
:1019C0000400024008000020240000202DE9F0411E
:1019D00007460E0011D0EFF3108472B60E4D686901
:1019E000FFF7D0FA6869D0E90221891AB14206D21C
:1019F00084F310880320BDE8F0810020FBE7324625
:101A00003946FFF76FFA10B9E869801BE86184F383
:101A10001088FFF7F1F9F0E7240000202DE9F041EC
:101A20000E46074600250EE0741B802C00D980244A
:101A3000204600F06FF80028FAD021463846FFF71C
:101A4000C5FF25442744B542EED3BDE8F08170B50B
:101A50000446D4E901010D1A29462068FFF7DEFF8C
:101A600060682844606070BD2DE9F0418021244801
:101A7000FFF780FA234D686105F2D440686080204A
:101A8000E861EFF3108672B61F4C4FF4804060603F
:101A90004010606040106060C0006060042120461B
:101AA000FEF7B2FD1949081DC978615810F8010CFC
:101AB00041F008012150164F786940F080007861AC
:101AC000002204212046FEF7CBFD042120466A684F
:101AD000FEF7E2FD04212046FEF78AFD04212046A0
:101AE000FEF79EFD0028F9D0F86840F40050F86039
:101AF000002085F8200086F31088BDE8F081000002
:101B0000380500202400002000000240F01B0008DF
:101B1000003801400349C969814201D3012070475F
:101B20000020704724000020F8B50E4688B100213F
:101B30006C466054000A491C0429FAD34FF003058F
:101B400092B1605D01223146FFF774FA6D1EF8D53F
:101B5000F8BD22B109A13046FFF7DCF9F8BD30210C
:101B60003046FFF759FAF8BD605D18B100223146E2
:101B7000FFF760FA6D1EF7D5F8BD00003030303049
:101B800030303030000000002DE9F047124C8A461A
:101B9000054600274FF030094FF00A08B5FBF4F670
:101BA0003EB106F13000C1B25046FFF735FA0127C9
:101BB00004E01FB149465046FFF72EFA06FB1455C4
:101BC000B4FBF8F40A2CE9D23035E9B25046BDE84E
:101BD000F047FFF721BA000000CA9A3B18B1042869
:101BE00003D0FFF737BBFFF745BBFFF74DBB000046
:101BF000081C3044586C80000000000096300777C5
:101C00002C610EEEBA51099919C46D078FF46A70F0
:101C100035A563E9A395649E3288DB0EA4B8DC7910
:101C20001EE9D5E088D9D2972B4CB609BD7CB17E90
:101C3000072DB8E7911DBF906410B71DF220B06A60
:101C40004871B9F3DE41BE847DD4DA1AEBE4DD6D70
:101C500051B5D4F4C785D38356986C13C0A86B6470
:101C60007AF962FDECC9658A4F5C0114D96C066390
:101C7000633D0FFAF50D088DC8206E3B5E10694C70
:101C8000E44160D5727167A2D1E4033C47D4044BB0
:101C9000FD850DD26BB50AA5FAA8B5356C98B24290
:101CA000D6C9BBDB40F9BCACE36CD832755CDF4510
:101CB000CF0DD6DC593DD1ABAC30D9263A00DE5140
:101CC0008051D7C81661D0BFB5F4B42123C4B35630
:101CD0009995BACF0FA5BDB89EB802280888055FB0
:101CE000B2D90CC624E90BB1877C6F2F114C685810
:101CF000AB1D61C13D2D66B69041DC760671DB01FE
:101D0000BC20D2982A10D5EF8985B1711FB5B606CF
:101D1000A5E4BF9F33D4B8E8A2C9077834F9000F0F
:101D20008EA8099618980EE1BB0D6A7F2D3D6D08AF
:101D3000976C6491015C63E6F4516B6B62616C1C9F
:101D4000D83065854E0062F2ED95066C7BA5011BCF
:101D5000C1F4088257C40FF5C6D9B06550E9B7126F
:101D6000EAB8BE8B7C88B9FCDF1DDD62492DDA152F
:101D7000F37CD38C654CD4FB5861B24DCE51B53A4F
:101D80007400BCA3E230BBD441A5DF4AD795D83D4F
:101D90006DC4D1A4FBF4D6D36AE96943FCD96E348F
:101DA000468867ADD0B860DA732D0444E51D03336F
:101DB0005F4C0AAAC97C0DDD3C710550AA4102277F
:101DC00010100BBE86200CC925B56857B3856F204F
:101DD00009D466B99FE461CE0EF9DE5E98C9D929AF
:101DE0002298D0B0B4A8D7C7173DB359810DB42EEF
:101DF0003B5CBDB7AD6CBAC02083B8EDB6B3BF9A3B
:101E00000CE2B6039AD2B1743947D5EAAF77D29DC6
:101E10001526DB048316DC73120B63E3843B6494A6
:101E20003E6A6D0DA85A6A7A0BCF0EE49DFF0993A6
:101E300027AE000AB19E077D44930FF0D2A3088716
:101E400068F2011EFEC206695D5762F7CB676580C6
:101E500071366C19E7066B6E761BD4FEE02BD389C6
:101E60005A7ADA10CC4ADD676FDFB9F9F9EFBE8E26
:101E700043BEB717D58EB060E8A3D6D67E93D1A166
:101E8000C4C2D83852F2DF4FF167BBD16757BCA646
:101E9000DD06B53F4B36B248DA2B0DD84C1B0AAFE6
:101EA000F64A0336607A0441C3EF60DF55DF67A866
:101EB000EF8E6E3179BE69468CB361CB1A8366BCF6
:101EC000A0D26F2536E2685295770CCC03470BBB46
:101ED000B91602222F260555BE3BBAC5280BBDB246
:101EE000925AB42B046AB35CA7FFD7C231CFD0B5E6
:101EF0008B9ED92C1DAEDE5BB0C2649B26F263ECD8
:101F00009CA36A750A936D02A906099C3F360EEBE5
:101F10008567077213570005824ABF95147AB8E2A5
:101F2000AE2BB17B381BB60C9B8ED2920DBED5E585
:101F3000B7EFDC7C21DFDB0BD4D2D38642E2D4F1D5
:101F4000F8B3DD686E83DA1FCD16BE815B26B9F665
:101F5000E177B06F7747B718E65A0888706A0FFFC5
:101F6000CA3B06665C0B0111FF9E658F69AE62F885
:101F7000D3FF6B6145CF6C1678E20AA0EED20DD785
:101F80005483044EC2B30339612667A7F71660D0A5
:101F90004D476949DB776E3E4A6AD1AEDC5AD6D9E5
:101FA000660BDF40F03BD83753AEBCA9C59EBBDE05
:101FB0007FCFB247E9FFB5301CF2BDBD8AC2BACAB5
:101FC0003093B353A6A3B4240536D0BA9306D7CD25
:101FD0002957DE54BF67D9232E7A66B3B84A61C445
:101FE000021B685D942B6F2A37BE0BB4A18E0CC305
:101FF0001BDF055A8DEF022D0000000000000000DD
:10200000010203040607080900000000010203049E
:102010002A20427974654275662873697A65203D85
:10202000202564293A2025730A20202A2072656120
:10203000643A2025642C2077726974653A202564FF
:102040000A20202A20446174613A20270000000001
:102050004F4B0000494E4445585F4552524F520085
:10206000802000080000002024000000F00C000880
:10207000A420000824000020A40D0000000D00088A
:102080000000000000000000000000000000000050
:102090005020000854200008102000080000000014
:0420A0000024F40024
:04000005080000ED02
:00000001FF
